{
	"project3.0 final/DataUsage3.0.sol": {
		"DataUsage": {
			"abi": [
				{
					"anonymous": false,
					"inputs": [
						{
							"indexed": false,
							"internalType": "string",
							"name": "mesaage",
							"type": "string"
						},
						{
							"indexed": false,
							"internalType": "uint256",
							"name": "blockNumber",
							"type": "uint256"
						}
					],
					"name": "log",
					"type": "event"
				},
				{
					"inputs": [
						{
							"internalType": "address",
							"name": "_actorID",
							"type": "address"
						},
						{
							"internalType": "string",
							"name": "_serviceName",
							"type": "string"
						},
						{
							"internalType": "string",
							"name": "_servicePurpose",
							"type": "string"
						},
						{
							"internalType": "uint256",
							"name": "_operation",
							"type": "uint256"
						},
						{
							"internalType": "string[]",
							"name": "_personalData",
							"type": "string[]"
						}
					],
					"name": "addDataPurpose",
					"outputs": [],
					"stateMutability": "nonpayable",
					"type": "function"
				},
				{
					"inputs": [],
					"name": "getDataPurposes",
					"outputs": [
						{
							"components": [
								{
									"internalType": "uint256",
									"name": "blockNumber",
									"type": "uint256"
								},
								{
									"internalType": "address",
									"name": "actorID",
									"type": "address"
								},
								{
									"internalType": "string",
									"name": "serviceName",
									"type": "string"
								},
								{
									"internalType": "string",
									"name": "servicePurpose",
									"type": "string"
								},
								{
									"internalType": "uint256",
									"name": "operation",
									"type": "uint256"
								},
								{
									"internalType": "string[]",
									"name": "personalData",
									"type": "string[]"
								}
							],
							"internalType": "struct DataUsage.DataPurpose[]",
							"name": "",
							"type": "tuple[]"
						}
					],
					"stateMutability": "view",
					"type": "function"
				}
			],
			"devdoc": {
				"kind": "dev",
				"methods": {},
				"version": 1
			},
			"evm": {
				"assembly": "    /* \"project3.0 final/DataUsage3.0.sol\":62:988  contract DataUsage{... */\n  mstore(0x40, 0x80)\n  callvalue\n  dup1\n  iszero\n  tag_1\n  jumpi\n  0x00\n  dup1\n  revert\ntag_1:\n  pop\n  dataSize(sub_0)\n  dup1\n  dataOffset(sub_0)\n  0x00\n  codecopy\n  0x00\n  return\nstop\n\nsub_0: assembly {\n        /* \"project3.0 final/DataUsage3.0.sol\":62:988  contract DataUsage{... */\n      mstore(0x40, 0x80)\n      callvalue\n      dup1\n      iszero\n      tag_1\n      jumpi\n      0x00\n      dup1\n      revert\n    tag_1:\n      pop\n      jumpi(tag_2, lt(calldatasize, 0x04))\n      shr(0xe0, calldataload(0x00))\n      dup1\n      0x8ab5af6b\n      eq\n      tag_3\n      jumpi\n      dup1\n      0xd2fa54b1\n      eq\n      tag_4\n      jumpi\n    tag_2:\n      0x00\n      dup1\n      revert\n        /* \"project3.0 final/DataUsage3.0.sol\":875:985  function getDataPurposes() external view  returns (DataPurpose[] memory){... */\n    tag_3:\n      tag_5\n      tag_6\n      jump\t// in\n    tag_5:\n      mload(0x40)\n      tag_7\n      swap2\n      swap1\n      tag_8\n      jump\t// in\n    tag_7:\n      mload(0x40)\n      dup1\n      swap2\n      sub\n      swap1\n      return\n        /* \"project3.0 final/DataUsage3.0.sol\":404:861  function addDataPurpose(... */\n    tag_4:\n      tag_9\n      0x04\n      dup1\n      calldatasize\n      sub\n      dup2\n      add\n      swap1\n      tag_10\n      swap2\n      swap1\n      tag_11\n      jump\t// in\n    tag_10:\n      tag_12\n      jump\t// in\n    tag_9:\n      stop\n        /* \"project3.0 final/DataUsage3.0.sol\":875:985  function getDataPurposes() external view  returns (DataPurpose[] memory){... */\n    tag_6:\n        /* \"project3.0 final/DataUsage3.0.sol\":926:946  DataPurpose[] memory */\n      0x60\n        /* \"project3.0 final/DataUsage3.0.sol\":965:977  dataPurposes */\n      0x00\n        /* \"project3.0 final/DataUsage3.0.sol\":958:977  return dataPurposes */\n      dup1\n      sload\n      dup1\n      0x20\n      mul\n      0x20\n      add\n      mload(0x40)\n      swap1\n      dup2\n      add\n      0x40\n      mstore\n      dup1\n      swap3\n      swap2\n      swap1\n      dup2\n      dup2\n      mstore\n      0x20\n      add\n      0x00\n      swap1\n    tag_14:\n      dup3\n      dup3\n      lt\n      iszero\n      tag_15\n      jumpi\n      dup4\n      dup3\n      swap1\n      0x00\n      mstore\n      keccak256(0x00, 0x20)\n      swap1\n      0x06\n      mul\n      add\n      mload(0x40)\n      dup1\n      0xc0\n      add\n      0x40\n      mstore\n      swap1\n      dup2\n      0x00\n      dup3\n      add\n      sload\n      dup2\n      mstore\n      0x20\n      add\n      0x01\n      dup3\n      add\n      0x00\n      swap1\n      sload\n      swap1\n      0x0100\n      exp\n      swap1\n      div\n      0xffffffffffffffffffffffffffffffffffffffff\n      and\n      0xffffffffffffffffffffffffffffffffffffffff\n      and\n      0xffffffffffffffffffffffffffffffffffffffff\n      and\n      dup2\n      mstore\n      0x20\n      add\n      0x02\n      dup3\n      add\n      dup1\n      sload\n      tag_17\n      swap1\n      tag_18\n      jump\t// in\n    tag_17:\n      dup1\n      0x1f\n      add\n      0x20\n      dup1\n      swap2\n      div\n      mul\n      0x20\n      add\n      mload(0x40)\n      swap1\n      dup2\n      add\n      0x40\n      mstore\n      dup1\n      swap3\n      swap2\n      swap1\n      dup2\n      dup2\n      mstore\n      0x20\n      add\n      dup3\n      dup1\n      sload\n      tag_19\n      swap1\n      tag_18\n      jump\t// in\n    tag_19:\n      dup1\n      iszero\n      tag_20\n      jumpi\n      dup1\n      0x1f\n      lt\n      tag_21\n      jumpi\n      0x0100\n      dup1\n      dup4\n      sload\n      div\n      mul\n      dup4\n      mstore\n      swap2\n      0x20\n      add\n      swap2\n      jump(tag_20)\n    tag_21:\n      dup3\n      add\n      swap2\n      swap1\n      0x00\n      mstore\n      keccak256(0x00, 0x20)\n      swap1\n    tag_22:\n      dup2\n      sload\n      dup2\n      mstore\n      swap1\n      0x01\n      add\n      swap1\n      0x20\n      add\n      dup1\n      dup4\n      gt\n      tag_22\n      jumpi\n      dup3\n      swap1\n      sub\n      0x1f\n      and\n      dup3\n      add\n      swap2\n    tag_20:\n      pop\n      pop\n      pop\n      pop\n      pop\n      dup2\n      mstore\n      0x20\n      add\n      0x03\n      dup3\n      add\n      dup1\n      sload\n      tag_23\n      swap1\n      tag_18\n      jump\t// in\n    tag_23:\n      dup1\n      0x1f\n      add\n      0x20\n      dup1\n      swap2\n      div\n      mul\n      0x20\n      add\n      mload(0x40)\n      swap1\n      dup2\n      add\n      0x40\n      mstore\n      dup1\n      swap3\n      swap2\n      swap1\n      dup2\n      dup2\n      mstore\n      0x20\n      add\n      dup3\n      dup1\n      sload\n      tag_24\n      swap1\n      tag_18\n      jump\t// in\n    tag_24:\n      dup1\n      iszero\n      tag_25\n      jumpi\n      dup1\n      0x1f\n      lt\n      tag_26\n      jumpi\n      0x0100\n      dup1\n      dup4\n      sload\n      div\n      mul\n      dup4\n      mstore\n      swap2\n      0x20\n      add\n      swap2\n      jump(tag_25)\n    tag_26:\n      dup3\n      add\n      swap2\n      swap1\n      0x00\n      mstore\n      keccak256(0x00, 0x20)\n      swap1\n    tag_27:\n      dup2\n      sload\n      dup2\n      mstore\n      swap1\n      0x01\n      add\n      swap1\n      0x20\n      add\n      dup1\n      dup4\n      gt\n      tag_27\n      jumpi\n      dup3\n      swap1\n      sub\n      0x1f\n      and\n      dup3\n      add\n      swap2\n    tag_25:\n      pop\n      pop\n      pop\n      pop\n      pop\n      dup2\n      mstore\n      0x20\n      add\n      0x04\n      dup3\n      add\n      sload\n      dup2\n      mstore\n      0x20\n      add\n      0x05\n      dup3\n      add\n      dup1\n      sload\n      dup1\n      0x20\n      mul\n      0x20\n      add\n      mload(0x40)\n      swap1\n      dup2\n      add\n      0x40\n      mstore\n      dup1\n      swap3\n      swap2\n      swap1\n      dup2\n      dup2\n      mstore\n      0x20\n      add\n      0x00\n      swap1\n    tag_28:\n      dup3\n      dup3\n      lt\n      iszero\n      tag_29\n      jumpi\n      dup4\n      dup3\n      swap1\n      0x00\n      mstore\n      keccak256(0x00, 0x20)\n      add\n      dup1\n      sload\n      tag_31\n      swap1\n      tag_18\n      jump\t// in\n    tag_31:\n      dup1\n      0x1f\n      add\n      0x20\n      dup1\n      swap2\n      div\n      mul\n      0x20\n      add\n      mload(0x40)\n      swap1\n      dup2\n      add\n      0x40\n      mstore\n      dup1\n      swap3\n      swap2\n      swap1\n      dup2\n      dup2\n      mstore\n      0x20\n      add\n      dup3\n      dup1\n      sload\n      tag_32\n      swap1\n      tag_18\n      jump\t// in\n    tag_32:\n      dup1\n      iszero\n      tag_33\n      jumpi\n      dup1\n      0x1f\n      lt\n      tag_34\n      jumpi\n      0x0100\n      dup1\n      dup4\n      sload\n      div\n      mul\n      dup4\n      mstore\n      swap2\n      0x20\n      add\n      swap2\n      jump(tag_33)\n    tag_34:\n      dup3\n      add\n      swap2\n      swap1\n      0x00\n      mstore\n      keccak256(0x00, 0x20)\n      swap1\n    tag_35:\n      dup2\n      sload\n      dup2\n      mstore\n      swap1\n      0x01\n      add\n      swap1\n      0x20\n      add\n      dup1\n      dup4\n      gt\n      tag_35\n      jumpi\n      dup3\n      swap1\n      sub\n      0x1f\n      and\n      dup3\n      add\n      swap2\n    tag_33:\n      pop\n      pop\n      pop\n      pop\n      pop\n      dup2\n      mstore\n      0x20\n      add\n      swap1\n      0x01\n      add\n      swap1\n      jump(tag_28)\n    tag_29:\n      pop\n      pop\n      pop\n      pop\n      dup2\n      mstore\n      pop\n      pop\n      dup2\n      mstore\n      0x20\n      add\n      swap1\n      0x01\n      add\n      swap1\n      jump(tag_14)\n    tag_15:\n      pop\n      pop\n      pop\n      pop\n      swap1\n      pop\n        /* \"project3.0 final/DataUsage3.0.sol\":875:985  function getDataPurposes() external view  returns (DataPurpose[] memory){... */\n      swap1\n      jump\t// out\n        /* \"project3.0 final/DataUsage3.0.sol\":404:861  function addDataPurpose(... */\n    tag_12:\n        /* \"project3.0 final/DataUsage3.0.sol\":632:652  uint256 _blockNumber */\n      0x00\n        /* \"project3.0 final/DataUsage3.0.sol\":655:667  block.number */\n      number\n        /* \"project3.0 final/DataUsage3.0.sol\":632:667  uint256 _blockNumber = block.number */\n      swap1\n      pop\n        /* \"project3.0 final/DataUsage3.0.sol\":682:694  dataPurposes */\n      0x00\n        /* \"project3.0 final/DataUsage3.0.sol\":700:788  DataPurpose(_blockNumber,_actorID,_serviceName,_servicePurpose,_operation,_personalData) */\n      mload(0x40)\n      dup1\n      0xc0\n      add\n      0x40\n      mstore\n      dup1\n        /* \"project3.0 final/DataUsage3.0.sol\":712:724  _blockNumber */\n      dup4\n        /* \"project3.0 final/DataUsage3.0.sol\":700:788  DataPurpose(_blockNumber,_actorID,_serviceName,_servicePurpose,_operation,_personalData) */\n      dup2\n      mstore\n      0x20\n      add\n        /* \"project3.0 final/DataUsage3.0.sol\":725:733  _actorID */\n      dup9\n        /* \"project3.0 final/DataUsage3.0.sol\":700:788  DataPurpose(_blockNumber,_actorID,_serviceName,_servicePurpose,_operation,_personalData) */\n      0xffffffffffffffffffffffffffffffffffffffff\n      and\n      dup2\n      mstore\n      0x20\n      add\n        /* \"project3.0 final/DataUsage3.0.sol\":734:746  _serviceName */\n      dup8\n        /* \"project3.0 final/DataUsage3.0.sol\":700:788  DataPurpose(_blockNumber,_actorID,_serviceName,_servicePurpose,_operation,_personalData) */\n      dup2\n      mstore\n      0x20\n      add\n        /* \"project3.0 final/DataUsage3.0.sol\":747:762  _servicePurpose */\n      dup7\n        /* \"project3.0 final/DataUsage3.0.sol\":700:788  DataPurpose(_blockNumber,_actorID,_serviceName,_servicePurpose,_operation,_personalData) */\n      dup2\n      mstore\n      0x20\n      add\n        /* \"project3.0 final/DataUsage3.0.sol\":763:773  _operation */\n      dup6\n        /* \"project3.0 final/DataUsage3.0.sol\":700:788  DataPurpose(_blockNumber,_actorID,_serviceName,_servicePurpose,_operation,_personalData) */\n      dup2\n      mstore\n      0x20\n      add\n        /* \"project3.0 final/DataUsage3.0.sol\":774:787  _personalData */\n      dup5\n        /* \"project3.0 final/DataUsage3.0.sol\":700:788  DataPurpose(_blockNumber,_actorID,_serviceName,_servicePurpose,_operation,_personalData) */\n      dup2\n      mstore\n      pop\n        /* \"project3.0 final/DataUsage3.0.sol\":682:789  dataPurposes.push(DataPurpose(_blockNumber,_actorID,_serviceName,_servicePurpose,_operation,_personalData)) */\n      swap1\n      dup1\n      0x01\n      dup2\n      sload\n      add\n      dup1\n      dup3\n      sstore\n      dup1\n      swap2\n      pop\n      pop\n      0x01\n      swap1\n      sub\n      swap1\n      0x00\n      mstore\n      keccak256(0x00, 0x20)\n      swap1\n      0x06\n      mul\n      add\n      0x00\n      swap1\n      swap2\n      swap1\n      swap2\n      swap1\n      swap2\n      pop\n      0x00\n      dup3\n      add\n      mload\n      dup2\n      0x00\n      add\n      sstore\n      0x20\n      dup3\n      add\n      mload\n      dup2\n      0x01\n      add\n      exp(0x0100, 0x00)\n      dup2\n      sload\n      dup2\n      0xffffffffffffffffffffffffffffffffffffffff\n      mul\n      not\n      and\n      swap1\n      dup4\n      0xffffffffffffffffffffffffffffffffffffffff\n      and\n      mul\n      or\n      swap1\n      sstore\n      pop\n      0x40\n      dup3\n      add\n      mload\n      dup2\n      0x02\n      add\n      swap1\n      dup2\n      tag_38\n      swap2\n      swap1\n      tag_39\n      jump\t// in\n    tag_38:\n      pop\n      0x60\n      dup3\n      add\n      mload\n      dup2\n      0x03\n      add\n      swap1\n      dup2\n      tag_40\n      swap2\n      swap1\n      tag_39\n      jump\t// in\n    tag_40:\n      pop\n      0x80\n      dup3\n      add\n      mload\n      dup2\n      0x04\n      add\n      sstore\n      0xa0\n      dup3\n      add\n      mload\n      dup2\n      0x05\n      add\n      swap1\n      dup1\n      mload\n      swap1\n      0x20\n      add\n      swap1\n      tag_41\n      swap3\n      swap2\n      swap1\n      tag_42\n      jump\t// in\n    tag_41:\n      pop\n      pop\n      pop\n        /* \"project3.0 final/DataUsage3.0.sol\":809:853  log(\" ----------block number:\",_blockNumber) */\n      0xb60e72ccf6d57ab53eb84d7e94a9545806ed7f93c4d5673f11a64f03471e584e\n        /* \"project3.0 final/DataUsage3.0.sol\":840:852  _blockNumber */\n      dup2\n        /* \"project3.0 final/DataUsage3.0.sol\":809:853  log(\" ----------block number:\",_blockNumber) */\n      mload(0x40)\n      tag_43\n      swap2\n      swap1\n      tag_44\n      jump\t// in\n    tag_43:\n      mload(0x40)\n      dup1\n      swap2\n      sub\n      swap1\n      log1\n        /* \"project3.0 final/DataUsage3.0.sol\":617:861  {... */\n      pop\n        /* \"project3.0 final/DataUsage3.0.sol\":404:861  function addDataPurpose(... */\n      pop\n      pop\n      pop\n      pop\n      pop\n      jump\t// out\n    tag_42:\n      dup3\n      dup1\n      sload\n      dup3\n      dup3\n      sstore\n      swap1\n      0x00\n      mstore\n      keccak256(0x00, 0x20)\n      swap1\n      dup2\n      add\n      swap3\n      dup3\n      iszero\n      tag_45\n      jumpi\n      swap2\n      0x20\n      mul\n      dup3\n      add\n    tag_46:\n      dup3\n      dup2\n      gt\n      iszero\n      tag_47\n      jumpi\n      dup3\n      mload\n      dup3\n      swap1\n      dup2\n      tag_48\n      swap2\n      swap1\n      tag_39\n      jump\t// in\n    tag_48:\n      pop\n      swap2\n      0x20\n      add\n      swap2\n      swap1\n      0x01\n      add\n      swap1\n      jump(tag_46)\n    tag_47:\n    tag_45:\n      pop\n      swap1\n      pop\n      tag_49\n      swap2\n      swap1\n      tag_50\n      jump\t// in\n    tag_49:\n      pop\n      swap1\n      jump\t// out\n    tag_50:\n    tag_51:\n      dup1\n      dup3\n      gt\n      iszero\n      tag_52\n      jumpi\n      0x00\n      dup2\n      dup2\n      tag_53\n      swap2\n      swap1\n      tag_54\n      jump\t// in\n    tag_53:\n      pop\n      0x01\n      add\n      jump(tag_51)\n    tag_52:\n      pop\n      swap1\n      jump\t// out\n    tag_54:\n      pop\n      dup1\n      sload\n      tag_55\n      swap1\n      tag_18\n      jump\t// in\n    tag_55:\n      0x00\n      dup3\n      sstore\n      dup1\n      0x1f\n      lt\n      tag_57\n      jumpi\n      pop\n      jump(tag_56)\n    tag_57:\n      0x1f\n      add\n      0x20\n      swap1\n      div\n      swap1\n      0x00\n      mstore\n      keccak256(0x00, 0x20)\n      swap1\n      dup2\n      add\n      swap1\n      tag_58\n      swap2\n      swap1\n      tag_59\n      jump\t// in\n    tag_58:\n    tag_56:\n      pop\n      jump\t// out\n    tag_59:\n    tag_60:\n      dup1\n      dup3\n      gt\n      iszero\n      tag_61\n      jumpi\n      0x00\n      dup2\n      0x00\n      swap1\n      sstore\n      pop\n      0x01\n      add\n      jump(tag_60)\n    tag_61:\n      pop\n      swap1\n      jump\t// out\n        /* \"#utility.yul\":7:148   */\n    tag_62:\n        /* \"#utility.yul\":101:107   */\n      0x00\n        /* \"#utility.yul\":135:140   */\n      dup2\n        /* \"#utility.yul\":129:141   */\n      mload\n        /* \"#utility.yul\":119:141   */\n      swap1\n      pop\n        /* \"#utility.yul\":7:148   */\n      swap2\n      swap1\n      pop\n      jump\t// out\n        /* \"#utility.yul\":154:365   */\n    tag_63:\n        /* \"#utility.yul\":280:291   */\n      0x00\n        /* \"#utility.yul\":314:320   */\n      dup3\n        /* \"#utility.yul\":309:312   */\n      dup3\n        /* \"#utility.yul\":302:321   */\n      mstore\n        /* \"#utility.yul\":354:358   */\n      0x20\n        /* \"#utility.yul\":349:352   */\n      dup3\n        /* \"#utility.yul\":345:359   */\n      add\n        /* \"#utility.yul\":330:359   */\n      swap1\n      pop\n        /* \"#utility.yul\":154:365   */\n      swap3\n      swap2\n      pop\n      pop\n      jump\t// out\n        /* \"#utility.yul\":371:530   */\n    tag_64:\n        /* \"#utility.yul\":465:469   */\n      0x00\n        /* \"#utility.yul\":488:491   */\n      dup2\n        /* \"#utility.yul\":480:491   */\n      swap1\n      pop\n        /* \"#utility.yul\":518:522   */\n      0x20\n        /* \"#utility.yul\":513:516   */\n      dup3\n        /* \"#utility.yul\":509:523   */\n      add\n        /* \"#utility.yul\":501:523   */\n      swap1\n      pop\n        /* \"#utility.yul\":371:530   */\n      swap2\n      swap1\n      pop\n      jump\t// out\n        /* \"#utility.yul\":536:613   */\n    tag_65:\n        /* \"#utility.yul\":573:580   */\n      0x00\n        /* \"#utility.yul\":602:607   */\n      dup2\n        /* \"#utility.yul\":591:607   */\n      swap1\n      pop\n        /* \"#utility.yul\":536:613   */\n      swap2\n      swap1\n      pop\n      jump\t// out\n        /* \"#utility.yul\":619:727   */\n    tag_66:\n        /* \"#utility.yul\":696:720   */\n      tag_131\n        /* \"#utility.yul\":714:719   */\n      dup2\n        /* \"#utility.yul\":696:720   */\n      tag_65\n      jump\t// in\n    tag_131:\n        /* \"#utility.yul\":691:694   */\n      dup3\n        /* \"#utility.yul\":684:721   */\n      mstore\n        /* \"#utility.yul\":619:727   */\n      pop\n      pop\n      jump\t// out\n        /* \"#utility.yul\":733:859   */\n    tag_67:\n        /* \"#utility.yul\":770:777   */\n      0x00\n        /* \"#utility.yul\":810:852   */\n      0xffffffffffffffffffffffffffffffffffffffff\n        /* \"#utility.yul\":803:808   */\n      dup3\n        /* \"#utility.yul\":799:853   */\n      and\n        /* \"#utility.yul\":788:853   */\n      swap1\n      pop\n        /* \"#utility.yul\":733:859   */\n      swap2\n      swap1\n      pop\n      jump\t// out\n        /* \"#utility.yul\":865:961   */\n    tag_68:\n        /* \"#utility.yul\":902:909   */\n      0x00\n        /* \"#utility.yul\":931:955   */\n      tag_134\n        /* \"#utility.yul\":949:954   */\n      dup3\n        /* \"#utility.yul\":931:955   */\n      tag_67\n      jump\t// in\n    tag_134:\n        /* \"#utility.yul\":920:955   */\n      swap1\n      pop\n        /* \"#utility.yul\":865:961   */\n      swap2\n      swap1\n      pop\n      jump\t// out\n        /* \"#utility.yul\":967:1075   */\n    tag_69:\n        /* \"#utility.yul\":1044:1068   */\n      tag_136\n        /* \"#utility.yul\":1062:1067   */\n      dup2\n        /* \"#utility.yul\":1044:1068   */\n      tag_68\n      jump\t// in\n    tag_136:\n        /* \"#utility.yul\":1039:1042   */\n      dup3\n        /* \"#utility.yul\":1032:1069   */\n      mstore\n        /* \"#utility.yul\":967:1075   */\n      pop\n      pop\n      jump\t// out\n        /* \"#utility.yul\":1081:1180   */\n    tag_70:\n        /* \"#utility.yul\":1133:1139   */\n      0x00\n        /* \"#utility.yul\":1167:1172   */\n      dup2\n        /* \"#utility.yul\":1161:1173   */\n      mload\n        /* \"#utility.yul\":1151:1173   */\n      swap1\n      pop\n        /* \"#utility.yul\":1081:1180   */\n      swap2\n      swap1\n      pop\n      jump\t// out\n        /* \"#utility.yul\":1186:1345   */\n    tag_71:\n        /* \"#utility.yul\":1260:1271   */\n      0x00\n        /* \"#utility.yul\":1294:1300   */\n      dup3\n        /* \"#utility.yul\":1289:1292   */\n      dup3\n        /* \"#utility.yul\":1282:1301   */\n      mstore\n        /* \"#utility.yul\":1334:1338   */\n      0x20\n        /* \"#utility.yul\":1329:1332   */\n      dup3\n        /* \"#utility.yul\":1325:1339   */\n      add\n        /* \"#utility.yul\":1310:1339   */\n      swap1\n      pop\n        /* \"#utility.yul\":1186:1345   */\n      swap3\n      swap2\n      pop\n      pop\n      jump\t// out\n        /* \"#utility.yul\":1351:1597   */\n    tag_72:\n        /* \"#utility.yul\":1432:1433   */\n      0x00\n        /* \"#utility.yul\":1442:1555   */\n    tag_140:\n        /* \"#utility.yul\":1456:1462   */\n      dup4\n        /* \"#utility.yul\":1453:1454   */\n      dup2\n        /* \"#utility.yul\":1450:1463   */\n      lt\n        /* \"#utility.yul\":1442:1555   */\n      iszero\n      tag_142\n      jumpi\n        /* \"#utility.yul\":1541:1542   */\n      dup1\n        /* \"#utility.yul\":1536:1539   */\n      dup3\n        /* \"#utility.yul\":1532:1543   */\n      add\n        /* \"#utility.yul\":1526:1544   */\n      mload\n        /* \"#utility.yul\":1522:1523   */\n      dup2\n        /* \"#utility.yul\":1517:1520   */\n      dup5\n        /* \"#utility.yul\":1513:1524   */\n      add\n        /* \"#utility.yul\":1506:1545   */\n      mstore\n        /* \"#utility.yul\":1478:1480   */\n      0x20\n        /* \"#utility.yul\":1475:1476   */\n      dup2\n        /* \"#utility.yul\":1471:1481   */\n      add\n        /* \"#utility.yul\":1466:1481   */\n      swap1\n      pop\n        /* \"#utility.yul\":1442:1555   */\n      jump(tag_140)\n    tag_142:\n        /* \"#utility.yul\":1589:1590   */\n      0x00\n        /* \"#utility.yul\":1580:1586   */\n      dup5\n        /* \"#utility.yul\":1575:1578   */\n      dup5\n        /* \"#utility.yul\":1571:1587   */\n      add\n        /* \"#utility.yul\":1564:1591   */\n      mstore\n        /* \"#utility.yul\":1413:1597   */\n      pop\n        /* \"#utility.yul\":1351:1597   */\n      pop\n      pop\n      pop\n      jump\t// out\n        /* \"#utility.yul\":1603:1705   */\n    tag_73:\n        /* \"#utility.yul\":1644:1650   */\n      0x00\n        /* \"#utility.yul\":1695:1697   */\n      0x1f\n        /* \"#utility.yul\":1691:1698   */\n      not\n        /* \"#utility.yul\":1686:1688   */\n      0x1f\n        /* \"#utility.yul\":1679:1684   */\n      dup4\n        /* \"#utility.yul\":1675:1689   */\n      add\n        /* \"#utility.yul\":1671:1699   */\n      and\n        /* \"#utility.yul\":1661:1699   */\n      swap1\n      pop\n        /* \"#utility.yul\":1603:1705   */\n      swap2\n      swap1\n      pop\n      jump\t// out\n        /* \"#utility.yul\":1711:2068   */\n    tag_74:\n        /* \"#utility.yul\":1789:1792   */\n      0x00\n        /* \"#utility.yul\":1817:1856   */\n      tag_145\n        /* \"#utility.yul\":1850:1855   */\n      dup3\n        /* \"#utility.yul\":1817:1856   */\n      tag_70\n      jump\t// in\n    tag_145:\n        /* \"#utility.yul\":1872:1933   */\n      tag_146\n        /* \"#utility.yul\":1926:1932   */\n      dup2\n        /* \"#utility.yul\":1921:1924   */\n      dup6\n        /* \"#utility.yul\":1872:1933   */\n      tag_71\n      jump\t// in\n    tag_146:\n        /* \"#utility.yul\":1865:1933   */\n      swap4\n      pop\n        /* \"#utility.yul\":1942:2007   */\n      tag_147\n        /* \"#utility.yul\":2000:2006   */\n      dup2\n        /* \"#utility.yul\":1995:1998   */\n      dup6\n        /* \"#utility.yul\":1988:1992   */\n      0x20\n        /* \"#utility.yul\":1981:1986   */\n      dup7\n        /* \"#utility.yul\":1977:1993   */\n      add\n        /* \"#utility.yul\":1942:2007   */\n      tag_72\n      jump\t// in\n    tag_147:\n        /* \"#utility.yul\":2032:2061   */\n      tag_148\n        /* \"#utility.yul\":2054:2060   */\n      dup2\n        /* \"#utility.yul\":2032:2061   */\n      tag_73\n      jump\t// in\n    tag_148:\n        /* \"#utility.yul\":2027:2030   */\n      dup5\n        /* \"#utility.yul\":2023:2062   */\n      add\n        /* \"#utility.yul\":2016:2062   */\n      swap2\n      pop\n        /* \"#utility.yul\":1793:2068   */\n      pop\n        /* \"#utility.yul\":1711:2068   */\n      swap3\n      swap2\n      pop\n      pop\n      jump\t// out\n        /* \"#utility.yul\":2074:2198   */\n    tag_75:\n        /* \"#utility.yul\":2151:2157   */\n      0x00\n        /* \"#utility.yul\":2185:2190   */\n      dup2\n        /* \"#utility.yul\":2179:2191   */\n      mload\n        /* \"#utility.yul\":2169:2191   */\n      swap1\n      pop\n        /* \"#utility.yul\":2074:2198   */\n      swap2\n      swap1\n      pop\n      jump\t// out\n        /* \"#utility.yul\":2204:2388   */\n    tag_76:\n        /* \"#utility.yul\":2303:2314   */\n      0x00\n        /* \"#utility.yul\":2337:2343   */\n      dup3\n        /* \"#utility.yul\":2332:2335   */\n      dup3\n        /* \"#utility.yul\":2325:2344   */\n      mstore\n        /* \"#utility.yul\":2377:2381   */\n      0x20\n        /* \"#utility.yul\":2372:2375   */\n      dup3\n        /* \"#utility.yul\":2368:2382   */\n      add\n        /* \"#utility.yul\":2353:2382   */\n      swap1\n      pop\n        /* \"#utility.yul\":2204:2388   */\n      swap3\n      swap2\n      pop\n      pop\n      jump\t// out\n        /* \"#utility.yul\":2394:2536   */\n    tag_77:\n        /* \"#utility.yul\":2471:2475   */\n      0x00\n        /* \"#utility.yul\":2494:2497   */\n      dup2\n        /* \"#utility.yul\":2486:2497   */\n      swap1\n      pop\n        /* \"#utility.yul\":2524:2528   */\n      0x20\n        /* \"#utility.yul\":2519:2522   */\n      dup3\n        /* \"#utility.yul\":2515:2529   */\n      add\n        /* \"#utility.yul\":2507:2529   */\n      swap1\n      pop\n        /* \"#utility.yul\":2394:2536   */\n      swap2\n      swap1\n      pop\n      jump\t// out\n        /* \"#utility.yul\":2542:2738   */\n    tag_78:\n        /* \"#utility.yul\":2631:2641   */\n      0x00\n        /* \"#utility.yul\":2666:2732   */\n      tag_153\n        /* \"#utility.yul\":2728:2731   */\n      dup4\n        /* \"#utility.yul\":2720:2726   */\n      dup4\n        /* \"#utility.yul\":2666:2732   */\n      tag_74\n      jump\t// in\n    tag_153:\n        /* \"#utility.yul\":2652:2732   */\n      swap1\n      pop\n        /* \"#utility.yul\":2542:2738   */\n      swap3\n      swap2\n      pop\n      pop\n      jump\t// out\n        /* \"#utility.yul\":2744:2867   */\n    tag_79:\n        /* \"#utility.yul\":2824:2828   */\n      0x00\n        /* \"#utility.yul\":2856:2860   */\n      0x20\n        /* \"#utility.yul\":2851:2854   */\n      dup3\n        /* \"#utility.yul\":2847:2861   */\n      add\n        /* \"#utility.yul\":2839:2861   */\n      swap1\n      pop\n        /* \"#utility.yul\":2744:2867   */\n      swap2\n      swap1\n      pop\n      jump\t// out\n        /* \"#utility.yul\":2901:3872   */\n    tag_80:\n        /* \"#utility.yul\":3030:3033   */\n      0x00\n        /* \"#utility.yul\":3059:3123   */\n      tag_156\n        /* \"#utility.yul\":3117:3122   */\n      dup3\n        /* \"#utility.yul\":3059:3123   */\n      tag_75\n      jump\t// in\n    tag_156:\n        /* \"#utility.yul\":3139:3225   */\n      tag_157\n        /* \"#utility.yul\":3218:3224   */\n      dup2\n        /* \"#utility.yul\":3213:3216   */\n      dup6\n        /* \"#utility.yul\":3139:3225   */\n      tag_76\n      jump\t// in\n    tag_157:\n        /* \"#utility.yul\":3132:3225   */\n      swap4\n      pop\n        /* \"#utility.yul\":3251:3254   */\n      dup4\n        /* \"#utility.yul\":3296:3300   */\n      0x20\n        /* \"#utility.yul\":3288:3294   */\n      dup3\n        /* \"#utility.yul\":3284:3301   */\n      mul\n        /* \"#utility.yul\":3279:3282   */\n      dup6\n        /* \"#utility.yul\":3275:3302   */\n      add\n        /* \"#utility.yul\":3326:3392   */\n      tag_158\n        /* \"#utility.yul\":3386:3391   */\n      dup6\n        /* \"#utility.yul\":3326:3392   */\n      tag_77\n      jump\t// in\n    tag_158:\n        /* \"#utility.yul\":3415:3422   */\n      dup1\n        /* \"#utility.yul\":3446:3447   */\n      0x00\n        /* \"#utility.yul\":3431:3827   */\n    tag_159:\n        /* \"#utility.yul\":3456:3462   */\n      dup6\n        /* \"#utility.yul\":3453:3454   */\n      dup2\n        /* \"#utility.yul\":3450:3463   */\n      lt\n        /* \"#utility.yul\":3431:3827   */\n      iszero\n      tag_161\n      jumpi\n        /* \"#utility.yul\":3527:3536   */\n      dup5\n        /* \"#utility.yul\":3521:3525   */\n      dup5\n        /* \"#utility.yul\":3517:3537   */\n      sub\n        /* \"#utility.yul\":3512:3515   */\n      dup10\n        /* \"#utility.yul\":3505:3538   */\n      mstore\n        /* \"#utility.yul\":3578:3584   */\n      dup2\n        /* \"#utility.yul\":3572:3585   */\n      mload\n        /* \"#utility.yul\":3606:3690   */\n      tag_162\n        /* \"#utility.yul\":3685:3689   */\n      dup6\n        /* \"#utility.yul\":3670:3683   */\n      dup3\n        /* \"#utility.yul\":3606:3690   */\n      tag_78\n      jump\t// in\n    tag_162:\n        /* \"#utility.yul\":3598:3690   */\n      swap5\n      pop\n        /* \"#utility.yul\":3713:3783   */\n      tag_163\n        /* \"#utility.yul\":3776:3782   */\n      dup4\n        /* \"#utility.yul\":3713:3783   */\n      tag_79\n      jump\t// in\n    tag_163:\n        /* \"#utility.yul\":3703:3783   */\n      swap3\n      pop\n        /* \"#utility.yul\":3812:3816   */\n      0x20\n        /* \"#utility.yul\":3807:3810   */\n      dup11\n        /* \"#utility.yul\":3803:3817   */\n      add\n        /* \"#utility.yul\":3796:3817   */\n      swap10\n      pop\n        /* \"#utility.yul\":3491:3827   */\n      pop\n        /* \"#utility.yul\":3478:3479   */\n      0x01\n        /* \"#utility.yul\":3475:3476   */\n      dup2\n        /* \"#utility.yul\":3471:3480   */\n      add\n        /* \"#utility.yul\":3466:3480   */\n      swap1\n      pop\n        /* \"#utility.yul\":3431:3827   */\n      jump(tag_159)\n    tag_161:\n        /* \"#utility.yul\":3435:3449   */\n      pop\n        /* \"#utility.yul\":3843:3847   */\n      dup3\n        /* \"#utility.yul\":3836:3847   */\n      swap8\n      pop\n        /* \"#utility.yul\":3863:3866   */\n      dup8\n        /* \"#utility.yul\":3856:3866   */\n      swap6\n      pop\n        /* \"#utility.yul\":3035:3872   */\n      pop\n      pop\n      pop\n      pop\n      pop\n        /* \"#utility.yul\":2901:3872   */\n      swap3\n      swap2\n      pop\n      pop\n      jump\t// out\n        /* \"#utility.yul\":3946:5474   */\n    tag_81:\n        /* \"#utility.yul\":4059:4062   */\n      0x00\n        /* \"#utility.yul\":4095:4099   */\n      0xc0\n        /* \"#utility.yul\":4090:4093   */\n      dup4\n        /* \"#utility.yul\":4086:4100   */\n      add\n        /* \"#utility.yul\":4189:4193   */\n      0x00\n        /* \"#utility.yul\":4182:4187   */\n      dup4\n        /* \"#utility.yul\":4178:4194   */\n      add\n        /* \"#utility.yul\":4172:4195   */\n      mload\n        /* \"#utility.yul\":4208:4271   */\n      tag_165\n        /* \"#utility.yul\":4265:4269   */\n      0x00\n        /* \"#utility.yul\":4260:4263   */\n      dup7\n        /* \"#utility.yul\":4256:4270   */\n      add\n        /* \"#utility.yul\":4242:4254   */\n      dup3\n        /* \"#utility.yul\":4208:4271   */\n      tag_66\n      jump\t// in\n    tag_165:\n        /* \"#utility.yul\":4110:4281   */\n      pop\n        /* \"#utility.yul\":4366:4370   */\n      0x20\n        /* \"#utility.yul\":4359:4364   */\n      dup4\n        /* \"#utility.yul\":4355:4371   */\n      add\n        /* \"#utility.yul\":4349:4372   */\n      mload\n        /* \"#utility.yul\":4385:4448   */\n      tag_166\n        /* \"#utility.yul\":4442:4446   */\n      0x20\n        /* \"#utility.yul\":4437:4440   */\n      dup7\n        /* \"#utility.yul\":4433:4447   */\n      add\n        /* \"#utility.yul\":4419:4431   */\n      dup3\n        /* \"#utility.yul\":4385:4448   */\n      tag_69\n      jump\t// in\n    tag_166:\n        /* \"#utility.yul\":4291:4458   */\n      pop\n        /* \"#utility.yul\":4547:4551   */\n      0x40\n        /* \"#utility.yul\":4540:4545   */\n      dup4\n        /* \"#utility.yul\":4536:4552   */\n      add\n        /* \"#utility.yul\":4530:4553   */\n      mload\n        /* \"#utility.yul\":4600:4603   */\n      dup5\n        /* \"#utility.yul\":4594:4598   */\n      dup3\n        /* \"#utility.yul\":4590:4604   */\n      sub\n        /* \"#utility.yul\":4583:4587   */\n      0x40\n        /* \"#utility.yul\":4578:4581   */\n      dup7\n        /* \"#utility.yul\":4574:4588   */\n      add\n        /* \"#utility.yul\":4567:4605   */\n      mstore\n        /* \"#utility.yul\":4626:4699   */\n      tag_167\n        /* \"#utility.yul\":4694:4698   */\n      dup3\n        /* \"#utility.yul\":4680:4692   */\n      dup3\n        /* \"#utility.yul\":4626:4699   */\n      tag_74\n      jump\t// in\n    tag_167:\n        /* \"#utility.yul\":4618:4699   */\n      swap2\n      pop\n        /* \"#utility.yul\":4468:4710   */\n      pop\n        /* \"#utility.yul\":4802:4806   */\n      0x60\n        /* \"#utility.yul\":4795:4800   */\n      dup4\n        /* \"#utility.yul\":4791:4807   */\n      add\n        /* \"#utility.yul\":4785:4808   */\n      mload\n        /* \"#utility.yul\":4855:4858   */\n      dup5\n        /* \"#utility.yul\":4849:4853   */\n      dup3\n        /* \"#utility.yul\":4845:4859   */\n      sub\n        /* \"#utility.yul\":4838:4842   */\n      0x60\n        /* \"#utility.yul\":4833:4836   */\n      dup7\n        /* \"#utility.yul\":4829:4843   */\n      add\n        /* \"#utility.yul\":4822:4860   */\n      mstore\n        /* \"#utility.yul\":4881:4954   */\n      tag_168\n        /* \"#utility.yul\":4949:4953   */\n      dup3\n        /* \"#utility.yul\":4935:4947   */\n      dup3\n        /* \"#utility.yul\":4881:4954   */\n      tag_74\n      jump\t// in\n    tag_168:\n        /* \"#utility.yul\":4873:4954   */\n      swap2\n      pop\n        /* \"#utility.yul\":4720:4965   */\n      pop\n        /* \"#utility.yul\":5052:5056   */\n      0x80\n        /* \"#utility.yul\":5045:5050   */\n      dup4\n        /* \"#utility.yul\":5041:5057   */\n      add\n        /* \"#utility.yul\":5035:5058   */\n      mload\n        /* \"#utility.yul\":5071:5134   */\n      tag_169\n        /* \"#utility.yul\":5128:5132   */\n      0x80\n        /* \"#utility.yul\":5123:5126   */\n      dup7\n        /* \"#utility.yul\":5119:5133   */\n      add\n        /* \"#utility.yul\":5105:5117   */\n      dup3\n        /* \"#utility.yul\":5071:5134   */\n      tag_66\n      jump\t// in\n    tag_169:\n        /* \"#utility.yul\":4975:5144   */\n      pop\n        /* \"#utility.yul\":5234:5238   */\n      0xa0\n        /* \"#utility.yul\":5227:5232   */\n      dup4\n        /* \"#utility.yul\":5223:5239   */\n      add\n        /* \"#utility.yul\":5217:5240   */\n      mload\n        /* \"#utility.yul\":5287:5290   */\n      dup5\n        /* \"#utility.yul\":5281:5285   */\n      dup3\n        /* \"#utility.yul\":5277:5291   */\n      sub\n        /* \"#utility.yul\":5270:5274   */\n      0xa0\n        /* \"#utility.yul\":5265:5268   */\n      dup7\n        /* \"#utility.yul\":5261:5275   */\n      add\n        /* \"#utility.yul\":5254:5292   */\n      mstore\n        /* \"#utility.yul\":5313:5436   */\n      tag_170\n        /* \"#utility.yul\":5431:5435   */\n      dup3\n        /* \"#utility.yul\":5417:5429   */\n      dup3\n        /* \"#utility.yul\":5313:5436   */\n      tag_80\n      jump\t// in\n    tag_170:\n        /* \"#utility.yul\":5305:5436   */\n      swap2\n      pop\n        /* \"#utility.yul\":5154:5447   */\n      pop\n        /* \"#utility.yul\":5464:5468   */\n      dup1\n        /* \"#utility.yul\":5457:5468   */\n      swap2\n      pop\n        /* \"#utility.yul\":4064:5474   */\n      pop\n        /* \"#utility.yul\":3946:5474   */\n      swap3\n      swap2\n      pop\n      pop\n      jump\t// out\n        /* \"#utility.yul\":5480:5744   */\n    tag_82:\n        /* \"#utility.yul\":5603:5613   */\n      0x00\n        /* \"#utility.yul\":5638:5738   */\n      tag_172\n        /* \"#utility.yul\":5734:5737   */\n      dup4\n        /* \"#utility.yul\":5726:5732   */\n      dup4\n        /* \"#utility.yul\":5638:5738   */\n      tag_81\n      jump\t// in\n    tag_172:\n        /* \"#utility.yul\":5624:5738   */\n      swap1\n      pop\n        /* \"#utility.yul\":5480:5744   */\n      swap3\n      swap2\n      pop\n      pop\n      jump\t// out\n        /* \"#utility.yul\":5750:5890   */\n    tag_83:\n        /* \"#utility.yul\":5847:5851   */\n      0x00\n        /* \"#utility.yul\":5879:5883   */\n      0x20\n        /* \"#utility.yul\":5874:5877   */\n      dup3\n        /* \"#utility.yul\":5870:5884   */\n      add\n        /* \"#utility.yul\":5862:5884   */\n      swap1\n      pop\n        /* \"#utility.yul\":5750:5890   */\n      swap2\n      swap1\n      pop\n      jump\t// out\n        /* \"#utility.yul\":5968:7095   */\n    tag_84:\n        /* \"#utility.yul\":6141:6144   */\n      0x00\n        /* \"#utility.yul\":6170:6251   */\n      tag_175\n        /* \"#utility.yul\":6245:6250   */\n      dup3\n        /* \"#utility.yul\":6170:6251   */\n      tag_62\n      jump\t// in\n    tag_175:\n        /* \"#utility.yul\":6267:6380   */\n      tag_176\n        /* \"#utility.yul\":6373:6379   */\n      dup2\n        /* \"#utility.yul\":6368:6371   */\n      dup6\n        /* \"#utility.yul\":6267:6380   */\n      tag_63\n      jump\t// in\n    tag_176:\n        /* \"#utility.yul\":6260:6380   */\n      swap4\n      pop\n        /* \"#utility.yul\":6406:6409   */\n      dup4\n        /* \"#utility.yul\":6451:6455   */\n      0x20\n        /* \"#utility.yul\":6443:6449   */\n      dup3\n        /* \"#utility.yul\":6439:6456   */\n      mul\n        /* \"#utility.yul\":6434:6437   */\n      dup6\n        /* \"#utility.yul\":6430:6457   */\n      add\n        /* \"#utility.yul\":6481:6564   */\n      tag_177\n        /* \"#utility.yul\":6558:6563   */\n      dup6\n        /* \"#utility.yul\":6481:6564   */\n      tag_64\n      jump\t// in\n    tag_177:\n        /* \"#utility.yul\":6587:6594   */\n      dup1\n        /* \"#utility.yul\":6618:6619   */\n      0x00\n        /* \"#utility.yul\":6603:7050   */\n    tag_178:\n        /* \"#utility.yul\":6628:6634   */\n      dup6\n        /* \"#utility.yul\":6625:6626   */\n      dup2\n        /* \"#utility.yul\":6622:6635   */\n      lt\n        /* \"#utility.yul\":6603:7050   */\n      iszero\n      tag_180\n      jumpi\n        /* \"#utility.yul\":6699:6708   */\n      dup5\n        /* \"#utility.yul\":6693:6697   */\n      dup5\n        /* \"#utility.yul\":6689:6709   */\n      sub\n        /* \"#utility.yul\":6684:6687   */\n      dup10\n        /* \"#utility.yul\":6677:6710   */\n      mstore\n        /* \"#utility.yul\":6750:6756   */\n      dup2\n        /* \"#utility.yul\":6744:6757   */\n      mload\n        /* \"#utility.yul\":6778:6896   */\n      tag_181\n        /* \"#utility.yul\":6891:6895   */\n      dup6\n        /* \"#utility.yul\":6876:6889   */\n      dup3\n        /* \"#utility.yul\":6778:6896   */\n      tag_82\n      jump\t// in\n    tag_181:\n        /* \"#utility.yul\":6770:6896   */\n      swap5\n      pop\n        /* \"#utility.yul\":6919:7006   */\n      tag_182\n        /* \"#utility.yul\":6999:7005   */\n      dup4\n        /* \"#utility.yul\":6919:7006   */\n      tag_83\n      jump\t// in\n    tag_182:\n        /* \"#utility.yul\":6909:7006   */\n      swap3\n      pop\n        /* \"#utility.yul\":7035:7039   */\n      0x20\n        /* \"#utility.yul\":7030:7033   */\n      dup11\n        /* \"#utility.yul\":7026:7040   */\n      add\n        /* \"#utility.yul\":7019:7040   */\n      swap10\n      pop\n        /* \"#utility.yul\":6663:7050   */\n      pop\n        /* \"#utility.yul\":6650:6651   */\n      0x01\n        /* \"#utility.yul\":6647:6648   */\n      dup2\n        /* \"#utility.yul\":6643:6652   */\n      add\n        /* \"#utility.yul\":6638:6652   */\n      swap1\n      pop\n        /* \"#utility.yul\":6603:7050   */\n      jump(tag_178)\n    tag_180:\n        /* \"#utility.yul\":6607:6621   */\n      pop\n        /* \"#utility.yul\":7066:7070   */\n      dup3\n        /* \"#utility.yul\":7059:7070   */\n      swap8\n      pop\n        /* \"#utility.yul\":7086:7089   */\n      dup8\n        /* \"#utility.yul\":7079:7089   */\n      swap6\n      pop\n        /* \"#utility.yul\":6146:7095   */\n      pop\n      pop\n      pop\n      pop\n      pop\n        /* \"#utility.yul\":5968:7095   */\n      swap3\n      swap2\n      pop\n      pop\n      jump\t// out\n        /* \"#utility.yul\":7101:7582   */\n    tag_8:\n        /* \"#utility.yul\":7298:7302   */\n      0x00\n        /* \"#utility.yul\":7336:7338   */\n      0x20\n        /* \"#utility.yul\":7325:7334   */\n      dup3\n        /* \"#utility.yul\":7321:7339   */\n      add\n        /* \"#utility.yul\":7313:7339   */\n      swap1\n      pop\n        /* \"#utility.yul\":7385:7394   */\n      dup2\n        /* \"#utility.yul\":7379:7383   */\n      dup2\n        /* \"#utility.yul\":7375:7395   */\n      sub\n        /* \"#utility.yul\":7371:7372   */\n      0x00\n        /* \"#utility.yul\":7360:7369   */\n      dup4\n        /* \"#utility.yul\":7356:7373   */\n      add\n        /* \"#utility.yul\":7349:7396   */\n      mstore\n        /* \"#utility.yul\":7413:7575   */\n      tag_184\n        /* \"#utility.yul\":7570:7574   */\n      dup2\n        /* \"#utility.yul\":7561:7567   */\n      dup5\n        /* \"#utility.yul\":7413:7575   */\n      tag_84\n      jump\t// in\n    tag_184:\n        /* \"#utility.yul\":7405:7575   */\n      swap1\n      pop\n        /* \"#utility.yul\":7101:7582   */\n      swap3\n      swap2\n      pop\n      pop\n      jump\t// out\n        /* \"#utility.yul\":7588:7663   */\n    tag_85:\n        /* \"#utility.yul\":7621:7627   */\n      0x00\n        /* \"#utility.yul\":7654:7656   */\n      0x40\n        /* \"#utility.yul\":7648:7657   */\n      mload\n        /* \"#utility.yul\":7638:7657   */\n      swap1\n      pop\n        /* \"#utility.yul\":7588:7663   */\n      swap1\n      jump\t// out\n        /* \"#utility.yul\":7669:7786   */\n    tag_86:\n        /* \"#utility.yul\":7778:7779   */\n      0x00\n        /* \"#utility.yul\":7775:7776   */\n      dup1\n        /* \"#utility.yul\":7768:7780   */\n      revert\n        /* \"#utility.yul\":7792:7909   */\n    tag_87:\n        /* \"#utility.yul\":7901:7902   */\n      0x00\n        /* \"#utility.yul\":7898:7899   */\n      dup1\n        /* \"#utility.yul\":7891:7903   */\n      revert\n        /* \"#utility.yul\":7915:8037   */\n    tag_88:\n        /* \"#utility.yul\":7988:8012   */\n      tag_189\n        /* \"#utility.yul\":8006:8011   */\n      dup2\n        /* \"#utility.yul\":7988:8012   */\n      tag_68\n      jump\t// in\n    tag_189:\n        /* \"#utility.yul\":7981:7986   */\n      dup2\n        /* \"#utility.yul\":7978:8013   */\n      eq\n        /* \"#utility.yul\":7968:8031   */\n      tag_190\n      jumpi\n        /* \"#utility.yul\":8027:8028   */\n      0x00\n        /* \"#utility.yul\":8024:8025   */\n      dup1\n        /* \"#utility.yul\":8017:8029   */\n      revert\n        /* \"#utility.yul\":7968:8031   */\n    tag_190:\n        /* \"#utility.yul\":7915:8037   */\n      pop\n      jump\t// out\n        /* \"#utility.yul\":8043:8182   */\n    tag_89:\n        /* \"#utility.yul\":8089:8094   */\n      0x00\n        /* \"#utility.yul\":8127:8133   */\n      dup2\n        /* \"#utility.yul\":8114:8134   */\n      calldataload\n        /* \"#utility.yul\":8105:8134   */\n      swap1\n      pop\n        /* \"#utility.yul\":8143:8176   */\n      tag_192\n        /* \"#utility.yul\":8170:8175   */\n      dup2\n        /* \"#utility.yul\":8143:8176   */\n      tag_88\n      jump\t// in\n    tag_192:\n        /* \"#utility.yul\":8043:8182   */\n      swap3\n      swap2\n      pop\n      pop\n      jump\t// out\n        /* \"#utility.yul\":8188:8305   */\n    tag_90:\n        /* \"#utility.yul\":8297:8298   */\n      0x00\n        /* \"#utility.yul\":8294:8295   */\n      dup1\n        /* \"#utility.yul\":8287:8299   */\n      revert\n        /* \"#utility.yul\":8311:8428   */\n    tag_91:\n        /* \"#utility.yul\":8420:8421   */\n      0x00\n        /* \"#utility.yul\":8417:8418   */\n      dup1\n        /* \"#utility.yul\":8410:8422   */\n      revert\n        /* \"#utility.yul\":8434:8614   */\n    tag_92:\n        /* \"#utility.yul\":8482:8559   */\n      0x4e487b7100000000000000000000000000000000000000000000000000000000\n        /* \"#utility.yul\":8479:8480   */\n      0x00\n        /* \"#utility.yul\":8472:8560   */\n      mstore\n        /* \"#utility.yul\":8579:8583   */\n      0x41\n        /* \"#utility.yul\":8576:8577   */\n      0x04\n        /* \"#utility.yul\":8569:8584   */\n      mstore\n        /* \"#utility.yul\":8603:8607   */\n      0x24\n        /* \"#utility.yul\":8600:8601   */\n      0x00\n        /* \"#utility.yul\":8593:8608   */\n      revert\n        /* \"#utility.yul\":8620:8901   */\n    tag_93:\n        /* \"#utility.yul\":8703:8730   */\n      tag_197\n        /* \"#utility.yul\":8725:8729   */\n      dup3\n        /* \"#utility.yul\":8703:8730   */\n      tag_73\n      jump\t// in\n    tag_197:\n        /* \"#utility.yul\":8695:8701   */\n      dup2\n        /* \"#utility.yul\":8691:8731   */\n      add\n        /* \"#utility.yul\":8833:8839   */\n      dup2\n        /* \"#utility.yul\":8821:8831   */\n      dup2\n        /* \"#utility.yul\":8818:8840   */\n      lt\n        /* \"#utility.yul\":8797:8815   */\n      0xffffffffffffffff\n        /* \"#utility.yul\":8785:8795   */\n      dup3\n        /* \"#utility.yul\":8782:8816   */\n      gt\n        /* \"#utility.yul\":8779:8841   */\n      or\n        /* \"#utility.yul\":8776:8864   */\n      iszero\n      tag_198\n      jumpi\n        /* \"#utility.yul\":8844:8862   */\n      tag_199\n      tag_92\n      jump\t// in\n    tag_199:\n        /* \"#utility.yul\":8776:8864   */\n    tag_198:\n        /* \"#utility.yul\":8884:8894   */\n      dup1\n        /* \"#utility.yul\":8880:8882   */\n      0x40\n        /* \"#utility.yul\":8873:8895   */\n      mstore\n        /* \"#utility.yul\":8663:8901   */\n      pop\n        /* \"#utility.yul\":8620:8901   */\n      pop\n      pop\n      jump\t// out\n        /* \"#utility.yul\":8907:9036   */\n    tag_94:\n        /* \"#utility.yul\":8941:8947   */\n      0x00\n        /* \"#utility.yul\":8968:8988   */\n      tag_201\n      tag_85\n      jump\t// in\n    tag_201:\n        /* \"#utility.yul\":8958:8988   */\n      swap1\n      pop\n        /* \"#utility.yul\":8997:9030   */\n      tag_202\n        /* \"#utility.yul\":9025:9029   */\n      dup3\n        /* \"#utility.yul\":9017:9023   */\n      dup3\n        /* \"#utility.yul\":8997:9030   */\n      tag_93\n      jump\t// in\n    tag_202:\n        /* \"#utility.yul\":8907:9036   */\n      swap2\n      swap1\n      pop\n      jump\t// out\n        /* \"#utility.yul\":9042:9350   */\n    tag_95:\n        /* \"#utility.yul\":9104:9108   */\n      0x00\n        /* \"#utility.yul\":9194:9212   */\n      0xffffffffffffffff\n        /* \"#utility.yul\":9186:9192   */\n      dup3\n        /* \"#utility.yul\":9183:9213   */\n      gt\n        /* \"#utility.yul\":9180:9236   */\n      iszero\n      tag_204\n      jumpi\n        /* \"#utility.yul\":9216:9234   */\n      tag_205\n      tag_92\n      jump\t// in\n    tag_205:\n        /* \"#utility.yul\":9180:9236   */\n    tag_204:\n        /* \"#utility.yul\":9254:9283   */\n      tag_206\n        /* \"#utility.yul\":9276:9282   */\n      dup3\n        /* \"#utility.yul\":9254:9283   */\n      tag_73\n      jump\t// in\n    tag_206:\n        /* \"#utility.yul\":9246:9283   */\n      swap1\n      pop\n        /* \"#utility.yul\":9338:9342   */\n      0x20\n        /* \"#utility.yul\":9332:9336   */\n      dup2\n        /* \"#utility.yul\":9328:9343   */\n      add\n        /* \"#utility.yul\":9320:9343   */\n      swap1\n      pop\n        /* \"#utility.yul\":9042:9350   */\n      swap2\n      swap1\n      pop\n      jump\t// out\n        /* \"#utility.yul\":9356:9502   */\n    tag_96:\n        /* \"#utility.yul\":9453:9459   */\n      dup3\n        /* \"#utility.yul\":9448:9451   */\n      dup2\n        /* \"#utility.yul\":9443:9446   */\n      dup4\n        /* \"#utility.yul\":9430:9460   */\n      calldatacopy\n        /* \"#utility.yul\":9494:9495   */\n      0x00\n        /* \"#utility.yul\":9485:9491   */\n      dup4\n        /* \"#utility.yul\":9480:9483   */\n      dup4\n        /* \"#utility.yul\":9476:9492   */\n      add\n        /* \"#utility.yul\":9469:9496   */\n      mstore\n        /* \"#utility.yul\":9356:9502   */\n      pop\n      pop\n      pop\n      jump\t// out\n        /* \"#utility.yul\":9508:9933   */\n    tag_97:\n        /* \"#utility.yul\":9586:9591   */\n      0x00\n        /* \"#utility.yul\":9611:9677   */\n      tag_209\n        /* \"#utility.yul\":9627:9676   */\n      tag_210\n        /* \"#utility.yul\":9669:9675   */\n      dup5\n        /* \"#utility.yul\":9627:9676   */\n      tag_95\n      jump\t// in\n    tag_210:\n        /* \"#utility.yul\":9611:9677   */\n      tag_94\n      jump\t// in\n    tag_209:\n        /* \"#utility.yul\":9602:9677   */\n      swap1\n      pop\n        /* \"#utility.yul\":9700:9706   */\n      dup3\n        /* \"#utility.yul\":9693:9698   */\n      dup2\n        /* \"#utility.yul\":9686:9707   */\n      mstore\n        /* \"#utility.yul\":9738:9742   */\n      0x20\n        /* \"#utility.yul\":9731:9736   */\n      dup2\n        /* \"#utility.yul\":9727:9743   */\n      add\n        /* \"#utility.yul\":9776:9779   */\n      dup5\n        /* \"#utility.yul\":9767:9773   */\n      dup5\n        /* \"#utility.yul\":9762:9765   */\n      dup5\n        /* \"#utility.yul\":9758:9774   */\n      add\n        /* \"#utility.yul\":9755:9780   */\n      gt\n        /* \"#utility.yul\":9752:9864   */\n      iszero\n      tag_211\n      jumpi\n        /* \"#utility.yul\":9783:9862   */\n      tag_212\n      tag_91\n      jump\t// in\n    tag_212:\n        /* \"#utility.yul\":9752:9864   */\n    tag_211:\n        /* \"#utility.yul\":9873:9927   */\n      tag_213\n        /* \"#utility.yul\":9920:9926   */\n      dup5\n        /* \"#utility.yul\":9915:9918   */\n      dup3\n        /* \"#utility.yul\":9910:9913   */\n      dup6\n        /* \"#utility.yul\":9873:9927   */\n      tag_96\n      jump\t// in\n    tag_213:\n        /* \"#utility.yul\":9592:9933   */\n      pop\n        /* \"#utility.yul\":9508:9933   */\n      swap4\n      swap3\n      pop\n      pop\n      pop\n      jump\t// out\n        /* \"#utility.yul\":9953:10293   */\n    tag_98:\n        /* \"#utility.yul\":10009:10014   */\n      0x00\n        /* \"#utility.yul\":10058:10061   */\n      dup3\n        /* \"#utility.yul\":10051:10055   */\n      0x1f\n        /* \"#utility.yul\":10043:10049   */\n      dup4\n        /* \"#utility.yul\":10039:10056   */\n      add\n        /* \"#utility.yul\":10035:10062   */\n      slt\n        /* \"#utility.yul\":10025:10147   */\n      tag_215\n      jumpi\n        /* \"#utility.yul\":10066:10145   */\n      tag_216\n      tag_90\n      jump\t// in\n    tag_216:\n        /* \"#utility.yul\":10025:10147   */\n    tag_215:\n        /* \"#utility.yul\":10183:10189   */\n      dup2\n        /* \"#utility.yul\":10170:10190   */\n      calldataload\n        /* \"#utility.yul\":10208:10287   */\n      tag_217\n        /* \"#utility.yul\":10283:10286   */\n      dup5\n        /* \"#utility.yul\":10275:10281   */\n      dup3\n        /* \"#utility.yul\":10268:10272   */\n      0x20\n        /* \"#utility.yul\":10260:10266   */\n      dup7\n        /* \"#utility.yul\":10256:10273   */\n      add\n        /* \"#utility.yul\":10208:10287   */\n      tag_97\n      jump\t// in\n    tag_217:\n        /* \"#utility.yul\":10199:10287   */\n      swap2\n      pop\n        /* \"#utility.yul\":10015:10293   */\n      pop\n        /* \"#utility.yul\":9953:10293   */\n      swap3\n      swap2\n      pop\n      pop\n      jump\t// out\n        /* \"#utility.yul\":10299:10421   */\n    tag_99:\n        /* \"#utility.yul\":10372:10396   */\n      tag_219\n        /* \"#utility.yul\":10390:10395   */\n      dup2\n        /* \"#utility.yul\":10372:10396   */\n      tag_65\n      jump\t// in\n    tag_219:\n        /* \"#utility.yul\":10365:10370   */\n      dup2\n        /* \"#utility.yul\":10362:10397   */\n      eq\n        /* \"#utility.yul\":10352:10415   */\n      tag_220\n      jumpi\n        /* \"#utility.yul\":10411:10412   */\n      0x00\n        /* \"#utility.yul\":10408:10409   */\n      dup1\n        /* \"#utility.yul\":10401:10413   */\n      revert\n        /* \"#utility.yul\":10352:10415   */\n    tag_220:\n        /* \"#utility.yul\":10299:10421   */\n      pop\n      jump\t// out\n        /* \"#utility.yul\":10427:10566   */\n    tag_100:\n        /* \"#utility.yul\":10473:10478   */\n      0x00\n        /* \"#utility.yul\":10511:10517   */\n      dup2\n        /* \"#utility.yul\":10498:10518   */\n      calldataload\n        /* \"#utility.yul\":10489:10518   */\n      swap1\n      pop\n        /* \"#utility.yul\":10527:10560   */\n      tag_222\n        /* \"#utility.yul\":10554:10559   */\n      dup2\n        /* \"#utility.yul\":10527:10560   */\n      tag_99\n      jump\t// in\n    tag_222:\n        /* \"#utility.yul\":10427:10566   */\n      swap3\n      swap2\n      pop\n      pop\n      jump\t// out\n        /* \"#utility.yul\":10572:10893   */\n    tag_101:\n        /* \"#utility.yul\":10659:10663   */\n      0x00\n        /* \"#utility.yul\":10749:10767   */\n      0xffffffffffffffff\n        /* \"#utility.yul\":10741:10747   */\n      dup3\n        /* \"#utility.yul\":10738:10768   */\n      gt\n        /* \"#utility.yul\":10735:10791   */\n      iszero\n      tag_224\n      jumpi\n        /* \"#utility.yul\":10771:10789   */\n      tag_225\n      tag_92\n      jump\t// in\n    tag_225:\n        /* \"#utility.yul\":10735:10791   */\n    tag_224:\n        /* \"#utility.yul\":10821:10825   */\n      0x20\n        /* \"#utility.yul\":10813:10819   */\n      dup3\n        /* \"#utility.yul\":10809:10826   */\n      mul\n        /* \"#utility.yul\":10801:10826   */\n      swap1\n      pop\n        /* \"#utility.yul\":10881:10885   */\n      0x20\n        /* \"#utility.yul\":10875:10879   */\n      dup2\n        /* \"#utility.yul\":10871:10886   */\n      add\n        /* \"#utility.yul\":10863:10886   */\n      swap1\n      pop\n        /* \"#utility.yul\":10572:10893   */\n      swap2\n      swap1\n      pop\n      jump\t// out\n        /* \"#utility.yul\":10899:11016   */\n    tag_102:\n        /* \"#utility.yul\":11008:11009   */\n      0x00\n        /* \"#utility.yul\":11005:11006   */\n      dup1\n        /* \"#utility.yul\":10998:11010   */\n      revert\n        /* \"#utility.yul\":11038:11983   */\n    tag_103:\n        /* \"#utility.yul\":11144:11149   */\n      0x00\n        /* \"#utility.yul\":11169:11260   */\n      tag_228\n        /* \"#utility.yul\":11185:11259   */\n      tag_229\n        /* \"#utility.yul\":11252:11258   */\n      dup5\n        /* \"#utility.yul\":11185:11259   */\n      tag_101\n      jump\t// in\n    tag_229:\n        /* \"#utility.yul\":11169:11260   */\n      tag_94\n      jump\t// in\n    tag_228:\n        /* \"#utility.yul\":11160:11260   */\n      swap1\n      pop\n        /* \"#utility.yul\":11280:11285   */\n      dup1\n        /* \"#utility.yul\":11309:11315   */\n      dup4\n        /* \"#utility.yul\":11302:11307   */\n      dup3\n        /* \"#utility.yul\":11295:11316   */\n      mstore\n        /* \"#utility.yul\":11343:11347   */\n      0x20\n        /* \"#utility.yul\":11336:11341   */\n      dup3\n        /* \"#utility.yul\":11332:11348   */\n      add\n        /* \"#utility.yul\":11325:11348   */\n      swap1\n      pop\n        /* \"#utility.yul\":11396:11400   */\n      0x20\n        /* \"#utility.yul\":11388:11394   */\n      dup5\n        /* \"#utility.yul\":11384:11401   */\n      mul\n        /* \"#utility.yul\":11376:11382   */\n      dup4\n        /* \"#utility.yul\":11372:11402   */\n      add\n        /* \"#utility.yul\":11425:11428   */\n      dup6\n        /* \"#utility.yul\":11417:11423   */\n      dup2\n        /* \"#utility.yul\":11414:11429   */\n      gt\n        /* \"#utility.yul\":11411:11533   */\n      iszero\n      tag_230\n      jumpi\n        /* \"#utility.yul\":11444:11523   */\n      tag_231\n      tag_102\n      jump\t// in\n    tag_231:\n        /* \"#utility.yul\":11411:11533   */\n    tag_230:\n        /* \"#utility.yul\":11559:11565   */\n      dup4\n        /* \"#utility.yul\":11542:11977   */\n    tag_232:\n        /* \"#utility.yul\":11576:11582   */\n      dup2\n        /* \"#utility.yul\":11571:11574   */\n      dup2\n        /* \"#utility.yul\":11568:11583   */\n      lt\n        /* \"#utility.yul\":11542:11977   */\n      iszero\n      tag_234\n      jumpi\n        /* \"#utility.yul\":11665:11668   */\n      dup1\n        /* \"#utility.yul\":11652:11669   */\n      calldataload\n        /* \"#utility.yul\":11701:11719   */\n      0xffffffffffffffff\n        /* \"#utility.yul\":11688:11699   */\n      dup2\n        /* \"#utility.yul\":11685:11720   */\n      gt\n        /* \"#utility.yul\":11682:11804   */\n      iszero\n      tag_235\n      jumpi\n        /* \"#utility.yul\":11723:11802   */\n      tag_236\n      tag_90\n      jump\t// in\n    tag_236:\n        /* \"#utility.yul\":11682:11804   */\n    tag_235:\n        /* \"#utility.yul\":11847:11858   */\n      dup1\n        /* \"#utility.yul\":11839:11845   */\n      dup7\n        /* \"#utility.yul\":11835:11859   */\n      add\n        /* \"#utility.yul\":11885:11932   */\n      tag_237\n        /* \"#utility.yul\":11928:11931   */\n      dup10\n        /* \"#utility.yul\":11916:11926   */\n      dup3\n        /* \"#utility.yul\":11885:11932   */\n      tag_98\n      jump\t// in\n    tag_237:\n        /* \"#utility.yul\":11880:11883   */\n      dup6\n        /* \"#utility.yul\":11873:11933   */\n      mstore\n        /* \"#utility.yul\":11962:11966   */\n      0x20\n        /* \"#utility.yul\":11957:11960   */\n      dup6\n        /* \"#utility.yul\":11953:11967   */\n      add\n        /* \"#utility.yul\":11946:11967   */\n      swap5\n      pop\n        /* \"#utility.yul\":11618:11977   */\n      pop\n      pop\n        /* \"#utility.yul\":11602:11606   */\n      0x20\n        /* \"#utility.yul\":11597:11600   */\n      dup2\n        /* \"#utility.yul\":11593:11607   */\n      add\n        /* \"#utility.yul\":11586:11607   */\n      swap1\n      pop\n        /* \"#utility.yul\":11542:11977   */\n      jump(tag_232)\n    tag_234:\n        /* \"#utility.yul\":11546:11567   */\n      pop\n        /* \"#utility.yul\":11150:11983   */\n      pop\n      pop\n        /* \"#utility.yul\":11038:11983   */\n      swap4\n      swap3\n      pop\n      pop\n      pop\n      jump\t// out\n        /* \"#utility.yul\":12005:12395   */\n    tag_104:\n        /* \"#utility.yul\":12086:12091   */\n      0x00\n        /* \"#utility.yul\":12135:12138   */\n      dup3\n        /* \"#utility.yul\":12128:12132   */\n      0x1f\n        /* \"#utility.yul\":12120:12126   */\n      dup4\n        /* \"#utility.yul\":12116:12133   */\n      add\n        /* \"#utility.yul\":12112:12139   */\n      slt\n        /* \"#utility.yul\":12102:12224   */\n      tag_239\n      jumpi\n        /* \"#utility.yul\":12143:12222   */\n      tag_240\n      tag_90\n      jump\t// in\n    tag_240:\n        /* \"#utility.yul\":12102:12224   */\n    tag_239:\n        /* \"#utility.yul\":12260:12266   */\n      dup2\n        /* \"#utility.yul\":12247:12267   */\n      calldataload\n        /* \"#utility.yul\":12285:12389   */\n      tag_241\n        /* \"#utility.yul\":12385:12388   */\n      dup5\n        /* \"#utility.yul\":12377:12383   */\n      dup3\n        /* \"#utility.yul\":12370:12374   */\n      0x20\n        /* \"#utility.yul\":12362:12368   */\n      dup7\n        /* \"#utility.yul\":12358:12375   */\n      add\n        /* \"#utility.yul\":12285:12389   */\n      tag_103\n      jump\t// in\n    tag_241:\n        /* \"#utility.yul\":12276:12389   */\n      swap2\n      pop\n        /* \"#utility.yul\":12092:12395   */\n      pop\n        /* \"#utility.yul\":12005:12395   */\n      swap3\n      swap2\n      pop\n      pop\n      jump\t// out\n        /* \"#utility.yul\":12401:13902   */\n    tag_11:\n        /* \"#utility.yul\":12551:12557   */\n      0x00\n        /* \"#utility.yul\":12559:12565   */\n      dup1\n        /* \"#utility.yul\":12567:12573   */\n      0x00\n        /* \"#utility.yul\":12575:12581   */\n      dup1\n        /* \"#utility.yul\":12583:12589   */\n      0x00\n        /* \"#utility.yul\":12632:12635   */\n      0xa0\n        /* \"#utility.yul\":12620:12629   */\n      dup7\n        /* \"#utility.yul\":12611:12618   */\n      dup9\n        /* \"#utility.yul\":12607:12630   */\n      sub\n        /* \"#utility.yul\":12603:12636   */\n      slt\n        /* \"#utility.yul\":12600:12720   */\n      iszero\n      tag_243\n      jumpi\n        /* \"#utility.yul\":12639:12718   */\n      tag_244\n      tag_86\n      jump\t// in\n    tag_244:\n        /* \"#utility.yul\":12600:12720   */\n    tag_243:\n        /* \"#utility.yul\":12759:12760   */\n      0x00\n        /* \"#utility.yul\":12784:12837   */\n      tag_245\n        /* \"#utility.yul\":12829:12836   */\n      dup9\n        /* \"#utility.yul\":12820:12826   */\n      dup3\n        /* \"#utility.yul\":12809:12818   */\n      dup10\n        /* \"#utility.yul\":12805:12827   */\n      add\n        /* \"#utility.yul\":12784:12837   */\n      tag_89\n      jump\t// in\n    tag_245:\n        /* \"#utility.yul\":12774:12837   */\n      swap6\n      pop\n        /* \"#utility.yul\":12730:12847   */\n      pop\n        /* \"#utility.yul\":12914:12916   */\n      0x20\n        /* \"#utility.yul\":12903:12912   */\n      dup7\n        /* \"#utility.yul\":12899:12917   */\n      add\n        /* \"#utility.yul\":12886:12918   */\n      calldataload\n        /* \"#utility.yul\":12945:12963   */\n      0xffffffffffffffff\n        /* \"#utility.yul\":12937:12943   */\n      dup2\n        /* \"#utility.yul\":12934:12964   */\n      gt\n        /* \"#utility.yul\":12931:13048   */\n      iszero\n      tag_246\n      jumpi\n        /* \"#utility.yul\":12967:13046   */\n      tag_247\n      tag_87\n      jump\t// in\n    tag_247:\n        /* \"#utility.yul\":12931:13048   */\n    tag_246:\n        /* \"#utility.yul\":13072:13135   */\n      tag_248\n        /* \"#utility.yul\":13127:13134   */\n      dup9\n        /* \"#utility.yul\":13118:13124   */\n      dup3\n        /* \"#utility.yul\":13107:13116   */\n      dup10\n        /* \"#utility.yul\":13103:13125   */\n      add\n        /* \"#utility.yul\":13072:13135   */\n      tag_98\n      jump\t// in\n    tag_248:\n        /* \"#utility.yul\":13062:13135   */\n      swap5\n      pop\n        /* \"#utility.yul\":12857:13145   */\n      pop\n        /* \"#utility.yul\":13212:13214   */\n      0x40\n        /* \"#utility.yul\":13201:13210   */\n      dup7\n        /* \"#utility.yul\":13197:13215   */\n      add\n        /* \"#utility.yul\":13184:13216   */\n      calldataload\n        /* \"#utility.yul\":13243:13261   */\n      0xffffffffffffffff\n        /* \"#utility.yul\":13235:13241   */\n      dup2\n        /* \"#utility.yul\":13232:13262   */\n      gt\n        /* \"#utility.yul\":13229:13346   */\n      iszero\n      tag_249\n      jumpi\n        /* \"#utility.yul\":13265:13344   */\n      tag_250\n      tag_87\n      jump\t// in\n    tag_250:\n        /* \"#utility.yul\":13229:13346   */\n    tag_249:\n        /* \"#utility.yul\":13370:13433   */\n      tag_251\n        /* \"#utility.yul\":13425:13432   */\n      dup9\n        /* \"#utility.yul\":13416:13422   */\n      dup3\n        /* \"#utility.yul\":13405:13414   */\n      dup10\n        /* \"#utility.yul\":13401:13423   */\n      add\n        /* \"#utility.yul\":13370:13433   */\n      tag_98\n      jump\t// in\n    tag_251:\n        /* \"#utility.yul\":13360:13433   */\n      swap4\n      pop\n        /* \"#utility.yul\":13155:13443   */\n      pop\n        /* \"#utility.yul\":13482:13484   */\n      0x60\n        /* \"#utility.yul\":13508:13561   */\n      tag_252\n        /* \"#utility.yul\":13553:13560   */\n      dup9\n        /* \"#utility.yul\":13544:13550   */\n      dup3\n        /* \"#utility.yul\":13533:13542   */\n      dup10\n        /* \"#utility.yul\":13529:13551   */\n      add\n        /* \"#utility.yul\":13508:13561   */\n      tag_100\n      jump\t// in\n    tag_252:\n        /* \"#utility.yul\":13498:13561   */\n      swap3\n      pop\n        /* \"#utility.yul\":13453:13571   */\n      pop\n        /* \"#utility.yul\":13638:13641   */\n      0x80\n        /* \"#utility.yul\":13627:13636   */\n      dup7\n        /* \"#utility.yul\":13623:13642   */\n      add\n        /* \"#utility.yul\":13610:13643   */\n      calldataload\n        /* \"#utility.yul\":13670:13688   */\n      0xffffffffffffffff\n        /* \"#utility.yul\":13662:13668   */\n      dup2\n        /* \"#utility.yul\":13659:13689   */\n      gt\n        /* \"#utility.yul\":13656:13773   */\n      iszero\n      tag_253\n      jumpi\n        /* \"#utility.yul\":13692:13771   */\n      tag_254\n      tag_87\n      jump\t// in\n    tag_254:\n        /* \"#utility.yul\":13656:13773   */\n    tag_253:\n        /* \"#utility.yul\":13797:13885   */\n      tag_255\n        /* \"#utility.yul\":13877:13884   */\n      dup9\n        /* \"#utility.yul\":13868:13874   */\n      dup3\n        /* \"#utility.yul\":13857:13866   */\n      dup10\n        /* \"#utility.yul\":13853:13875   */\n      add\n        /* \"#utility.yul\":13797:13885   */\n      tag_104\n      jump\t// in\n    tag_255:\n        /* \"#utility.yul\":13787:13885   */\n      swap2\n      pop\n        /* \"#utility.yul\":13581:13895   */\n      pop\n        /* \"#utility.yul\":12401:13902   */\n      swap3\n      swap6\n      pop\n      swap3\n      swap6\n      swap1\n      swap4\n      pop\n      jump\t// out\n        /* \"#utility.yul\":13908:14088   */\n    tag_105:\n        /* \"#utility.yul\":13956:14033   */\n      0x4e487b7100000000000000000000000000000000000000000000000000000000\n        /* \"#utility.yul\":13953:13954   */\n      0x00\n        /* \"#utility.yul\":13946:14034   */\n      mstore\n        /* \"#utility.yul\":14053:14057   */\n      0x22\n        /* \"#utility.yul\":14050:14051   */\n      0x04\n        /* \"#utility.yul\":14043:14058   */\n      mstore\n        /* \"#utility.yul\":14077:14081   */\n      0x24\n        /* \"#utility.yul\":14074:14075   */\n      0x00\n        /* \"#utility.yul\":14067:14082   */\n      revert\n        /* \"#utility.yul\":14094:14414   */\n    tag_18:\n        /* \"#utility.yul\":14138:14144   */\n      0x00\n        /* \"#utility.yul\":14175:14176   */\n      0x02\n        /* \"#utility.yul\":14169:14173   */\n      dup3\n        /* \"#utility.yul\":14165:14177   */\n      div\n        /* \"#utility.yul\":14155:14177   */\n      swap1\n      pop\n        /* \"#utility.yul\":14222:14223   */\n      0x01\n        /* \"#utility.yul\":14216:14220   */\n      dup3\n        /* \"#utility.yul\":14212:14224   */\n      and\n        /* \"#utility.yul\":14243:14261   */\n      dup1\n        /* \"#utility.yul\":14233:14314   */\n      tag_258\n      jumpi\n        /* \"#utility.yul\":14299:14303   */\n      0x7f\n        /* \"#utility.yul\":14291:14297   */\n      dup3\n        /* \"#utility.yul\":14287:14304   */\n      and\n        /* \"#utility.yul\":14277:14304   */\n      swap2\n      pop\n        /* \"#utility.yul\":14233:14314   */\n    tag_258:\n        /* \"#utility.yul\":14361:14363   */\n      0x20\n        /* \"#utility.yul\":14353:14359   */\n      dup3\n        /* \"#utility.yul\":14350:14364   */\n      lt\n        /* \"#utility.yul\":14330:14348   */\n      dup2\n        /* \"#utility.yul\":14327:14365   */\n      sub\n        /* \"#utility.yul\":14324:14408   */\n      tag_259\n      jumpi\n        /* \"#utility.yul\":14380:14398   */\n      tag_260\n      tag_105\n      jump\t// in\n    tag_260:\n        /* \"#utility.yul\":14324:14408   */\n    tag_259:\n        /* \"#utility.yul\":14145:14414   */\n      pop\n        /* \"#utility.yul\":14094:14414   */\n      swap2\n      swap1\n      pop\n      jump\t// out\n        /* \"#utility.yul\":14420:14561   */\n    tag_106:\n        /* \"#utility.yul\":14469:14473   */\n      0x00\n        /* \"#utility.yul\":14492:14495   */\n      dup2\n        /* \"#utility.yul\":14484:14495   */\n      swap1\n      pop\n        /* \"#utility.yul\":14515:14518   */\n      dup2\n        /* \"#utility.yul\":14512:14513   */\n      0x00\n        /* \"#utility.yul\":14505:14519   */\n      mstore\n        /* \"#utility.yul\":14549:14553   */\n      0x20\n        /* \"#utility.yul\":14546:14547   */\n      0x00\n        /* \"#utility.yul\":14536:14554   */\n      keccak256\n        /* \"#utility.yul\":14528:14554   */\n      swap1\n      pop\n        /* \"#utility.yul\":14420:14561   */\n      swap2\n      swap1\n      pop\n      jump\t// out\n        /* \"#utility.yul\":14567:14660   */\n    tag_107:\n        /* \"#utility.yul\":14604:14610   */\n      0x00\n        /* \"#utility.yul\":14651:14653   */\n      0x20\n        /* \"#utility.yul\":14646:14648   */\n      0x1f\n        /* \"#utility.yul\":14639:14644   */\n      dup4\n        /* \"#utility.yul\":14635:14649   */\n      add\n        /* \"#utility.yul\":14631:14654   */\n      div\n        /* \"#utility.yul\":14621:14654   */\n      swap1\n      pop\n        /* \"#utility.yul\":14567:14660   */\n      swap2\n      swap1\n      pop\n      jump\t// out\n        /* \"#utility.yul\":14666:14773   */\n    tag_108:\n        /* \"#utility.yul\":14710:14718   */\n      0x00\n        /* \"#utility.yul\":14760:14765   */\n      dup3\n        /* \"#utility.yul\":14754:14758   */\n      dup3\n        /* \"#utility.yul\":14750:14766   */\n      shl\n        /* \"#utility.yul\":14729:14766   */\n      swap1\n      pop\n        /* \"#utility.yul\":14666:14773   */\n      swap3\n      swap2\n      pop\n      pop\n      jump\t// out\n        /* \"#utility.yul\":14779:15172   */\n    tag_109:\n        /* \"#utility.yul\":14848:14854   */\n      0x00\n        /* \"#utility.yul\":14898:14899   */\n      0x08\n        /* \"#utility.yul\":14886:14896   */\n      dup4\n        /* \"#utility.yul\":14882:14900   */\n      mul\n        /* \"#utility.yul\":14921:15018   */\n      tag_265\n        /* \"#utility.yul\":14951:15017   */\n      0xffffffffffffffffffffffffffffffffffffffffffffffffffffffffffffffff\n        /* \"#utility.yul\":14940:14949   */\n      dup3\n        /* \"#utility.yul\":14921:15018   */\n      tag_108\n      jump\t// in\n    tag_265:\n        /* \"#utility.yul\":15039:15078   */\n      tag_266\n        /* \"#utility.yul\":15069:15077   */\n      dup7\n        /* \"#utility.yul\":15058:15067   */\n      dup4\n        /* \"#utility.yul\":15039:15078   */\n      tag_108\n      jump\t// in\n    tag_266:\n        /* \"#utility.yul\":15027:15078   */\n      swap6\n      pop\n        /* \"#utility.yul\":15111:15115   */\n      dup1\n        /* \"#utility.yul\":15107:15116   */\n      not\n        /* \"#utility.yul\":15100:15105   */\n      dup5\n        /* \"#utility.yul\":15096:15117   */\n      and\n        /* \"#utility.yul\":15087:15117   */\n      swap4\n      pop\n        /* \"#utility.yul\":15160:15164   */\n      dup1\n        /* \"#utility.yul\":15150:15158   */\n      dup7\n        /* \"#utility.yul\":15146:15165   */\n      and\n        /* \"#utility.yul\":15139:15144   */\n      dup5\n        /* \"#utility.yul\":15136:15166   */\n      or\n        /* \"#utility.yul\":15126:15166   */\n      swap3\n      pop\n        /* \"#utility.yul\":14855:15172   */\n      pop\n      pop\n        /* \"#utility.yul\":14779:15172   */\n      swap4\n      swap3\n      pop\n      pop\n      pop\n      jump\t// out\n        /* \"#utility.yul\":15178:15238   */\n    tag_110:\n        /* \"#utility.yul\":15206:15209   */\n      0x00\n        /* \"#utility.yul\":15227:15232   */\n      dup2\n        /* \"#utility.yul\":15220:15232   */\n      swap1\n      pop\n        /* \"#utility.yul\":15178:15238   */\n      swap2\n      swap1\n      pop\n      jump\t// out\n        /* \"#utility.yul\":15244:15386   */\n    tag_111:\n        /* \"#utility.yul\":15294:15303   */\n      0x00\n        /* \"#utility.yul\":15327:15380   */\n      tag_269\n        /* \"#utility.yul\":15345:15379   */\n      tag_270\n        /* \"#utility.yul\":15354:15378   */\n      tag_271\n        /* \"#utility.yul\":15372:15377   */\n      dup5\n        /* \"#utility.yul\":15354:15378   */\n      tag_65\n      jump\t// in\n    tag_271:\n        /* \"#utility.yul\":15345:15379   */\n      tag_110\n      jump\t// in\n    tag_270:\n        /* \"#utility.yul\":15327:15380   */\n      tag_65\n      jump\t// in\n    tag_269:\n        /* \"#utility.yul\":15314:15380   */\n      swap1\n      pop\n        /* \"#utility.yul\":15244:15386   */\n      swap2\n      swap1\n      pop\n      jump\t// out\n        /* \"#utility.yul\":15392:15467   */\n    tag_112:\n        /* \"#utility.yul\":15435:15438   */\n      0x00\n        /* \"#utility.yul\":15456:15461   */\n      dup2\n        /* \"#utility.yul\":15449:15461   */\n      swap1\n      pop\n        /* \"#utility.yul\":15392:15467   */\n      swap2\n      swap1\n      pop\n      jump\t// out\n        /* \"#utility.yul\":15473:15742   */\n    tag_113:\n        /* \"#utility.yul\":15583:15622   */\n      tag_274\n        /* \"#utility.yul\":15614:15621   */\n      dup4\n        /* \"#utility.yul\":15583:15622   */\n      tag_111\n      jump\t// in\n    tag_274:\n        /* \"#utility.yul\":15644:15735   */\n      tag_275\n        /* \"#utility.yul\":15693:15734   */\n      tag_276\n        /* \"#utility.yul\":15717:15733   */\n      dup3\n        /* \"#utility.yul\":15693:15734   */\n      tag_112\n      jump\t// in\n    tag_276:\n        /* \"#utility.yul\":15685:15691   */\n      dup5\n        /* \"#utility.yul\":15678:15682   */\n      dup5\n        /* \"#utility.yul\":15672:15683   */\n      sload\n        /* \"#utility.yul\":15644:15735   */\n      tag_109\n      jump\t// in\n    tag_275:\n        /* \"#utility.yul\":15638:15642   */\n      dup3\n        /* \"#utility.yul\":15631:15736   */\n      sstore\n        /* \"#utility.yul\":15549:15742   */\n      pop\n        /* \"#utility.yul\":15473:15742   */\n      pop\n      pop\n      pop\n      jump\t// out\n        /* \"#utility.yul\":15748:15821   */\n    tag_114:\n        /* \"#utility.yul\":15793:15796   */\n      0x00\n        /* \"#utility.yul\":15748:15821   */\n      swap1\n      jump\t// out\n        /* \"#utility.yul\":15827:16016   */\n    tag_115:\n        /* \"#utility.yul\":15904:15936   */\n      tag_279\n      tag_114\n      jump\t// in\n    tag_279:\n        /* \"#utility.yul\":15945:16010   */\n      tag_280\n        /* \"#utility.yul\":16003:16009   */\n      dup2\n        /* \"#utility.yul\":15995:16001   */\n      dup5\n        /* \"#utility.yul\":15989:15993   */\n      dup5\n        /* \"#utility.yul\":15945:16010   */\n      tag_113\n      jump\t// in\n    tag_280:\n        /* \"#utility.yul\":15880:16016   */\n      pop\n        /* \"#utility.yul\":15827:16016   */\n      pop\n      pop\n      jump\t// out\n        /* \"#utility.yul\":16022:16208   */\n    tag_116:\n        /* \"#utility.yul\":16082:16202   */\n    tag_282:\n        /* \"#utility.yul\":16099:16102   */\n      dup2\n        /* \"#utility.yul\":16092:16097   */\n      dup2\n        /* \"#utility.yul\":16089:16103   */\n      lt\n        /* \"#utility.yul\":16082:16202   */\n      iszero\n      tag_284\n      jumpi\n        /* \"#utility.yul\":16153:16192   */\n      tag_285\n        /* \"#utility.yul\":16190:16191   */\n      0x00\n        /* \"#utility.yul\":16183:16188   */\n      dup3\n        /* \"#utility.yul\":16153:16192   */\n      tag_115\n      jump\t// in\n    tag_285:\n        /* \"#utility.yul\":16126:16127   */\n      0x01\n        /* \"#utility.yul\":16119:16124   */\n      dup2\n        /* \"#utility.yul\":16115:16128   */\n      add\n        /* \"#utility.yul\":16106:16128   */\n      swap1\n      pop\n        /* \"#utility.yul\":16082:16202   */\n      jump(tag_282)\n    tag_284:\n        /* \"#utility.yul\":16022:16208   */\n      pop\n      pop\n      jump\t// out\n        /* \"#utility.yul\":16214:16757   */\n    tag_117:\n        /* \"#utility.yul\":16315:16317   */\n      0x1f\n        /* \"#utility.yul\":16310:16313   */\n      dup3\n        /* \"#utility.yul\":16307:16318   */\n      gt\n        /* \"#utility.yul\":16304:16750   */\n      iszero\n      tag_287\n      jumpi\n        /* \"#utility.yul\":16349:16387   */\n      tag_288\n        /* \"#utility.yul\":16381:16386   */\n      dup2\n        /* \"#utility.yul\":16349:16387   */\n      tag_106\n      jump\t// in\n    tag_288:\n        /* \"#utility.yul\":16433:16462   */\n      tag_289\n        /* \"#utility.yul\":16451:16461   */\n      dup5\n        /* \"#utility.yul\":16433:16462   */\n      tag_107\n      jump\t// in\n    tag_289:\n        /* \"#utility.yul\":16423:16431   */\n      dup2\n        /* \"#utility.yul\":16419:16463   */\n      add\n        /* \"#utility.yul\":16616:16618   */\n      0x20\n        /* \"#utility.yul\":16604:16614   */\n      dup6\n        /* \"#utility.yul\":16601:16619   */\n      lt\n        /* \"#utility.yul\":16598:16647   */\n      iszero\n      tag_290\n      jumpi\n        /* \"#utility.yul\":16637:16645   */\n      dup2\n        /* \"#utility.yul\":16622:16645   */\n      swap1\n      pop\n        /* \"#utility.yul\":16598:16647   */\n    tag_290:\n        /* \"#utility.yul\":16660:16740   */\n      tag_291\n        /* \"#utility.yul\":16716:16738   */\n      tag_292\n        /* \"#utility.yul\":16734:16737   */\n      dup6\n        /* \"#utility.yul\":16716:16738   */\n      tag_107\n      jump\t// in\n    tag_292:\n        /* \"#utility.yul\":16706:16714   */\n      dup4\n        /* \"#utility.yul\":16702:16739   */\n      add\n        /* \"#utility.yul\":16689:16700   */\n      dup3\n        /* \"#utility.yul\":16660:16740   */\n      tag_116\n      jump\t// in\n    tag_291:\n        /* \"#utility.yul\":16319:16750   */\n      pop\n      pop\n        /* \"#utility.yul\":16304:16750   */\n    tag_287:\n        /* \"#utility.yul\":16214:16757   */\n      pop\n      pop\n      pop\n      jump\t// out\n        /* \"#utility.yul\":16763:16880   */\n    tag_118:\n        /* \"#utility.yul\":16817:16825   */\n      0x00\n        /* \"#utility.yul\":16867:16872   */\n      dup3\n        /* \"#utility.yul\":16861:16865   */\n      dup3\n        /* \"#utility.yul\":16857:16873   */\n      shr\n        /* \"#utility.yul\":16836:16873   */\n      swap1\n      pop\n        /* \"#utility.yul\":16763:16880   */\n      swap3\n      swap2\n      pop\n      pop\n      jump\t// out\n        /* \"#utility.yul\":16886:17055   */\n    tag_119:\n        /* \"#utility.yul\":16930:16936   */\n      0x00\n        /* \"#utility.yul\":16963:17014   */\n      tag_295\n        /* \"#utility.yul\":17011:17012   */\n      0x00\n        /* \"#utility.yul\":17007:17013   */\n      not\n        /* \"#utility.yul\":16999:17004   */\n      dup5\n        /* \"#utility.yul\":16996:16997   */\n      0x08\n        /* \"#utility.yul\":16992:17005   */\n      mul\n        /* \"#utility.yul\":16963:17014   */\n      tag_118\n      jump\t// in\n    tag_295:\n        /* \"#utility.yul\":16959:17015   */\n      not\n        /* \"#utility.yul\":17044:17048   */\n      dup1\n        /* \"#utility.yul\":17038:17042   */\n      dup4\n        /* \"#utility.yul\":17034:17049   */\n      and\n        /* \"#utility.yul\":17024:17049   */\n      swap2\n      pop\n        /* \"#utility.yul\":16937:17055   */\n      pop\n        /* \"#utility.yul\":16886:17055   */\n      swap3\n      swap2\n      pop\n      pop\n      jump\t// out\n        /* \"#utility.yul\":17060:17355   */\n    tag_120:\n        /* \"#utility.yul\":17136:17140   */\n      0x00\n        /* \"#utility.yul\":17282:17311   */\n      tag_297\n        /* \"#utility.yul\":17307:17310   */\n      dup4\n        /* \"#utility.yul\":17301:17305   */\n      dup4\n        /* \"#utility.yul\":17282:17311   */\n      tag_119\n      jump\t// in\n    tag_297:\n        /* \"#utility.yul\":17274:17311   */\n      swap2\n      pop\n        /* \"#utility.yul\":17344:17347   */\n      dup3\n        /* \"#utility.yul\":17341:17342   */\n      0x02\n        /* \"#utility.yul\":17337:17348   */\n      mul\n        /* \"#utility.yul\":17331:17335   */\n      dup3\n        /* \"#utility.yul\":17328:17349   */\n      or\n        /* \"#utility.yul\":17320:17349   */\n      swap1\n      pop\n        /* \"#utility.yul\":17060:17355   */\n      swap3\n      swap2\n      pop\n      pop\n      jump\t// out\n        /* \"#utility.yul\":17360:18755   */\n    tag_39:\n        /* \"#utility.yul\":17477:17514   */\n      tag_299\n        /* \"#utility.yul\":17510:17513   */\n      dup3\n        /* \"#utility.yul\":17477:17514   */\n      tag_70\n      jump\t// in\n    tag_299:\n        /* \"#utility.yul\":17579:17597   */\n      0xffffffffffffffff\n        /* \"#utility.yul\":17571:17577   */\n      dup2\n        /* \"#utility.yul\":17568:17598   */\n      gt\n        /* \"#utility.yul\":17565:17621   */\n      iszero\n      tag_300\n      jumpi\n        /* \"#utility.yul\":17601:17619   */\n      tag_301\n      tag_92\n      jump\t// in\n    tag_301:\n        /* \"#utility.yul\":17565:17621   */\n    tag_300:\n        /* \"#utility.yul\":17645:17683   */\n      tag_302\n        /* \"#utility.yul\":17677:17681   */\n      dup3\n        /* \"#utility.yul\":17671:17682   */\n      sload\n        /* \"#utility.yul\":17645:17683   */\n      tag_18\n      jump\t// in\n    tag_302:\n        /* \"#utility.yul\":17730:17797   */\n      tag_303\n        /* \"#utility.yul\":17790:17796   */\n      dup3\n        /* \"#utility.yul\":17782:17788   */\n      dup3\n        /* \"#utility.yul\":17776:17780   */\n      dup6\n        /* \"#utility.yul\":17730:17797   */\n      tag_117\n      jump\t// in\n    tag_303:\n        /* \"#utility.yul\":17824:17825   */\n      0x00\n        /* \"#utility.yul\":17848:17852   */\n      0x20\n        /* \"#utility.yul\":17835:17852   */\n      swap1\n      pop\n        /* \"#utility.yul\":17880:17882   */\n      0x1f\n        /* \"#utility.yul\":17872:17878   */\n      dup4\n        /* \"#utility.yul\":17869:17883   */\n      gt\n        /* \"#utility.yul\":17897:17898   */\n      0x01\n        /* \"#utility.yul\":17892:18510   */\n      dup2\n      eq\n      tag_305\n      jumpi\n        /* \"#utility.yul\":18554:18555   */\n      0x00\n        /* \"#utility.yul\":18571:18577   */\n      dup5\n        /* \"#utility.yul\":18568:18645   */\n      iszero\n      tag_306\n      jumpi\n        /* \"#utility.yul\":18620:18629   */\n      dup3\n        /* \"#utility.yul\":18615:18618   */\n      dup8\n        /* \"#utility.yul\":18611:18630   */\n      add\n        /* \"#utility.yul\":18605:18631   */\n      mload\n        /* \"#utility.yul\":18596:18631   */\n      swap1\n      pop\n        /* \"#utility.yul\":18568:18645   */\n    tag_306:\n        /* \"#utility.yul\":18671:18738   */\n      tag_307\n        /* \"#utility.yul\":18731:18737   */\n      dup6\n        /* \"#utility.yul\":18724:18729   */\n      dup3\n        /* \"#utility.yul\":18671:18738   */\n      tag_120\n      jump\t// in\n    tag_307:\n        /* \"#utility.yul\":18665:18669   */\n      dup7\n        /* \"#utility.yul\":18658:18739   */\n      sstore\n        /* \"#utility.yul\":18527:18749   */\n      pop\n        /* \"#utility.yul\":17862:18749   */\n      jump(tag_304)\n        /* \"#utility.yul\":17892:18510   */\n    tag_305:\n        /* \"#utility.yul\":17944:17948   */\n      0x1f\n        /* \"#utility.yul\":17940:17949   */\n      not\n        /* \"#utility.yul\":17932:17938   */\n      dup5\n        /* \"#utility.yul\":17928:17950   */\n      and\n        /* \"#utility.yul\":17978:18015   */\n      tag_308\n        /* \"#utility.yul\":18010:18014   */\n      dup7\n        /* \"#utility.yul\":17978:18015   */\n      tag_106\n      jump\t// in\n    tag_308:\n        /* \"#utility.yul\":18037:18038   */\n      0x00\n        /* \"#utility.yul\":18051:18259   */\n    tag_309:\n        /* \"#utility.yul\":18065:18072   */\n      dup3\n        /* \"#utility.yul\":18062:18063   */\n      dup2\n        /* \"#utility.yul\":18059:18073   */\n      lt\n        /* \"#utility.yul\":18051:18259   */\n      iszero\n      tag_311\n      jumpi\n        /* \"#utility.yul\":18144:18153   */\n      dup5\n        /* \"#utility.yul\":18139:18142   */\n      dup10\n        /* \"#utility.yul\":18135:18154   */\n      add\n        /* \"#utility.yul\":18129:18155   */\n      mload\n        /* \"#utility.yul\":18121:18127   */\n      dup3\n        /* \"#utility.yul\":18114:18156   */\n      sstore\n        /* \"#utility.yul\":18195:18196   */\n      0x01\n        /* \"#utility.yul\":18187:18193   */\n      dup3\n        /* \"#utility.yul\":18183:18197   */\n      add\n        /* \"#utility.yul\":18173:18197   */\n      swap2\n      pop\n        /* \"#utility.yul\":18242:18244   */\n      0x20\n        /* \"#utility.yul\":18231:18240   */\n      dup6\n        /* \"#utility.yul\":18227:18245   */\n      add\n        /* \"#utility.yul\":18214:18245   */\n      swap5\n      pop\n        /* \"#utility.yul\":18088:18092   */\n      0x20\n        /* \"#utility.yul\":18085:18086   */\n      dup2\n        /* \"#utility.yul\":18081:18093   */\n      add\n        /* \"#utility.yul\":18076:18093   */\n      swap1\n      pop\n        /* \"#utility.yul\":18051:18259   */\n      jump(tag_309)\n    tag_311:\n        /* \"#utility.yul\":18287:18293   */\n      dup7\n        /* \"#utility.yul\":18278:18285   */\n      dup4\n        /* \"#utility.yul\":18275:18294   */\n      lt\n        /* \"#utility.yul\":18272:18451   */\n      iszero\n      tag_312\n      jumpi\n        /* \"#utility.yul\":18345:18354   */\n      dup5\n        /* \"#utility.yul\":18340:18343   */\n      dup10\n        /* \"#utility.yul\":18336:18355   */\n      add\n        /* \"#utility.yul\":18330:18356   */\n      mload\n        /* \"#utility.yul\":18388:18436   */\n      tag_313\n        /* \"#utility.yul\":18430:18434   */\n      0x1f\n        /* \"#utility.yul\":18422:18428   */\n      dup10\n        /* \"#utility.yul\":18418:18435   */\n      and\n        /* \"#utility.yul\":18407:18416   */\n      dup3\n        /* \"#utility.yul\":18388:18436   */\n      tag_119\n      jump\t// in\n    tag_313:\n        /* \"#utility.yul\":18380:18386   */\n      dup4\n        /* \"#utility.yul\":18373:18437   */\n      sstore\n        /* \"#utility.yul\":18295:18451   */\n      pop\n        /* \"#utility.yul\":18272:18451   */\n    tag_312:\n        /* \"#utility.yul\":18497:18498   */\n      0x01\n        /* \"#utility.yul\":18493:18494   */\n      0x02\n        /* \"#utility.yul\":18485:18491   */\n      dup9\n        /* \"#utility.yul\":18481:18495   */\n      mul\n        /* \"#utility.yul\":18477:18499   */\n      add\n        /* \"#utility.yul\":18471:18475   */\n      dup9\n        /* \"#utility.yul\":18464:18500   */\n      sstore\n        /* \"#utility.yul\":17899:18510   */\n      pop\n      pop\n      pop\n        /* \"#utility.yul\":17862:18749   */\n    tag_304:\n      pop\n        /* \"#utility.yul\":17452:18755   */\n      pop\n      pop\n      pop\n        /* \"#utility.yul\":17360:18755   */\n      pop\n      pop\n      jump\t// out\n        /* \"#utility.yul\":18761:18930   */\n    tag_121:\n        /* \"#utility.yul\":18845:18856   */\n      0x00\n        /* \"#utility.yul\":18879:18885   */\n      dup3\n        /* \"#utility.yul\":18874:18877   */\n      dup3\n        /* \"#utility.yul\":18867:18886   */\n      mstore\n        /* \"#utility.yul\":18919:18923   */\n      0x20\n        /* \"#utility.yul\":18914:18917   */\n      dup3\n        /* \"#utility.yul\":18910:18924   */\n      add\n        /* \"#utility.yul\":18895:18924   */\n      swap1\n      pop\n        /* \"#utility.yul\":18761:18930   */\n      swap3\n      swap2\n      pop\n      pop\n      jump\t// out\n        /* \"#utility.yul\":18936:19110   */\n    tag_122:\n        /* \"#utility.yul\":19076:19102   */\n      0x202d2d2d2d2d2d2d2d2d2d626c6f636b206e756d6265723a0000000000000000\n        /* \"#utility.yul\":19072:19073   */\n      0x00\n        /* \"#utility.yul\":19064:19070   */\n      dup3\n        /* \"#utility.yul\":19060:19074   */\n      add\n        /* \"#utility.yul\":19053:19103   */\n      mstore\n        /* \"#utility.yul\":18936:19110   */\n      pop\n      jump\t// out\n        /* \"#utility.yul\":19116:19482   */\n    tag_123:\n        /* \"#utility.yul\":19258:19261   */\n      0x00\n        /* \"#utility.yul\":19279:19346   */\n      tag_317\n        /* \"#utility.yul\":19343:19345   */\n      0x18\n        /* \"#utility.yul\":19338:19341   */\n      dup4\n        /* \"#utility.yul\":19279:19346   */\n      tag_121\n      jump\t// in\n    tag_317:\n        /* \"#utility.yul\":19272:19346   */\n      swap2\n      pop\n        /* \"#utility.yul\":19355:19448   */\n      tag_318\n        /* \"#utility.yul\":19444:19447   */\n      dup3\n        /* \"#utility.yul\":19355:19448   */\n      tag_122\n      jump\t// in\n    tag_318:\n        /* \"#utility.yul\":19473:19475   */\n      0x20\n        /* \"#utility.yul\":19468:19471   */\n      dup3\n        /* \"#utility.yul\":19464:19476   */\n      add\n        /* \"#utility.yul\":19457:19476   */\n      swap1\n      pop\n        /* \"#utility.yul\":19116:19482   */\n      swap2\n      swap1\n      pop\n      jump\t// out\n        /* \"#utility.yul\":19488:19606   */\n    tag_124:\n        /* \"#utility.yul\":19575:19599   */\n      tag_320\n        /* \"#utility.yul\":19593:19598   */\n      dup2\n        /* \"#utility.yul\":19575:19599   */\n      tag_65\n      jump\t// in\n    tag_320:\n        /* \"#utility.yul\":19570:19573   */\n      dup3\n        /* \"#utility.yul\":19563:19600   */\n      mstore\n        /* \"#utility.yul\":19488:19606   */\n      pop\n      pop\n      jump\t// out\n        /* \"#utility.yul\":19612:20141   */\n    tag_44:\n        /* \"#utility.yul\":19806:19810   */\n      0x00\n        /* \"#utility.yul\":19844:19846   */\n      0x40\n        /* \"#utility.yul\":19833:19842   */\n      dup3\n        /* \"#utility.yul\":19829:19847   */\n      add\n        /* \"#utility.yul\":19821:19847   */\n      swap1\n      pop\n        /* \"#utility.yul\":19893:19902   */\n      dup2\n        /* \"#utility.yul\":19887:19891   */\n      dup2\n        /* \"#utility.yul\":19883:19903   */\n      sub\n        /* \"#utility.yul\":19879:19880   */\n      0x00\n        /* \"#utility.yul\":19868:19877   */\n      dup4\n        /* \"#utility.yul\":19864:19881   */\n      add\n        /* \"#utility.yul\":19857:19904   */\n      mstore\n        /* \"#utility.yul\":19921:20052   */\n      tag_322\n        /* \"#utility.yul\":20047:20051   */\n      dup2\n        /* \"#utility.yul\":19921:20052   */\n      tag_123\n      jump\t// in\n    tag_322:\n        /* \"#utility.yul\":19913:20052   */\n      swap1\n      pop\n        /* \"#utility.yul\":20062:20134   */\n      tag_323\n        /* \"#utility.yul\":20130:20132   */\n      0x20\n        /* \"#utility.yul\":20119:20128   */\n      dup4\n        /* \"#utility.yul\":20115:20133   */\n      add\n        /* \"#utility.yul\":20106:20112   */\n      dup5\n        /* \"#utility.yul\":20062:20134   */\n      tag_124\n      jump\t// in\n    tag_323:\n        /* \"#utility.yul\":19612:20141   */\n      swap3\n      swap2\n      pop\n      pop\n      jump\t// out\n\n    auxdata: 0xa26469706673582212200fbff31a6a8d244215053fce587fff916b62ead5a14fbceb0fb2348f9f5dacb564736f6c63430008120033\n}\n",
				"bytecode": {
					"linkReferences": {},
					"object": "608060405234801561001057600080fd5b50610f98806100206000396000f3fe608060405234801561001057600080fd5b50600436106100365760003560e01c80638ab5af6b1461003b578063d2fa54b114610059575b600080fd5b610043610075565b6040516100509190610872565b60405180910390f35b610073600480360381019061006e9190610b1b565b61033b565b005b60606000805480602002602001604051908101604052809291908181526020016000905b8282101561033257838290600052602060002090600602016040518060c0016040529081600082015481526020016001820160009054906101000a900473ffffffffffffffffffffffffffffffffffffffff1673ffffffffffffffffffffffffffffffffffffffff1673ffffffffffffffffffffffffffffffffffffffff16815260200160028201805461012c90610c19565b80601f016020809104026020016040519081016040528092919081815260200182805461015890610c19565b80156101a55780601f1061017a576101008083540402835291602001916101a5565b820191906000526020600020905b81548152906001019060200180831161018857829003601f168201915b505050505081526020016003820180546101be90610c19565b80601f01602080910402602001604051908101604052809291908181526020018280546101ea90610c19565b80156102375780601f1061020c57610100808354040283529160200191610237565b820191906000526020600020905b81548152906001019060200180831161021a57829003601f168201915b505050505081526020016004820154815260200160058201805480602002602001604051908101604052809291908181526020016000905b8282101561031b57838290600052602060002001805461028e90610c19565b80601f01602080910402602001604051908101604052809291908181526020018280546102ba90610c19565b80156103075780601f106102dc57610100808354040283529160200191610307565b820191906000526020600020905b8154815290600101906020018083116102ea57829003601f168201915b50505050508152602001906001019061026f565b505050508152505081526020019060010190610099565b50505050905090565b600043905060006040518060c001604052808381526020018873ffffffffffffffffffffffffffffffffffffffff1681526020018781526020018681526020018581526020018481525090806001815401808255809150506001900390600052602060002090600602016000909190919091506000820151816000015560208201518160010160006101000a81548173ffffffffffffffffffffffffffffffffffffffff021916908373ffffffffffffffffffffffffffffffffffffffff16021790555060408201518160020190816104149190610df6565b50606082015181600301908161042a9190610df6565b506080820151816004015560a0820151816005019080519060200190610451929190610493565b5050507fb60e72ccf6d57ab53eb84d7e94a9545806ed7f93c4d5673f11a64f03471e584e816040516104839190610f34565b60405180910390a1505050505050565b8280548282559060005260206000209081019282156104db579160200282015b828111156104da5782518290816104ca9190610df6565b50916020019190600101906104b3565b5b5090506104e891906104ec565b5090565b5b8082111561050c57600081816105039190610510565b506001016104ed565b5090565b50805461051c90610c19565b6000825580601f1061052e575061054d565b601f01602090049060005260206000209081019061054c9190610550565b5b50565b5b80821115610569576000816000905550600101610551565b5090565b600081519050919050565b600082825260208201905092915050565b6000819050602082019050919050565b6000819050919050565b6105ac81610599565b82525050565b600073ffffffffffffffffffffffffffffffffffffffff82169050919050565b60006105dd826105b2565b9050919050565b6105ed816105d2565b82525050565b600081519050919050565b600082825260208201905092915050565b60005b8381101561062d578082015181840152602081019050610612565b60008484015250505050565b6000601f19601f8301169050919050565b6000610655826105f3565b61065f81856105fe565b935061066f81856020860161060f565b61067881610639565b840191505092915050565b600081519050919050565b600082825260208201905092915050565b6000819050602082019050919050565b60006106bb838361064a565b905092915050565b6000602082019050919050565b60006106db82610683565b6106e5818561068e565b9350836020820285016106f78561069f565b8060005b85811015610733578484038952815161071485826106af565b945061071f836106c3565b925060208a019950506001810190506106fb565b50829750879550505050505092915050565b600060c08301600083015161075d60008601826105a3565b50602083015161077060208601826105e4565b5060408301518482036040860152610788828261064a565b915050606083015184820360608601526107a2828261064a565b91505060808301516107b760808601826105a3565b5060a083015184820360a08601526107cf82826106d0565b9150508091505092915050565b60006107e88383610745565b905092915050565b6000602082019050919050565b60006108088261056d565b6108128185610578565b93508360208202850161082485610589565b8060005b85811015610860578484038952815161084185826107dc565b945061084c836107f0565b925060208a01995050600181019050610828565b50829750879550505050505092915050565b6000602082019050818103600083015261088c81846107fd565b905092915050565b6000604051905090565b600080fd5b600080fd5b6108b1816105d2565b81146108bc57600080fd5b50565b6000813590506108ce816108a8565b92915050565b600080fd5b600080fd5b7f4e487b7100000000000000000000000000000000000000000000000000000000600052604160045260246000fd5b61091682610639565b810181811067ffffffffffffffff82111715610935576109346108de565b5b80604052505050565b6000610948610894565b9050610954828261090d565b919050565b600067ffffffffffffffff821115610974576109736108de565b5b61097d82610639565b9050602081019050919050565b82818337600083830152505050565b60006109ac6109a784610959565b61093e565b9050828152602081018484840111156109c8576109c76108d9565b5b6109d384828561098a565b509392505050565b600082601f8301126109f0576109ef6108d4565b5b8135610a00848260208601610999565b91505092915050565b610a1281610599565b8114610a1d57600080fd5b50565b600081359050610a2f81610a09565b92915050565b600067ffffffffffffffff821115610a5057610a4f6108de565b5b602082029050602081019050919050565b600080fd5b6000610a79610a7484610a35565b61093e565b90508083825260208201905060208402830185811115610a9c57610a9b610a61565b5b835b81811015610ae357803567ffffffffffffffff811115610ac157610ac06108d4565b5b808601610ace89826109db565b85526020850194505050602081019050610a9e565b5050509392505050565b600082601f830112610b0257610b016108d4565b5b8135610b12848260208601610a66565b91505092915050565b600080600080600060a08688031215610b3757610b3661089e565b5b6000610b45888289016108bf565b955050602086013567ffffffffffffffff811115610b6657610b656108a3565b5b610b72888289016109db565b945050604086013567ffffffffffffffff811115610b9357610b926108a3565b5b610b9f888289016109db565b9350506060610bb088828901610a20565b925050608086013567ffffffffffffffff811115610bd157610bd06108a3565b5b610bdd88828901610aed565b9150509295509295909350565b7f4e487b7100000000000000000000000000000000000000000000000000000000600052602260045260246000fd5b60006002820490506001821680610c3157607f821691505b602082108103610c4457610c43610bea565b5b50919050565b60008190508160005260206000209050919050565b60006020601f8301049050919050565b600082821b905092915050565b600060088302610cac7fffffffffffffffffffffffffffffffffffffffffffffffffffffffffffffffff82610c6f565b610cb68683610c6f565b95508019841693508086168417925050509392505050565b6000819050919050565b6000610cf3610cee610ce984610599565b610cce565b610599565b9050919050565b6000819050919050565b610d0d83610cd8565b610d21610d1982610cfa565b848454610c7c565b825550505050565b600090565b610d36610d29565b610d41818484610d04565b505050565b5b81811015610d6557610d5a600082610d2e565b600181019050610d47565b5050565b601f821115610daa57610d7b81610c4a565b610d8484610c5f565b81016020851015610d93578190505b610da7610d9f85610c5f565b830182610d46565b50505b505050565b600082821c905092915050565b6000610dcd60001984600802610daf565b1980831691505092915050565b6000610de68383610dbc565b9150826002028217905092915050565b610dff826105f3565b67ffffffffffffffff811115610e1857610e176108de565b5b610e228254610c19565b610e2d828285610d69565b600060209050601f831160018114610e605760008415610e4e578287015190505b610e588582610dda565b865550610ec0565b601f198416610e6e86610c4a565b60005b82811015610e9657848901518255600182019150602085019450602081019050610e71565b86831015610eb35784890151610eaf601f891682610dbc565b8355505b6001600288020188555050505b505050505050565b600082825260208201905092915050565b7f202d2d2d2d2d2d2d2d2d2d626c6f636b206e756d6265723a0000000000000000600082015250565b6000610f0f601883610ec8565b9150610f1a82610ed9565b602082019050919050565b610f2e81610599565b82525050565b60006040820190508181036000830152610f4d81610f02565b9050610f5c6020830184610f25565b9291505056fea26469706673582212200fbff31a6a8d244215053fce587fff916b62ead5a14fbceb0fb2348f9f5dacb564736f6c63430008120033",
					"opcodes": "PUSH1 0x80 PUSH1 0x40 MSTORE CALLVALUE DUP1 ISZERO PUSH2 0x10 JUMPI PUSH1 0x0 DUP1 REVERT JUMPDEST POP PUSH2 0xF98 DUP1 PUSH2 0x20 PUSH1 0x0 CODECOPY PUSH1 0x0 RETURN INVALID PUSH1 0x80 PUSH1 0x40 MSTORE CALLVALUE DUP1 ISZERO PUSH2 0x10 JUMPI PUSH1 0x0 DUP1 REVERT JUMPDEST POP PUSH1 0x4 CALLDATASIZE LT PUSH2 0x36 JUMPI PUSH1 0x0 CALLDATALOAD PUSH1 0xE0 SHR DUP1 PUSH4 0x8AB5AF6B EQ PUSH2 0x3B JUMPI DUP1 PUSH4 0xD2FA54B1 EQ PUSH2 0x59 JUMPI JUMPDEST PUSH1 0x0 DUP1 REVERT JUMPDEST PUSH2 0x43 PUSH2 0x75 JUMP JUMPDEST PUSH1 0x40 MLOAD PUSH2 0x50 SWAP2 SWAP1 PUSH2 0x872 JUMP JUMPDEST PUSH1 0x40 MLOAD DUP1 SWAP2 SUB SWAP1 RETURN JUMPDEST PUSH2 0x73 PUSH1 0x4 DUP1 CALLDATASIZE SUB DUP2 ADD SWAP1 PUSH2 0x6E SWAP2 SWAP1 PUSH2 0xB1B JUMP JUMPDEST PUSH2 0x33B JUMP JUMPDEST STOP JUMPDEST PUSH1 0x60 PUSH1 0x0 DUP1 SLOAD DUP1 PUSH1 0x20 MUL PUSH1 0x20 ADD PUSH1 0x40 MLOAD SWAP1 DUP2 ADD PUSH1 0x40 MSTORE DUP1 SWAP3 SWAP2 SWAP1 DUP2 DUP2 MSTORE PUSH1 0x20 ADD PUSH1 0x0 SWAP1 JUMPDEST DUP3 DUP3 LT ISZERO PUSH2 0x332 JUMPI DUP4 DUP3 SWAP1 PUSH1 0x0 MSTORE PUSH1 0x20 PUSH1 0x0 KECCAK256 SWAP1 PUSH1 0x6 MUL ADD PUSH1 0x40 MLOAD DUP1 PUSH1 0xC0 ADD PUSH1 0x40 MSTORE SWAP1 DUP2 PUSH1 0x0 DUP3 ADD SLOAD DUP2 MSTORE PUSH1 0x20 ADD PUSH1 0x1 DUP3 ADD PUSH1 0x0 SWAP1 SLOAD SWAP1 PUSH2 0x100 EXP SWAP1 DIV PUSH20 0xFFFFFFFFFFFFFFFFFFFFFFFFFFFFFFFFFFFFFFFF AND PUSH20 0xFFFFFFFFFFFFFFFFFFFFFFFFFFFFFFFFFFFFFFFF AND PUSH20 0xFFFFFFFFFFFFFFFFFFFFFFFFFFFFFFFFFFFFFFFF AND DUP2 MSTORE PUSH1 0x20 ADD PUSH1 0x2 DUP3 ADD DUP1 SLOAD PUSH2 0x12C SWAP1 PUSH2 0xC19 JUMP JUMPDEST DUP1 PUSH1 0x1F ADD PUSH1 0x20 DUP1 SWAP2 DIV MUL PUSH1 0x20 ADD PUSH1 0x40 MLOAD SWAP1 DUP2 ADD PUSH1 0x40 MSTORE DUP1 SWAP3 SWAP2 SWAP1 DUP2 DUP2 MSTORE PUSH1 0x20 ADD DUP3 DUP1 SLOAD PUSH2 0x158 SWAP1 PUSH2 0xC19 JUMP JUMPDEST DUP1 ISZERO PUSH2 0x1A5 JUMPI DUP1 PUSH1 0x1F LT PUSH2 0x17A JUMPI PUSH2 0x100 DUP1 DUP4 SLOAD DIV MUL DUP4 MSTORE SWAP2 PUSH1 0x20 ADD SWAP2 PUSH2 0x1A5 JUMP JUMPDEST DUP3 ADD SWAP2 SWAP1 PUSH1 0x0 MSTORE PUSH1 0x20 PUSH1 0x0 KECCAK256 SWAP1 JUMPDEST DUP2 SLOAD DUP2 MSTORE SWAP1 PUSH1 0x1 ADD SWAP1 PUSH1 0x20 ADD DUP1 DUP4 GT PUSH2 0x188 JUMPI DUP3 SWAP1 SUB PUSH1 0x1F AND DUP3 ADD SWAP2 JUMPDEST POP POP POP POP POP DUP2 MSTORE PUSH1 0x20 ADD PUSH1 0x3 DUP3 ADD DUP1 SLOAD PUSH2 0x1BE SWAP1 PUSH2 0xC19 JUMP JUMPDEST DUP1 PUSH1 0x1F ADD PUSH1 0x20 DUP1 SWAP2 DIV MUL PUSH1 0x20 ADD PUSH1 0x40 MLOAD SWAP1 DUP2 ADD PUSH1 0x40 MSTORE DUP1 SWAP3 SWAP2 SWAP1 DUP2 DUP2 MSTORE PUSH1 0x20 ADD DUP3 DUP1 SLOAD PUSH2 0x1EA SWAP1 PUSH2 0xC19 JUMP JUMPDEST DUP1 ISZERO PUSH2 0x237 JUMPI DUP1 PUSH1 0x1F LT PUSH2 0x20C JUMPI PUSH2 0x100 DUP1 DUP4 SLOAD DIV MUL DUP4 MSTORE SWAP2 PUSH1 0x20 ADD SWAP2 PUSH2 0x237 JUMP JUMPDEST DUP3 ADD SWAP2 SWAP1 PUSH1 0x0 MSTORE PUSH1 0x20 PUSH1 0x0 KECCAK256 SWAP1 JUMPDEST DUP2 SLOAD DUP2 MSTORE SWAP1 PUSH1 0x1 ADD SWAP1 PUSH1 0x20 ADD DUP1 DUP4 GT PUSH2 0x21A JUMPI DUP3 SWAP1 SUB PUSH1 0x1F AND DUP3 ADD SWAP2 JUMPDEST POP POP POP POP POP DUP2 MSTORE PUSH1 0x20 ADD PUSH1 0x4 DUP3 ADD SLOAD DUP2 MSTORE PUSH1 0x20 ADD PUSH1 0x5 DUP3 ADD DUP1 SLOAD DUP1 PUSH1 0x20 MUL PUSH1 0x20 ADD PUSH1 0x40 MLOAD SWAP1 DUP2 ADD PUSH1 0x40 MSTORE DUP1 SWAP3 SWAP2 SWAP1 DUP2 DUP2 MSTORE PUSH1 0x20 ADD PUSH1 0x0 SWAP1 JUMPDEST DUP3 DUP3 LT ISZERO PUSH2 0x31B JUMPI DUP4 DUP3 SWAP1 PUSH1 0x0 MSTORE PUSH1 0x20 PUSH1 0x0 KECCAK256 ADD DUP1 SLOAD PUSH2 0x28E SWAP1 PUSH2 0xC19 JUMP JUMPDEST DUP1 PUSH1 0x1F ADD PUSH1 0x20 DUP1 SWAP2 DIV MUL PUSH1 0x20 ADD PUSH1 0x40 MLOAD SWAP1 DUP2 ADD PUSH1 0x40 MSTORE DUP1 SWAP3 SWAP2 SWAP1 DUP2 DUP2 MSTORE PUSH1 0x20 ADD DUP3 DUP1 SLOAD PUSH2 0x2BA SWAP1 PUSH2 0xC19 JUMP JUMPDEST DUP1 ISZERO PUSH2 0x307 JUMPI DUP1 PUSH1 0x1F LT PUSH2 0x2DC JUMPI PUSH2 0x100 DUP1 DUP4 SLOAD DIV MUL DUP4 MSTORE SWAP2 PUSH1 0x20 ADD SWAP2 PUSH2 0x307 JUMP JUMPDEST DUP3 ADD SWAP2 SWAP1 PUSH1 0x0 MSTORE PUSH1 0x20 PUSH1 0x0 KECCAK256 SWAP1 JUMPDEST DUP2 SLOAD DUP2 MSTORE SWAP1 PUSH1 0x1 ADD SWAP1 PUSH1 0x20 ADD DUP1 DUP4 GT PUSH2 0x2EA JUMPI DUP3 SWAP1 SUB PUSH1 0x1F AND DUP3 ADD SWAP2 JUMPDEST POP POP POP POP POP DUP2 MSTORE PUSH1 0x20 ADD SWAP1 PUSH1 0x1 ADD SWAP1 PUSH2 0x26F JUMP JUMPDEST POP POP POP POP DUP2 MSTORE POP POP DUP2 MSTORE PUSH1 0x20 ADD SWAP1 PUSH1 0x1 ADD SWAP1 PUSH2 0x99 JUMP JUMPDEST POP POP POP POP SWAP1 POP SWAP1 JUMP JUMPDEST PUSH1 0x0 NUMBER SWAP1 POP PUSH1 0x0 PUSH1 0x40 MLOAD DUP1 PUSH1 0xC0 ADD PUSH1 0x40 MSTORE DUP1 DUP4 DUP2 MSTORE PUSH1 0x20 ADD DUP9 PUSH20 0xFFFFFFFFFFFFFFFFFFFFFFFFFFFFFFFFFFFFFFFF AND DUP2 MSTORE PUSH1 0x20 ADD DUP8 DUP2 MSTORE PUSH1 0x20 ADD DUP7 DUP2 MSTORE PUSH1 0x20 ADD DUP6 DUP2 MSTORE PUSH1 0x20 ADD DUP5 DUP2 MSTORE POP SWAP1 DUP1 PUSH1 0x1 DUP2 SLOAD ADD DUP1 DUP3 SSTORE DUP1 SWAP2 POP POP PUSH1 0x1 SWAP1 SUB SWAP1 PUSH1 0x0 MSTORE PUSH1 0x20 PUSH1 0x0 KECCAK256 SWAP1 PUSH1 0x6 MUL ADD PUSH1 0x0 SWAP1 SWAP2 SWAP1 SWAP2 SWAP1 SWAP2 POP PUSH1 0x0 DUP3 ADD MLOAD DUP2 PUSH1 0x0 ADD SSTORE PUSH1 0x20 DUP3 ADD MLOAD DUP2 PUSH1 0x1 ADD PUSH1 0x0 PUSH2 0x100 EXP DUP2 SLOAD DUP2 PUSH20 0xFFFFFFFFFFFFFFFFFFFFFFFFFFFFFFFFFFFFFFFF MUL NOT AND SWAP1 DUP4 PUSH20 0xFFFFFFFFFFFFFFFFFFFFFFFFFFFFFFFFFFFFFFFF AND MUL OR SWAP1 SSTORE POP PUSH1 0x40 DUP3 ADD MLOAD DUP2 PUSH1 0x2 ADD SWAP1 DUP2 PUSH2 0x414 SWAP2 SWAP1 PUSH2 0xDF6 JUMP JUMPDEST POP PUSH1 0x60 DUP3 ADD MLOAD DUP2 PUSH1 0x3 ADD SWAP1 DUP2 PUSH2 0x42A SWAP2 SWAP1 PUSH2 0xDF6 JUMP JUMPDEST POP PUSH1 0x80 DUP3 ADD MLOAD DUP2 PUSH1 0x4 ADD SSTORE PUSH1 0xA0 DUP3 ADD MLOAD DUP2 PUSH1 0x5 ADD SWAP1 DUP1 MLOAD SWAP1 PUSH1 0x20 ADD SWAP1 PUSH2 0x451 SWAP3 SWAP2 SWAP1 PUSH2 0x493 JUMP JUMPDEST POP POP POP PUSH32 0xB60E72CCF6D57AB53EB84D7E94A9545806ED7F93C4D5673F11A64F03471E584E DUP2 PUSH1 0x40 MLOAD PUSH2 0x483 SWAP2 SWAP1 PUSH2 0xF34 JUMP JUMPDEST PUSH1 0x40 MLOAD DUP1 SWAP2 SUB SWAP1 LOG1 POP POP POP POP POP POP JUMP JUMPDEST DUP3 DUP1 SLOAD DUP3 DUP3 SSTORE SWAP1 PUSH1 0x0 MSTORE PUSH1 0x20 PUSH1 0x0 KECCAK256 SWAP1 DUP2 ADD SWAP3 DUP3 ISZERO PUSH2 0x4DB JUMPI SWAP2 PUSH1 0x20 MUL DUP3 ADD JUMPDEST DUP3 DUP2 GT ISZERO PUSH2 0x4DA JUMPI DUP3 MLOAD DUP3 SWAP1 DUP2 PUSH2 0x4CA SWAP2 SWAP1 PUSH2 0xDF6 JUMP JUMPDEST POP SWAP2 PUSH1 0x20 ADD SWAP2 SWAP1 PUSH1 0x1 ADD SWAP1 PUSH2 0x4B3 JUMP JUMPDEST JUMPDEST POP SWAP1 POP PUSH2 0x4E8 SWAP2 SWAP1 PUSH2 0x4EC JUMP JUMPDEST POP SWAP1 JUMP JUMPDEST JUMPDEST DUP1 DUP3 GT ISZERO PUSH2 0x50C JUMPI PUSH1 0x0 DUP2 DUP2 PUSH2 0x503 SWAP2 SWAP1 PUSH2 0x510 JUMP JUMPDEST POP PUSH1 0x1 ADD PUSH2 0x4ED JUMP JUMPDEST POP SWAP1 JUMP JUMPDEST POP DUP1 SLOAD PUSH2 0x51C SWAP1 PUSH2 0xC19 JUMP JUMPDEST PUSH1 0x0 DUP3 SSTORE DUP1 PUSH1 0x1F LT PUSH2 0x52E JUMPI POP PUSH2 0x54D JUMP JUMPDEST PUSH1 0x1F ADD PUSH1 0x20 SWAP1 DIV SWAP1 PUSH1 0x0 MSTORE PUSH1 0x20 PUSH1 0x0 KECCAK256 SWAP1 DUP2 ADD SWAP1 PUSH2 0x54C SWAP2 SWAP1 PUSH2 0x550 JUMP JUMPDEST JUMPDEST POP JUMP JUMPDEST JUMPDEST DUP1 DUP3 GT ISZERO PUSH2 0x569 JUMPI PUSH1 0x0 DUP2 PUSH1 0x0 SWAP1 SSTORE POP PUSH1 0x1 ADD PUSH2 0x551 JUMP JUMPDEST POP SWAP1 JUMP JUMPDEST PUSH1 0x0 DUP2 MLOAD SWAP1 POP SWAP2 SWAP1 POP JUMP JUMPDEST PUSH1 0x0 DUP3 DUP3 MSTORE PUSH1 0x20 DUP3 ADD SWAP1 POP SWAP3 SWAP2 POP POP JUMP JUMPDEST PUSH1 0x0 DUP2 SWAP1 POP PUSH1 0x20 DUP3 ADD SWAP1 POP SWAP2 SWAP1 POP JUMP JUMPDEST PUSH1 0x0 DUP2 SWAP1 POP SWAP2 SWAP1 POP JUMP JUMPDEST PUSH2 0x5AC DUP2 PUSH2 0x599 JUMP JUMPDEST DUP3 MSTORE POP POP JUMP JUMPDEST PUSH1 0x0 PUSH20 0xFFFFFFFFFFFFFFFFFFFFFFFFFFFFFFFFFFFFFFFF DUP3 AND SWAP1 POP SWAP2 SWAP1 POP JUMP JUMPDEST PUSH1 0x0 PUSH2 0x5DD DUP3 PUSH2 0x5B2 JUMP JUMPDEST SWAP1 POP SWAP2 SWAP1 POP JUMP JUMPDEST PUSH2 0x5ED DUP2 PUSH2 0x5D2 JUMP JUMPDEST DUP3 MSTORE POP POP JUMP JUMPDEST PUSH1 0x0 DUP2 MLOAD SWAP1 POP SWAP2 SWAP1 POP JUMP JUMPDEST PUSH1 0x0 DUP3 DUP3 MSTORE PUSH1 0x20 DUP3 ADD SWAP1 POP SWAP3 SWAP2 POP POP JUMP JUMPDEST PUSH1 0x0 JUMPDEST DUP4 DUP2 LT ISZERO PUSH2 0x62D JUMPI DUP1 DUP3 ADD MLOAD DUP2 DUP5 ADD MSTORE PUSH1 0x20 DUP2 ADD SWAP1 POP PUSH2 0x612 JUMP JUMPDEST PUSH1 0x0 DUP5 DUP5 ADD MSTORE POP POP POP POP JUMP JUMPDEST PUSH1 0x0 PUSH1 0x1F NOT PUSH1 0x1F DUP4 ADD AND SWAP1 POP SWAP2 SWAP1 POP JUMP JUMPDEST PUSH1 0x0 PUSH2 0x655 DUP3 PUSH2 0x5F3 JUMP JUMPDEST PUSH2 0x65F DUP2 DUP6 PUSH2 0x5FE JUMP JUMPDEST SWAP4 POP PUSH2 0x66F DUP2 DUP6 PUSH1 0x20 DUP7 ADD PUSH2 0x60F JUMP JUMPDEST PUSH2 0x678 DUP2 PUSH2 0x639 JUMP JUMPDEST DUP5 ADD SWAP2 POP POP SWAP3 SWAP2 POP POP JUMP JUMPDEST PUSH1 0x0 DUP2 MLOAD SWAP1 POP SWAP2 SWAP1 POP JUMP JUMPDEST PUSH1 0x0 DUP3 DUP3 MSTORE PUSH1 0x20 DUP3 ADD SWAP1 POP SWAP3 SWAP2 POP POP JUMP JUMPDEST PUSH1 0x0 DUP2 SWAP1 POP PUSH1 0x20 DUP3 ADD SWAP1 POP SWAP2 SWAP1 POP JUMP JUMPDEST PUSH1 0x0 PUSH2 0x6BB DUP4 DUP4 PUSH2 0x64A JUMP JUMPDEST SWAP1 POP SWAP3 SWAP2 POP POP JUMP JUMPDEST PUSH1 0x0 PUSH1 0x20 DUP3 ADD SWAP1 POP SWAP2 SWAP1 POP JUMP JUMPDEST PUSH1 0x0 PUSH2 0x6DB DUP3 PUSH2 0x683 JUMP JUMPDEST PUSH2 0x6E5 DUP2 DUP6 PUSH2 0x68E JUMP JUMPDEST SWAP4 POP DUP4 PUSH1 0x20 DUP3 MUL DUP6 ADD PUSH2 0x6F7 DUP6 PUSH2 0x69F JUMP JUMPDEST DUP1 PUSH1 0x0 JUMPDEST DUP6 DUP2 LT ISZERO PUSH2 0x733 JUMPI DUP5 DUP5 SUB DUP10 MSTORE DUP2 MLOAD PUSH2 0x714 DUP6 DUP3 PUSH2 0x6AF JUMP JUMPDEST SWAP5 POP PUSH2 0x71F DUP4 PUSH2 0x6C3 JUMP JUMPDEST SWAP3 POP PUSH1 0x20 DUP11 ADD SWAP10 POP POP PUSH1 0x1 DUP2 ADD SWAP1 POP PUSH2 0x6FB JUMP JUMPDEST POP DUP3 SWAP8 POP DUP8 SWAP6 POP POP POP POP POP POP SWAP3 SWAP2 POP POP JUMP JUMPDEST PUSH1 0x0 PUSH1 0xC0 DUP4 ADD PUSH1 0x0 DUP4 ADD MLOAD PUSH2 0x75D PUSH1 0x0 DUP7 ADD DUP3 PUSH2 0x5A3 JUMP JUMPDEST POP PUSH1 0x20 DUP4 ADD MLOAD PUSH2 0x770 PUSH1 0x20 DUP7 ADD DUP3 PUSH2 0x5E4 JUMP JUMPDEST POP PUSH1 0x40 DUP4 ADD MLOAD DUP5 DUP3 SUB PUSH1 0x40 DUP7 ADD MSTORE PUSH2 0x788 DUP3 DUP3 PUSH2 0x64A JUMP JUMPDEST SWAP2 POP POP PUSH1 0x60 DUP4 ADD MLOAD DUP5 DUP3 SUB PUSH1 0x60 DUP7 ADD MSTORE PUSH2 0x7A2 DUP3 DUP3 PUSH2 0x64A JUMP JUMPDEST SWAP2 POP POP PUSH1 0x80 DUP4 ADD MLOAD PUSH2 0x7B7 PUSH1 0x80 DUP7 ADD DUP3 PUSH2 0x5A3 JUMP JUMPDEST POP PUSH1 0xA0 DUP4 ADD MLOAD DUP5 DUP3 SUB PUSH1 0xA0 DUP7 ADD MSTORE PUSH2 0x7CF DUP3 DUP3 PUSH2 0x6D0 JUMP JUMPDEST SWAP2 POP POP DUP1 SWAP2 POP POP SWAP3 SWAP2 POP POP JUMP JUMPDEST PUSH1 0x0 PUSH2 0x7E8 DUP4 DUP4 PUSH2 0x745 JUMP JUMPDEST SWAP1 POP SWAP3 SWAP2 POP POP JUMP JUMPDEST PUSH1 0x0 PUSH1 0x20 DUP3 ADD SWAP1 POP SWAP2 SWAP1 POP JUMP JUMPDEST PUSH1 0x0 PUSH2 0x808 DUP3 PUSH2 0x56D JUMP JUMPDEST PUSH2 0x812 DUP2 DUP6 PUSH2 0x578 JUMP JUMPDEST SWAP4 POP DUP4 PUSH1 0x20 DUP3 MUL DUP6 ADD PUSH2 0x824 DUP6 PUSH2 0x589 JUMP JUMPDEST DUP1 PUSH1 0x0 JUMPDEST DUP6 DUP2 LT ISZERO PUSH2 0x860 JUMPI DUP5 DUP5 SUB DUP10 MSTORE DUP2 MLOAD PUSH2 0x841 DUP6 DUP3 PUSH2 0x7DC JUMP JUMPDEST SWAP5 POP PUSH2 0x84C DUP4 PUSH2 0x7F0 JUMP JUMPDEST SWAP3 POP PUSH1 0x20 DUP11 ADD SWAP10 POP POP PUSH1 0x1 DUP2 ADD SWAP1 POP PUSH2 0x828 JUMP JUMPDEST POP DUP3 SWAP8 POP DUP8 SWAP6 POP POP POP POP POP POP SWAP3 SWAP2 POP POP JUMP JUMPDEST PUSH1 0x0 PUSH1 0x20 DUP3 ADD SWAP1 POP DUP2 DUP2 SUB PUSH1 0x0 DUP4 ADD MSTORE PUSH2 0x88C DUP2 DUP5 PUSH2 0x7FD JUMP JUMPDEST SWAP1 POP SWAP3 SWAP2 POP POP JUMP JUMPDEST PUSH1 0x0 PUSH1 0x40 MLOAD SWAP1 POP SWAP1 JUMP JUMPDEST PUSH1 0x0 DUP1 REVERT JUMPDEST PUSH1 0x0 DUP1 REVERT JUMPDEST PUSH2 0x8B1 DUP2 PUSH2 0x5D2 JUMP JUMPDEST DUP2 EQ PUSH2 0x8BC JUMPI PUSH1 0x0 DUP1 REVERT JUMPDEST POP JUMP JUMPDEST PUSH1 0x0 DUP2 CALLDATALOAD SWAP1 POP PUSH2 0x8CE DUP2 PUSH2 0x8A8 JUMP JUMPDEST SWAP3 SWAP2 POP POP JUMP JUMPDEST PUSH1 0x0 DUP1 REVERT JUMPDEST PUSH1 0x0 DUP1 REVERT JUMPDEST PUSH32 0x4E487B7100000000000000000000000000000000000000000000000000000000 PUSH1 0x0 MSTORE PUSH1 0x41 PUSH1 0x4 MSTORE PUSH1 0x24 PUSH1 0x0 REVERT JUMPDEST PUSH2 0x916 DUP3 PUSH2 0x639 JUMP JUMPDEST DUP2 ADD DUP2 DUP2 LT PUSH8 0xFFFFFFFFFFFFFFFF DUP3 GT OR ISZERO PUSH2 0x935 JUMPI PUSH2 0x934 PUSH2 0x8DE JUMP JUMPDEST JUMPDEST DUP1 PUSH1 0x40 MSTORE POP POP POP JUMP JUMPDEST PUSH1 0x0 PUSH2 0x948 PUSH2 0x894 JUMP JUMPDEST SWAP1 POP PUSH2 0x954 DUP3 DUP3 PUSH2 0x90D JUMP JUMPDEST SWAP2 SWAP1 POP JUMP JUMPDEST PUSH1 0x0 PUSH8 0xFFFFFFFFFFFFFFFF DUP3 GT ISZERO PUSH2 0x974 JUMPI PUSH2 0x973 PUSH2 0x8DE JUMP JUMPDEST JUMPDEST PUSH2 0x97D DUP3 PUSH2 0x639 JUMP JUMPDEST SWAP1 POP PUSH1 0x20 DUP2 ADD SWAP1 POP SWAP2 SWAP1 POP JUMP JUMPDEST DUP3 DUP2 DUP4 CALLDATACOPY PUSH1 0x0 DUP4 DUP4 ADD MSTORE POP POP POP JUMP JUMPDEST PUSH1 0x0 PUSH2 0x9AC PUSH2 0x9A7 DUP5 PUSH2 0x959 JUMP JUMPDEST PUSH2 0x93E JUMP JUMPDEST SWAP1 POP DUP3 DUP2 MSTORE PUSH1 0x20 DUP2 ADD DUP5 DUP5 DUP5 ADD GT ISZERO PUSH2 0x9C8 JUMPI PUSH2 0x9C7 PUSH2 0x8D9 JUMP JUMPDEST JUMPDEST PUSH2 0x9D3 DUP5 DUP3 DUP6 PUSH2 0x98A JUMP JUMPDEST POP SWAP4 SWAP3 POP POP POP JUMP JUMPDEST PUSH1 0x0 DUP3 PUSH1 0x1F DUP4 ADD SLT PUSH2 0x9F0 JUMPI PUSH2 0x9EF PUSH2 0x8D4 JUMP JUMPDEST JUMPDEST DUP2 CALLDATALOAD PUSH2 0xA00 DUP5 DUP3 PUSH1 0x20 DUP7 ADD PUSH2 0x999 JUMP JUMPDEST SWAP2 POP POP SWAP3 SWAP2 POP POP JUMP JUMPDEST PUSH2 0xA12 DUP2 PUSH2 0x599 JUMP JUMPDEST DUP2 EQ PUSH2 0xA1D JUMPI PUSH1 0x0 DUP1 REVERT JUMPDEST POP JUMP JUMPDEST PUSH1 0x0 DUP2 CALLDATALOAD SWAP1 POP PUSH2 0xA2F DUP2 PUSH2 0xA09 JUMP JUMPDEST SWAP3 SWAP2 POP POP JUMP JUMPDEST PUSH1 0x0 PUSH8 0xFFFFFFFFFFFFFFFF DUP3 GT ISZERO PUSH2 0xA50 JUMPI PUSH2 0xA4F PUSH2 0x8DE JUMP JUMPDEST JUMPDEST PUSH1 0x20 DUP3 MUL SWAP1 POP PUSH1 0x20 DUP2 ADD SWAP1 POP SWAP2 SWAP1 POP JUMP JUMPDEST PUSH1 0x0 DUP1 REVERT JUMPDEST PUSH1 0x0 PUSH2 0xA79 PUSH2 0xA74 DUP5 PUSH2 0xA35 JUMP JUMPDEST PUSH2 0x93E JUMP JUMPDEST SWAP1 POP DUP1 DUP4 DUP3 MSTORE PUSH1 0x20 DUP3 ADD SWAP1 POP PUSH1 0x20 DUP5 MUL DUP4 ADD DUP6 DUP2 GT ISZERO PUSH2 0xA9C JUMPI PUSH2 0xA9B PUSH2 0xA61 JUMP JUMPDEST JUMPDEST DUP4 JUMPDEST DUP2 DUP2 LT ISZERO PUSH2 0xAE3 JUMPI DUP1 CALLDATALOAD PUSH8 0xFFFFFFFFFFFFFFFF DUP2 GT ISZERO PUSH2 0xAC1 JUMPI PUSH2 0xAC0 PUSH2 0x8D4 JUMP JUMPDEST JUMPDEST DUP1 DUP7 ADD PUSH2 0xACE DUP10 DUP3 PUSH2 0x9DB JUMP JUMPDEST DUP6 MSTORE PUSH1 0x20 DUP6 ADD SWAP5 POP POP POP PUSH1 0x20 DUP2 ADD SWAP1 POP PUSH2 0xA9E JUMP JUMPDEST POP POP POP SWAP4 SWAP3 POP POP POP JUMP JUMPDEST PUSH1 0x0 DUP3 PUSH1 0x1F DUP4 ADD SLT PUSH2 0xB02 JUMPI PUSH2 0xB01 PUSH2 0x8D4 JUMP JUMPDEST JUMPDEST DUP2 CALLDATALOAD PUSH2 0xB12 DUP5 DUP3 PUSH1 0x20 DUP7 ADD PUSH2 0xA66 JUMP JUMPDEST SWAP2 POP POP SWAP3 SWAP2 POP POP JUMP JUMPDEST PUSH1 0x0 DUP1 PUSH1 0x0 DUP1 PUSH1 0x0 PUSH1 0xA0 DUP7 DUP9 SUB SLT ISZERO PUSH2 0xB37 JUMPI PUSH2 0xB36 PUSH2 0x89E JUMP JUMPDEST JUMPDEST PUSH1 0x0 PUSH2 0xB45 DUP9 DUP3 DUP10 ADD PUSH2 0x8BF JUMP JUMPDEST SWAP6 POP POP PUSH1 0x20 DUP7 ADD CALLDATALOAD PUSH8 0xFFFFFFFFFFFFFFFF DUP2 GT ISZERO PUSH2 0xB66 JUMPI PUSH2 0xB65 PUSH2 0x8A3 JUMP JUMPDEST JUMPDEST PUSH2 0xB72 DUP9 DUP3 DUP10 ADD PUSH2 0x9DB JUMP JUMPDEST SWAP5 POP POP PUSH1 0x40 DUP7 ADD CALLDATALOAD PUSH8 0xFFFFFFFFFFFFFFFF DUP2 GT ISZERO PUSH2 0xB93 JUMPI PUSH2 0xB92 PUSH2 0x8A3 JUMP JUMPDEST JUMPDEST PUSH2 0xB9F DUP9 DUP3 DUP10 ADD PUSH2 0x9DB JUMP JUMPDEST SWAP4 POP POP PUSH1 0x60 PUSH2 0xBB0 DUP9 DUP3 DUP10 ADD PUSH2 0xA20 JUMP JUMPDEST SWAP3 POP POP PUSH1 0x80 DUP7 ADD CALLDATALOAD PUSH8 0xFFFFFFFFFFFFFFFF DUP2 GT ISZERO PUSH2 0xBD1 JUMPI PUSH2 0xBD0 PUSH2 0x8A3 JUMP JUMPDEST JUMPDEST PUSH2 0xBDD DUP9 DUP3 DUP10 ADD PUSH2 0xAED JUMP JUMPDEST SWAP2 POP POP SWAP3 SWAP6 POP SWAP3 SWAP6 SWAP1 SWAP4 POP JUMP JUMPDEST PUSH32 0x4E487B7100000000000000000000000000000000000000000000000000000000 PUSH1 0x0 MSTORE PUSH1 0x22 PUSH1 0x4 MSTORE PUSH1 0x24 PUSH1 0x0 REVERT JUMPDEST PUSH1 0x0 PUSH1 0x2 DUP3 DIV SWAP1 POP PUSH1 0x1 DUP3 AND DUP1 PUSH2 0xC31 JUMPI PUSH1 0x7F DUP3 AND SWAP2 POP JUMPDEST PUSH1 0x20 DUP3 LT DUP2 SUB PUSH2 0xC44 JUMPI PUSH2 0xC43 PUSH2 0xBEA JUMP JUMPDEST JUMPDEST POP SWAP2 SWAP1 POP JUMP JUMPDEST PUSH1 0x0 DUP2 SWAP1 POP DUP2 PUSH1 0x0 MSTORE PUSH1 0x20 PUSH1 0x0 KECCAK256 SWAP1 POP SWAP2 SWAP1 POP JUMP JUMPDEST PUSH1 0x0 PUSH1 0x20 PUSH1 0x1F DUP4 ADD DIV SWAP1 POP SWAP2 SWAP1 POP JUMP JUMPDEST PUSH1 0x0 DUP3 DUP3 SHL SWAP1 POP SWAP3 SWAP2 POP POP JUMP JUMPDEST PUSH1 0x0 PUSH1 0x8 DUP4 MUL PUSH2 0xCAC PUSH32 0xFFFFFFFFFFFFFFFFFFFFFFFFFFFFFFFFFFFFFFFFFFFFFFFFFFFFFFFFFFFFFFFF DUP3 PUSH2 0xC6F JUMP JUMPDEST PUSH2 0xCB6 DUP7 DUP4 PUSH2 0xC6F JUMP JUMPDEST SWAP6 POP DUP1 NOT DUP5 AND SWAP4 POP DUP1 DUP7 AND DUP5 OR SWAP3 POP POP POP SWAP4 SWAP3 POP POP POP JUMP JUMPDEST PUSH1 0x0 DUP2 SWAP1 POP SWAP2 SWAP1 POP JUMP JUMPDEST PUSH1 0x0 PUSH2 0xCF3 PUSH2 0xCEE PUSH2 0xCE9 DUP5 PUSH2 0x599 JUMP JUMPDEST PUSH2 0xCCE JUMP JUMPDEST PUSH2 0x599 JUMP JUMPDEST SWAP1 POP SWAP2 SWAP1 POP JUMP JUMPDEST PUSH1 0x0 DUP2 SWAP1 POP SWAP2 SWAP1 POP JUMP JUMPDEST PUSH2 0xD0D DUP4 PUSH2 0xCD8 JUMP JUMPDEST PUSH2 0xD21 PUSH2 0xD19 DUP3 PUSH2 0xCFA JUMP JUMPDEST DUP5 DUP5 SLOAD PUSH2 0xC7C JUMP JUMPDEST DUP3 SSTORE POP POP POP POP JUMP JUMPDEST PUSH1 0x0 SWAP1 JUMP JUMPDEST PUSH2 0xD36 PUSH2 0xD29 JUMP JUMPDEST PUSH2 0xD41 DUP2 DUP5 DUP5 PUSH2 0xD04 JUMP JUMPDEST POP POP POP JUMP JUMPDEST JUMPDEST DUP2 DUP2 LT ISZERO PUSH2 0xD65 JUMPI PUSH2 0xD5A PUSH1 0x0 DUP3 PUSH2 0xD2E JUMP JUMPDEST PUSH1 0x1 DUP2 ADD SWAP1 POP PUSH2 0xD47 JUMP JUMPDEST POP POP JUMP JUMPDEST PUSH1 0x1F DUP3 GT ISZERO PUSH2 0xDAA JUMPI PUSH2 0xD7B DUP2 PUSH2 0xC4A JUMP JUMPDEST PUSH2 0xD84 DUP5 PUSH2 0xC5F JUMP JUMPDEST DUP2 ADD PUSH1 0x20 DUP6 LT ISZERO PUSH2 0xD93 JUMPI DUP2 SWAP1 POP JUMPDEST PUSH2 0xDA7 PUSH2 0xD9F DUP6 PUSH2 0xC5F JUMP JUMPDEST DUP4 ADD DUP3 PUSH2 0xD46 JUMP JUMPDEST POP POP JUMPDEST POP POP POP JUMP JUMPDEST PUSH1 0x0 DUP3 DUP3 SHR SWAP1 POP SWAP3 SWAP2 POP POP JUMP JUMPDEST PUSH1 0x0 PUSH2 0xDCD PUSH1 0x0 NOT DUP5 PUSH1 0x8 MUL PUSH2 0xDAF JUMP JUMPDEST NOT DUP1 DUP4 AND SWAP2 POP POP SWAP3 SWAP2 POP POP JUMP JUMPDEST PUSH1 0x0 PUSH2 0xDE6 DUP4 DUP4 PUSH2 0xDBC JUMP JUMPDEST SWAP2 POP DUP3 PUSH1 0x2 MUL DUP3 OR SWAP1 POP SWAP3 SWAP2 POP POP JUMP JUMPDEST PUSH2 0xDFF DUP3 PUSH2 0x5F3 JUMP JUMPDEST PUSH8 0xFFFFFFFFFFFFFFFF DUP2 GT ISZERO PUSH2 0xE18 JUMPI PUSH2 0xE17 PUSH2 0x8DE JUMP JUMPDEST JUMPDEST PUSH2 0xE22 DUP3 SLOAD PUSH2 0xC19 JUMP JUMPDEST PUSH2 0xE2D DUP3 DUP3 DUP6 PUSH2 0xD69 JUMP JUMPDEST PUSH1 0x0 PUSH1 0x20 SWAP1 POP PUSH1 0x1F DUP4 GT PUSH1 0x1 DUP2 EQ PUSH2 0xE60 JUMPI PUSH1 0x0 DUP5 ISZERO PUSH2 0xE4E JUMPI DUP3 DUP8 ADD MLOAD SWAP1 POP JUMPDEST PUSH2 0xE58 DUP6 DUP3 PUSH2 0xDDA JUMP JUMPDEST DUP7 SSTORE POP PUSH2 0xEC0 JUMP JUMPDEST PUSH1 0x1F NOT DUP5 AND PUSH2 0xE6E DUP7 PUSH2 0xC4A JUMP JUMPDEST PUSH1 0x0 JUMPDEST DUP3 DUP2 LT ISZERO PUSH2 0xE96 JUMPI DUP5 DUP10 ADD MLOAD DUP3 SSTORE PUSH1 0x1 DUP3 ADD SWAP2 POP PUSH1 0x20 DUP6 ADD SWAP5 POP PUSH1 0x20 DUP2 ADD SWAP1 POP PUSH2 0xE71 JUMP JUMPDEST DUP7 DUP4 LT ISZERO PUSH2 0xEB3 JUMPI DUP5 DUP10 ADD MLOAD PUSH2 0xEAF PUSH1 0x1F DUP10 AND DUP3 PUSH2 0xDBC JUMP JUMPDEST DUP4 SSTORE POP JUMPDEST PUSH1 0x1 PUSH1 0x2 DUP9 MUL ADD DUP9 SSTORE POP POP POP JUMPDEST POP POP POP POP POP POP JUMP JUMPDEST PUSH1 0x0 DUP3 DUP3 MSTORE PUSH1 0x20 DUP3 ADD SWAP1 POP SWAP3 SWAP2 POP POP JUMP JUMPDEST PUSH32 0x202D2D2D2D2D2D2D2D2D2D626C6F636B206E756D6265723A0000000000000000 PUSH1 0x0 DUP3 ADD MSTORE POP JUMP JUMPDEST PUSH1 0x0 PUSH2 0xF0F PUSH1 0x18 DUP4 PUSH2 0xEC8 JUMP JUMPDEST SWAP2 POP PUSH2 0xF1A DUP3 PUSH2 0xED9 JUMP JUMPDEST PUSH1 0x20 DUP3 ADD SWAP1 POP SWAP2 SWAP1 POP JUMP JUMPDEST PUSH2 0xF2E DUP2 PUSH2 0x599 JUMP JUMPDEST DUP3 MSTORE POP POP JUMP JUMPDEST PUSH1 0x0 PUSH1 0x40 DUP3 ADD SWAP1 POP DUP2 DUP2 SUB PUSH1 0x0 DUP4 ADD MSTORE PUSH2 0xF4D DUP2 PUSH2 0xF02 JUMP JUMPDEST SWAP1 POP PUSH2 0xF5C PUSH1 0x20 DUP4 ADD DUP5 PUSH2 0xF25 JUMP JUMPDEST SWAP3 SWAP2 POP POP JUMP INVALID LOG2 PUSH5 0x6970667358 0x22 SLT KECCAK256 0xF 0xBF RETURN BYTE PUSH11 0x8D244215053FCE587FFF91 PUSH12 0x62EAD5A14FBCEB0FB2348F9F 0x5D 0xAC 0xB5 PUSH5 0x736F6C6343 STOP ADDMOD SLT STOP CALLER "
				},
				"gasEstimates": {
					"creation": {
						"codeDepositCost": "798400",
						"executionCost": "831",
						"totalCost": "799231"
					},
					"external": {
						"addDataPurpose(address,string,string,uint256,string[])": "infinite",
						"getDataPurposes()": "infinite"
					}
				},
				"methodIdentifiers": {
					"addDataPurpose(address,string,string,uint256,string[])": "d2fa54b1",
					"getDataPurposes()": "8ab5af6b"
				}
			},
			"storageLayout": {
				"storage": [
					{
						"astId": 25,
						"contract": "project3.0 final/DataUsage3.0.sol:DataUsage",
						"label": "dataPurposes",
						"offset": 0,
						"slot": "0",
						"type": "t_array(t_struct(DataPurpose)15_storage)dyn_storage"
					}
				],
				"types": {
					"t_address": {
						"encoding": "inplace",
						"label": "address",
						"numberOfBytes": "20"
					},
					"t_array(t_string_storage)dyn_storage": {
						"base": "t_string_storage",
						"encoding": "dynamic_array",
						"label": "string[]",
						"numberOfBytes": "32"
					},
					"t_array(t_struct(DataPurpose)15_storage)dyn_storage": {
						"base": "t_struct(DataPurpose)15_storage",
						"encoding": "dynamic_array",
						"label": "struct DataUsage.DataPurpose[]",
						"numberOfBytes": "32"
					},
					"t_string_storage": {
						"encoding": "bytes",
						"label": "string",
						"numberOfBytes": "32"
					},
					"t_struct(DataPurpose)15_storage": {
						"encoding": "inplace",
						"label": "struct DataUsage.DataPurpose",
						"members": [
							{
								"astId": 3,
								"contract": "project3.0 final/DataUsage3.0.sol:DataUsage",
								"label": "blockNumber",
								"offset": 0,
								"slot": "0",
								"type": "t_uint256"
							},
							{
								"astId": 5,
								"contract": "project3.0 final/DataUsage3.0.sol:DataUsage",
								"label": "actorID",
								"offset": 0,
								"slot": "1",
								"type": "t_address"
							},
							{
								"astId": 7,
								"contract": "project3.0 final/DataUsage3.0.sol:DataUsage",
								"label": "serviceName",
								"offset": 0,
								"slot": "2",
								"type": "t_string_storage"
							},
							{
								"astId": 9,
								"contract": "project3.0 final/DataUsage3.0.sol:DataUsage",
								"label": "servicePurpose",
								"offset": 0,
								"slot": "3",
								"type": "t_string_storage"
							},
							{
								"astId": 11,
								"contract": "project3.0 final/DataUsage3.0.sol:DataUsage",
								"label": "operation",
								"offset": 0,
								"slot": "4",
								"type": "t_uint256"
							},
							{
								"astId": 14,
								"contract": "project3.0 final/DataUsage3.0.sol:DataUsage",
								"label": "personalData",
								"offset": 0,
								"slot": "5",
								"type": "t_array(t_string_storage)dyn_storage"
							}
						],
						"numberOfBytes": "192"
					},
					"t_uint256": {
						"encoding": "inplace",
						"label": "uint256",
						"numberOfBytes": "32"
					}
				}
			},
			"userdoc": {
				"kind": "user",
				"methods": {},
				"version": 1
			}
		}
	}
}