{
	"project3.0 final/Agreement3.0.sol": {
		"Agreement": {
			"abi": [
				{
					"inputs": [
						{
							"internalType": "uint256",
							"name": "_blockNumber",
							"type": "uint256"
						},
						{
							"internalType": "address",
							"name": "_userId",
							"type": "address"
						},
						{
							"internalType": "bool",
							"name": "_consent",
							"type": "bool"
						}
					],
					"name": "addVote",
					"outputs": [],
					"stateMutability": "nonpayable",
					"type": "function"
				},
				{
					"inputs": [
						{
							"internalType": "uint256",
							"name": "_blockNumber",
							"type": "uint256"
						}
					],
					"name": "getIsConsent",
					"outputs": [
						{
							"internalType": "bool",
							"name": "",
							"type": "bool"
						}
					],
					"stateMutability": "view",
					"type": "function"
				}
			],
			"devdoc": {
				"kind": "dev",
				"methods": {},
				"version": 1
			},
			"evm": {
				"assembly": "    /* \"project3.0 final/Agreement3.0.sol\":60:934  contract Agreement {... */\n  mstore(0x40, 0x80)\n  callvalue\n  dup1\n  iszero\n  tag_1\n  jumpi\n  0x00\n  dup1\n  revert\ntag_1:\n  pop\n  dataSize(sub_0)\n  dup1\n  dataOffset(sub_0)\n  0x00\n  codecopy\n  0x00\n  return\nstop\n\nsub_0: assembly {\n        /* \"project3.0 final/Agreement3.0.sol\":60:934  contract Agreement {... */\n      mstore(0x40, 0x80)\n      callvalue\n      dup1\n      iszero\n      tag_1\n      jumpi\n      0x00\n      dup1\n      revert\n    tag_1:\n      pop\n      jumpi(tag_2, lt(calldatasize, 0x04))\n      shr(0xe0, calldataload(0x00))\n      dup1\n      0x3ca4b319\n      eq\n      tag_3\n      jumpi\n      dup1\n      0x70620989\n      eq\n      tag_4\n      jumpi\n    tag_2:\n      0x00\n      dup1\n      revert\n        /* \"project3.0 final/Agreement3.0.sol\":761:920  function getIsConsent( uint256 _blockNumber) external view returns (bool) {... */\n    tag_3:\n      tag_5\n      0x04\n      dup1\n      calldatasize\n      sub\n      dup2\n      add\n      swap1\n      tag_6\n      swap2\n      swap1\n      tag_7\n      jump\t// in\n    tag_6:\n      tag_8\n      jump\t// in\n    tag_5:\n      mload(0x40)\n      tag_9\n      swap2\n      swap1\n      tag_10\n      jump\t// in\n    tag_9:\n      mload(0x40)\n      dup1\n      swap2\n      sub\n      swap1\n      return\n        /* \"project3.0 final/Agreement3.0.sol\":329:752  function addVote(... */\n    tag_4:\n      tag_11\n      0x04\n      dup1\n      calldatasize\n      sub\n      dup2\n      add\n      swap1\n      tag_12\n      swap2\n      swap1\n      tag_13\n      jump\t// in\n    tag_12:\n      tag_14\n      jump\t// in\n    tag_11:\n      stop\n        /* \"project3.0 final/Agreement3.0.sol\":761:920  function getIsConsent( uint256 _blockNumber) external view returns (bool) {... */\n    tag_8:\n        /* \"project3.0 final/Agreement3.0.sol\":829:833  bool */\n      0x00\n        /* \"project3.0 final/Agreement3.0.sol\":853:862  voteDatas */\n      dup1\n        /* \"project3.0 final/Agreement3.0.sol\":863:889  blockNumberToVoteDataIndex */\n      0x01\n        /* \"project3.0 final/Agreement3.0.sol\":863:903  blockNumberToVoteDataIndex[_blockNumber] */\n      0x00\n        /* \"project3.0 final/Agreement3.0.sol\":890:902  _blockNumber */\n      dup5\n        /* \"project3.0 final/Agreement3.0.sol\":863:903  blockNumberToVoteDataIndex[_blockNumber] */\n      dup2\n      mstore\n      0x20\n      add\n      swap1\n      dup2\n      mstore\n      0x20\n      add\n      0x00\n      keccak256\n      sload\n        /* \"project3.0 final/Agreement3.0.sol\":853:904  voteDatas[blockNumberToVoteDataIndex[_blockNumber]] */\n      dup2\n      sload\n      dup2\n      lt\n      tag_16\n      jumpi\n      tag_17\n      tag_18\n      jump\t// in\n    tag_17:\n    tag_16:\n      swap1\n      0x00\n      mstore\n      keccak256(0x00, 0x20)\n      swap1\n      0x03\n      mul\n      add\n        /* \"project3.0 final/Agreement3.0.sol\":853:912  voteDatas[blockNumberToVoteDataIndex[_blockNumber]].consent */\n      0x02\n      add\n      0x14\n      swap1\n      sload\n      swap1\n      0x0100\n      exp\n      swap1\n      div\n      0xff\n      and\n        /* \"project3.0 final/Agreement3.0.sol\":846:912  return voteDatas[blockNumberToVoteDataIndex[_blockNumber]].consent */\n      swap1\n      pop\n        /* \"project3.0 final/Agreement3.0.sol\":761:920  function getIsConsent( uint256 _blockNumber) external view returns (bool) {... */\n      swap2\n      swap1\n      pop\n      jump\t// out\n        /* \"project3.0 final/Agreement3.0.sol\":329:752  function addVote(... */\n    tag_14:\n        /* \"project3.0 final/Agreement3.0.sol\":592:601  voteDatas */\n      0x00\n        /* \"project3.0 final/Agreement3.0.sol\":607:670  VoteData(blockhash(_blockNumber),_blockNumber,_userId,_consent) */\n      mload(0x40)\n      dup1\n      0x80\n      add\n      0x40\n      mstore\n      dup1\n        /* \"project3.0 final/Agreement3.0.sol\":626:638  _blockNumber */\n      dup6\n        /* \"project3.0 final/Agreement3.0.sol\":616:639  blockhash(_blockNumber) */\n      blockhash\n        /* \"project3.0 final/Agreement3.0.sol\":607:670  VoteData(blockhash(_blockNumber),_blockNumber,_userId,_consent) */\n      dup2\n      mstore\n      0x20\n      add\n        /* \"project3.0 final/Agreement3.0.sol\":640:652  _blockNumber */\n      dup6\n        /* \"project3.0 final/Agreement3.0.sol\":607:670  VoteData(blockhash(_blockNumber),_blockNumber,_userId,_consent) */\n      dup2\n      mstore\n      0x20\n      add\n        /* \"project3.0 final/Agreement3.0.sol\":653:660  _userId */\n      dup5\n        /* \"project3.0 final/Agreement3.0.sol\":607:670  VoteData(blockhash(_blockNumber),_blockNumber,_userId,_consent) */\n      0xffffffffffffffffffffffffffffffffffffffff\n      and\n      dup2\n      mstore\n      0x20\n      add\n        /* \"project3.0 final/Agreement3.0.sol\":661:669  _consent */\n      dup4\n        /* \"project3.0 final/Agreement3.0.sol\":607:670  VoteData(blockhash(_blockNumber),_blockNumber,_userId,_consent) */\n      iszero\n      iszero\n      dup2\n      mstore\n      pop\n        /* \"project3.0 final/Agreement3.0.sol\":592:671  voteDatas.push(VoteData(blockhash(_blockNumber),_blockNumber,_userId,_consent)) */\n      swap1\n      dup1\n      0x01\n      dup2\n      sload\n      add\n      dup1\n      dup3\n      sstore\n      dup1\n      swap2\n      pop\n      pop\n      0x01\n      swap1\n      sub\n      swap1\n      0x00\n      mstore\n      keccak256(0x00, 0x20)\n      swap1\n      0x03\n      mul\n      add\n      0x00\n      swap1\n      swap2\n      swap1\n      swap2\n      swap1\n      swap2\n      pop\n      0x00\n      dup3\n      add\n      mload\n      dup2\n      0x00\n      add\n      sstore\n      0x20\n      dup3\n      add\n      mload\n      dup2\n      0x01\n      add\n      sstore\n      0x40\n      dup3\n      add\n      mload\n      dup2\n      0x02\n      add\n      exp(0x0100, 0x00)\n      dup2\n      sload\n      dup2\n      0xffffffffffffffffffffffffffffffffffffffff\n      mul\n      not\n      and\n      swap1\n      dup4\n      0xffffffffffffffffffffffffffffffffffffffff\n      and\n      mul\n      or\n      swap1\n      sstore\n      pop\n      0x60\n      dup3\n      add\n      mload\n      dup2\n      0x02\n      add\n      exp(0x0100, 0x14)\n      dup2\n      sload\n      dup2\n      0xff\n      mul\n      not\n      and\n      swap1\n      dup4\n      iszero\n      iszero\n      mul\n      or\n      swap1\n      sstore\n      pop\n      pop\n      pop\n        /* \"project3.0 final/Agreement3.0.sol\":743:744  1 */\n      0x01\n        /* \"project3.0 final/Agreement3.0.sol\":725:734  voteDatas */\n      0x00\n        /* \"project3.0 final/Agreement3.0.sol\":725:741  voteDatas.length */\n      dup1\n      sload\n      swap1\n      pop\n        /* \"project3.0 final/Agreement3.0.sol\":725:744  voteDatas.length -1 */\n      tag_22\n      swap2\n      swap1\n      tag_23\n      jump\t// in\n    tag_22:\n        /* \"project3.0 final/Agreement3.0.sol\":682:708  blockNumberToVoteDataIndex */\n      0x01\n        /* \"project3.0 final/Agreement3.0.sol\":682:722  blockNumberToVoteDataIndex[_blockNumber] */\n      0x00\n        /* \"project3.0 final/Agreement3.0.sol\":709:721  _blockNumber */\n      dup6\n        /* \"project3.0 final/Agreement3.0.sol\":682:722  blockNumberToVoteDataIndex[_blockNumber] */\n      dup2\n      mstore\n      0x20\n      add\n      swap1\n      dup2\n      mstore\n      0x20\n      add\n      0x00\n      keccak256\n        /* \"project3.0 final/Agreement3.0.sol\":682:744  blockNumberToVoteDataIndex[_blockNumber] = voteDatas.length -1 */\n      dup2\n      swap1\n      sstore\n      pop\n        /* \"project3.0 final/Agreement3.0.sol\":329:752  function addVote(... */\n      pop\n      pop\n      pop\n      jump\t// out\n        /* \"#utility.yul\":88:205   */\n    tag_25:\n        /* \"#utility.yul\":197:198   */\n      0x00\n        /* \"#utility.yul\":194:195   */\n      dup1\n        /* \"#utility.yul\":187:199   */\n      revert\n        /* \"#utility.yul\":334:411   */\n    tag_27:\n        /* \"#utility.yul\":371:378   */\n      0x00\n        /* \"#utility.yul\":400:405   */\n      dup2\n        /* \"#utility.yul\":389:405   */\n      swap1\n      pop\n        /* \"#utility.yul\":334:411   */\n      swap2\n      swap1\n      pop\n      jump\t// out\n        /* \"#utility.yul\":417:539   */\n    tag_28:\n        /* \"#utility.yul\":490:514   */\n      tag_45\n        /* \"#utility.yul\":508:513   */\n      dup2\n        /* \"#utility.yul\":490:514   */\n      tag_27\n      jump\t// in\n    tag_45:\n        /* \"#utility.yul\":483:488   */\n      dup2\n        /* \"#utility.yul\":480:515   */\n      eq\n        /* \"#utility.yul\":470:533   */\n      tag_46\n      jumpi\n        /* \"#utility.yul\":529:530   */\n      0x00\n        /* \"#utility.yul\":526:527   */\n      dup1\n        /* \"#utility.yul\":519:531   */\n      revert\n        /* \"#utility.yul\":470:533   */\n    tag_46:\n        /* \"#utility.yul\":417:539   */\n      pop\n      jump\t// out\n        /* \"#utility.yul\":545:684   */\n    tag_29:\n        /* \"#utility.yul\":591:596   */\n      0x00\n        /* \"#utility.yul\":629:635   */\n      dup2\n        /* \"#utility.yul\":616:636   */\n      calldataload\n        /* \"#utility.yul\":607:636   */\n      swap1\n      pop\n        /* \"#utility.yul\":645:678   */\n      tag_48\n        /* \"#utility.yul\":672:677   */\n      dup2\n        /* \"#utility.yul\":645:678   */\n      tag_28\n      jump\t// in\n    tag_48:\n        /* \"#utility.yul\":545:684   */\n      swap3\n      swap2\n      pop\n      pop\n      jump\t// out\n        /* \"#utility.yul\":690:1019   */\n    tag_7:\n        /* \"#utility.yul\":749:755   */\n      0x00\n        /* \"#utility.yul\":798:800   */\n      0x20\n        /* \"#utility.yul\":786:795   */\n      dup3\n        /* \"#utility.yul\":777:784   */\n      dup5\n        /* \"#utility.yul\":773:796   */\n      sub\n        /* \"#utility.yul\":769:801   */\n      slt\n        /* \"#utility.yul\":766:885   */\n      iszero\n      tag_50\n      jumpi\n        /* \"#utility.yul\":804:883   */\n      tag_51\n      tag_25\n      jump\t// in\n    tag_51:\n        /* \"#utility.yul\":766:885   */\n    tag_50:\n        /* \"#utility.yul\":924:925   */\n      0x00\n        /* \"#utility.yul\":949:1002   */\n      tag_52\n        /* \"#utility.yul\":994:1001   */\n      dup5\n        /* \"#utility.yul\":985:991   */\n      dup3\n        /* \"#utility.yul\":974:983   */\n      dup6\n        /* \"#utility.yul\":970:992   */\n      add\n        /* \"#utility.yul\":949:1002   */\n      tag_29\n      jump\t// in\n    tag_52:\n        /* \"#utility.yul\":939:1002   */\n      swap2\n      pop\n        /* \"#utility.yul\":895:1012   */\n      pop\n        /* \"#utility.yul\":690:1019   */\n      swap3\n      swap2\n      pop\n      pop\n      jump\t// out\n        /* \"#utility.yul\":1025:1115   */\n    tag_30:\n        /* \"#utility.yul\":1059:1066   */\n      0x00\n        /* \"#utility.yul\":1102:1107   */\n      dup2\n        /* \"#utility.yul\":1095:1108   */\n      iszero\n        /* \"#utility.yul\":1088:1109   */\n      iszero\n        /* \"#utility.yul\":1077:1109   */\n      swap1\n      pop\n        /* \"#utility.yul\":1025:1115   */\n      swap2\n      swap1\n      pop\n      jump\t// out\n        /* \"#utility.yul\":1121:1230   */\n    tag_31:\n        /* \"#utility.yul\":1202:1223   */\n      tag_55\n        /* \"#utility.yul\":1217:1222   */\n      dup2\n        /* \"#utility.yul\":1202:1223   */\n      tag_30\n      jump\t// in\n    tag_55:\n        /* \"#utility.yul\":1197:1200   */\n      dup3\n        /* \"#utility.yul\":1190:1224   */\n      mstore\n        /* \"#utility.yul\":1121:1230   */\n      pop\n      pop\n      jump\t// out\n        /* \"#utility.yul\":1236:1446   */\n    tag_10:\n        /* \"#utility.yul\":1323:1327   */\n      0x00\n        /* \"#utility.yul\":1361:1363   */\n      0x20\n        /* \"#utility.yul\":1350:1359   */\n      dup3\n        /* \"#utility.yul\":1346:1364   */\n      add\n        /* \"#utility.yul\":1338:1364   */\n      swap1\n      pop\n        /* \"#utility.yul\":1374:1439   */\n      tag_57\n        /* \"#utility.yul\":1436:1437   */\n      0x00\n        /* \"#utility.yul\":1425:1434   */\n      dup4\n        /* \"#utility.yul\":1421:1438   */\n      add\n        /* \"#utility.yul\":1412:1418   */\n      dup5\n        /* \"#utility.yul\":1374:1439   */\n      tag_31\n      jump\t// in\n    tag_57:\n        /* \"#utility.yul\":1236:1446   */\n      swap3\n      swap2\n      pop\n      pop\n      jump\t// out\n        /* \"#utility.yul\":1452:1578   */\n    tag_32:\n        /* \"#utility.yul\":1489:1496   */\n      0x00\n        /* \"#utility.yul\":1529:1571   */\n      0xffffffffffffffffffffffffffffffffffffffff\n        /* \"#utility.yul\":1522:1527   */\n      dup3\n        /* \"#utility.yul\":1518:1572   */\n      and\n        /* \"#utility.yul\":1507:1572   */\n      swap1\n      pop\n        /* \"#utility.yul\":1452:1578   */\n      swap2\n      swap1\n      pop\n      jump\t// out\n        /* \"#utility.yul\":1584:1680   */\n    tag_33:\n        /* \"#utility.yul\":1621:1628   */\n      0x00\n        /* \"#utility.yul\":1650:1674   */\n      tag_60\n        /* \"#utility.yul\":1668:1673   */\n      dup3\n        /* \"#utility.yul\":1650:1674   */\n      tag_32\n      jump\t// in\n    tag_60:\n        /* \"#utility.yul\":1639:1674   */\n      swap1\n      pop\n        /* \"#utility.yul\":1584:1680   */\n      swap2\n      swap1\n      pop\n      jump\t// out\n        /* \"#utility.yul\":1686:1808   */\n    tag_34:\n        /* \"#utility.yul\":1759:1783   */\n      tag_62\n        /* \"#utility.yul\":1777:1782   */\n      dup2\n        /* \"#utility.yul\":1759:1783   */\n      tag_33\n      jump\t// in\n    tag_62:\n        /* \"#utility.yul\":1752:1757   */\n      dup2\n        /* \"#utility.yul\":1749:1784   */\n      eq\n        /* \"#utility.yul\":1739:1802   */\n      tag_63\n      jumpi\n        /* \"#utility.yul\":1798:1799   */\n      0x00\n        /* \"#utility.yul\":1795:1796   */\n      dup1\n        /* \"#utility.yul\":1788:1800   */\n      revert\n        /* \"#utility.yul\":1739:1802   */\n    tag_63:\n        /* \"#utility.yul\":1686:1808   */\n      pop\n      jump\t// out\n        /* \"#utility.yul\":1814:1953   */\n    tag_35:\n        /* \"#utility.yul\":1860:1865   */\n      0x00\n        /* \"#utility.yul\":1898:1904   */\n      dup2\n        /* \"#utility.yul\":1885:1905   */\n      calldataload\n        /* \"#utility.yul\":1876:1905   */\n      swap1\n      pop\n        /* \"#utility.yul\":1914:1947   */\n      tag_65\n        /* \"#utility.yul\":1941:1946   */\n      dup2\n        /* \"#utility.yul\":1914:1947   */\n      tag_34\n      jump\t// in\n    tag_65:\n        /* \"#utility.yul\":1814:1953   */\n      swap3\n      swap2\n      pop\n      pop\n      jump\t// out\n        /* \"#utility.yul\":1959:2075   */\n    tag_36:\n        /* \"#utility.yul\":2029:2050   */\n      tag_67\n        /* \"#utility.yul\":2044:2049   */\n      dup2\n        /* \"#utility.yul\":2029:2050   */\n      tag_30\n      jump\t// in\n    tag_67:\n        /* \"#utility.yul\":2022:2027   */\n      dup2\n        /* \"#utility.yul\":2019:2051   */\n      eq\n        /* \"#utility.yul\":2009:2069   */\n      tag_68\n      jumpi\n        /* \"#utility.yul\":2065:2066   */\n      0x00\n        /* \"#utility.yul\":2062:2063   */\n      dup1\n        /* \"#utility.yul\":2055:2067   */\n      revert\n        /* \"#utility.yul\":2009:2069   */\n    tag_68:\n        /* \"#utility.yul\":1959:2075   */\n      pop\n      jump\t// out\n        /* \"#utility.yul\":2081:2214   */\n    tag_37:\n        /* \"#utility.yul\":2124:2129   */\n      0x00\n        /* \"#utility.yul\":2162:2168   */\n      dup2\n        /* \"#utility.yul\":2149:2169   */\n      calldataload\n        /* \"#utility.yul\":2140:2169   */\n      swap1\n      pop\n        /* \"#utility.yul\":2178:2208   */\n      tag_70\n        /* \"#utility.yul\":2202:2207   */\n      dup2\n        /* \"#utility.yul\":2178:2208   */\n      tag_36\n      jump\t// in\n    tag_70:\n        /* \"#utility.yul\":2081:2214   */\n      swap3\n      swap2\n      pop\n      pop\n      jump\t// out\n        /* \"#utility.yul\":2220:2833   */\n    tag_13:\n        /* \"#utility.yul\":2294:2300   */\n      0x00\n        /* \"#utility.yul\":2302:2308   */\n      dup1\n        /* \"#utility.yul\":2310:2316   */\n      0x00\n        /* \"#utility.yul\":2359:2361   */\n      0x60\n        /* \"#utility.yul\":2347:2356   */\n      dup5\n        /* \"#utility.yul\":2338:2345   */\n      dup7\n        /* \"#utility.yul\":2334:2357   */\n      sub\n        /* \"#utility.yul\":2330:2362   */\n      slt\n        /* \"#utility.yul\":2327:2446   */\n      iszero\n      tag_72\n      jumpi\n        /* \"#utility.yul\":2365:2444   */\n      tag_73\n      tag_25\n      jump\t// in\n    tag_73:\n        /* \"#utility.yul\":2327:2446   */\n    tag_72:\n        /* \"#utility.yul\":2485:2486   */\n      0x00\n        /* \"#utility.yul\":2510:2563   */\n      tag_74\n        /* \"#utility.yul\":2555:2562   */\n      dup7\n        /* \"#utility.yul\":2546:2552   */\n      dup3\n        /* \"#utility.yul\":2535:2544   */\n      dup8\n        /* \"#utility.yul\":2531:2553   */\n      add\n        /* \"#utility.yul\":2510:2563   */\n      tag_29\n      jump\t// in\n    tag_74:\n        /* \"#utility.yul\":2500:2563   */\n      swap4\n      pop\n        /* \"#utility.yul\":2456:2573   */\n      pop\n        /* \"#utility.yul\":2612:2614   */\n      0x20\n        /* \"#utility.yul\":2638:2691   */\n      tag_75\n        /* \"#utility.yul\":2683:2690   */\n      dup7\n        /* \"#utility.yul\":2674:2680   */\n      dup3\n        /* \"#utility.yul\":2663:2672   */\n      dup8\n        /* \"#utility.yul\":2659:2681   */\n      add\n        /* \"#utility.yul\":2638:2691   */\n      tag_35\n      jump\t// in\n    tag_75:\n        /* \"#utility.yul\":2628:2691   */\n      swap3\n      pop\n        /* \"#utility.yul\":2583:2701   */\n      pop\n        /* \"#utility.yul\":2740:2742   */\n      0x40\n        /* \"#utility.yul\":2766:2816   */\n      tag_76\n        /* \"#utility.yul\":2808:2815   */\n      dup7\n        /* \"#utility.yul\":2799:2805   */\n      dup3\n        /* \"#utility.yul\":2788:2797   */\n      dup8\n        /* \"#utility.yul\":2784:2806   */\n      add\n        /* \"#utility.yul\":2766:2816   */\n      tag_37\n      jump\t// in\n    tag_76:\n        /* \"#utility.yul\":2756:2816   */\n      swap2\n      pop\n        /* \"#utility.yul\":2711:2826   */\n      pop\n        /* \"#utility.yul\":2220:2833   */\n      swap3\n      pop\n      swap3\n      pop\n      swap3\n      jump\t// out\n        /* \"#utility.yul\":2839:3019   */\n    tag_18:\n        /* \"#utility.yul\":2887:2964   */\n      0x4e487b7100000000000000000000000000000000000000000000000000000000\n        /* \"#utility.yul\":2884:2885   */\n      0x00\n        /* \"#utility.yul\":2877:2965   */\n      mstore\n        /* \"#utility.yul\":2984:2988   */\n      0x32\n        /* \"#utility.yul\":2981:2982   */\n      0x04\n        /* \"#utility.yul\":2974:2989   */\n      mstore\n        /* \"#utility.yul\":3008:3012   */\n      0x24\n        /* \"#utility.yul\":3005:3006   */\n      0x00\n        /* \"#utility.yul\":2998:3013   */\n      revert\n        /* \"#utility.yul\":3025:3205   */\n    tag_38:\n        /* \"#utility.yul\":3073:3150   */\n      0x4e487b7100000000000000000000000000000000000000000000000000000000\n        /* \"#utility.yul\":3070:3071   */\n      0x00\n        /* \"#utility.yul\":3063:3151   */\n      mstore\n        /* \"#utility.yul\":3170:3174   */\n      0x11\n        /* \"#utility.yul\":3167:3168   */\n      0x04\n        /* \"#utility.yul\":3160:3175   */\n      mstore\n        /* \"#utility.yul\":3194:3198   */\n      0x24\n        /* \"#utility.yul\":3191:3192   */\n      0x00\n        /* \"#utility.yul\":3184:3199   */\n      revert\n        /* \"#utility.yul\":3211:3405   */\n    tag_23:\n        /* \"#utility.yul\":3251:3255   */\n      0x00\n        /* \"#utility.yul\":3271:3291   */\n      tag_80\n        /* \"#utility.yul\":3289:3290   */\n      dup3\n        /* \"#utility.yul\":3271:3291   */\n      tag_27\n      jump\t// in\n    tag_80:\n        /* \"#utility.yul\":3266:3291   */\n      swap2\n      pop\n        /* \"#utility.yul\":3305:3325   */\n      tag_81\n        /* \"#utility.yul\":3323:3324   */\n      dup4\n        /* \"#utility.yul\":3305:3325   */\n      tag_27\n      jump\t// in\n    tag_81:\n        /* \"#utility.yul\":3300:3325   */\n      swap3\n      pop\n        /* \"#utility.yul\":3349:3350   */\n      dup3\n        /* \"#utility.yul\":3346:3347   */\n      dup3\n        /* \"#utility.yul\":3342:3351   */\n      sub\n        /* \"#utility.yul\":3334:3351   */\n      swap1\n      pop\n        /* \"#utility.yul\":3373:3374   */\n      dup2\n        /* \"#utility.yul\":3367:3371   */\n      dup2\n        /* \"#utility.yul\":3364:3375   */\n      gt\n        /* \"#utility.yul\":3361:3398   */\n      iszero\n      tag_82\n      jumpi\n        /* \"#utility.yul\":3378:3396   */\n      tag_83\n      tag_38\n      jump\t// in\n    tag_83:\n        /* \"#utility.yul\":3361:3398   */\n    tag_82:\n        /* \"#utility.yul\":3211:3405   */\n      swap3\n      swap2\n      pop\n      pop\n      jump\t// out\n\n    auxdata: 0xa2646970667358221220a7ec81cca3d2efaf3146ebd4837d5cb1577c42676ada592ae8ffff1e6e2fb45a64736f6c63430008120033\n}\n",
				"bytecode": {
					"linkReferences": {},
					"object": "608060405234801561001057600080fd5b50610428806100206000396000f3fe608060405234801561001057600080fd5b50600436106100365760003560e01c80633ca4b3191461003b578063706209891461006b575b600080fd5b61005560048036038101906100509190610220565b610087565b6040516100629190610268565b60405180910390f35b6100856004803603810190610080919061030d565b6100d5565b005b6000806001600084815260200190815260200160002054815481106100af576100ae610360565b5b906000526020600020906003020160020160149054906101000a900460ff169050919050565b60006040518060800160405280854081526020018581526020018473ffffffffffffffffffffffffffffffffffffffff1681526020018315158152509080600181540180825580915050600190039060005260206000209060030201600090919091909150600082015181600001556020820151816001015560408201518160020160006101000a81548173ffffffffffffffffffffffffffffffffffffffff021916908373ffffffffffffffffffffffffffffffffffffffff16021790555060608201518160020160146101000a81548160ff021916908315150217905550505060016000805490506101c991906103be565b6001600085815260200190815260200160002081905550505050565b600080fd5b6000819050919050565b6101fd816101ea565b811461020857600080fd5b50565b60008135905061021a816101f4565b92915050565b600060208284031215610236576102356101e5565b5b60006102448482850161020b565b91505092915050565b60008115159050919050565b6102628161024d565b82525050565b600060208201905061027d6000830184610259565b92915050565b600073ffffffffffffffffffffffffffffffffffffffff82169050919050565b60006102ae82610283565b9050919050565b6102be816102a3565b81146102c957600080fd5b50565b6000813590506102db816102b5565b92915050565b6102ea8161024d565b81146102f557600080fd5b50565b600081359050610307816102e1565b92915050565b600080600060608486031215610326576103256101e5565b5b60006103348682870161020b565b9350506020610345868287016102cc565b9250506040610356868287016102f8565b9150509250925092565b7f4e487b7100000000000000000000000000000000000000000000000000000000600052603260045260246000fd5b7f4e487b7100000000000000000000000000000000000000000000000000000000600052601160045260246000fd5b60006103c9826101ea565b91506103d4836101ea565b92508282039050818111156103ec576103eb61038f565b5b9291505056fea2646970667358221220a7ec81cca3d2efaf3146ebd4837d5cb1577c42676ada592ae8ffff1e6e2fb45a64736f6c63430008120033",
					"opcodes": "PUSH1 0x80 PUSH1 0x40 MSTORE CALLVALUE DUP1 ISZERO PUSH2 0x10 JUMPI PUSH1 0x0 DUP1 REVERT JUMPDEST POP PUSH2 0x428 DUP1 PUSH2 0x20 PUSH1 0x0 CODECOPY PUSH1 0x0 RETURN INVALID PUSH1 0x80 PUSH1 0x40 MSTORE CALLVALUE DUP1 ISZERO PUSH2 0x10 JUMPI PUSH1 0x0 DUP1 REVERT JUMPDEST POP PUSH1 0x4 CALLDATASIZE LT PUSH2 0x36 JUMPI PUSH1 0x0 CALLDATALOAD PUSH1 0xE0 SHR DUP1 PUSH4 0x3CA4B319 EQ PUSH2 0x3B JUMPI DUP1 PUSH4 0x70620989 EQ PUSH2 0x6B JUMPI JUMPDEST PUSH1 0x0 DUP1 REVERT JUMPDEST PUSH2 0x55 PUSH1 0x4 DUP1 CALLDATASIZE SUB DUP2 ADD SWAP1 PUSH2 0x50 SWAP2 SWAP1 PUSH2 0x220 JUMP JUMPDEST PUSH2 0x87 JUMP JUMPDEST PUSH1 0x40 MLOAD PUSH2 0x62 SWAP2 SWAP1 PUSH2 0x268 JUMP JUMPDEST PUSH1 0x40 MLOAD DUP1 SWAP2 SUB SWAP1 RETURN JUMPDEST PUSH2 0x85 PUSH1 0x4 DUP1 CALLDATASIZE SUB DUP2 ADD SWAP1 PUSH2 0x80 SWAP2 SWAP1 PUSH2 0x30D JUMP JUMPDEST PUSH2 0xD5 JUMP JUMPDEST STOP JUMPDEST PUSH1 0x0 DUP1 PUSH1 0x1 PUSH1 0x0 DUP5 DUP2 MSTORE PUSH1 0x20 ADD SWAP1 DUP2 MSTORE PUSH1 0x20 ADD PUSH1 0x0 KECCAK256 SLOAD DUP2 SLOAD DUP2 LT PUSH2 0xAF JUMPI PUSH2 0xAE PUSH2 0x360 JUMP JUMPDEST JUMPDEST SWAP1 PUSH1 0x0 MSTORE PUSH1 0x20 PUSH1 0x0 KECCAK256 SWAP1 PUSH1 0x3 MUL ADD PUSH1 0x2 ADD PUSH1 0x14 SWAP1 SLOAD SWAP1 PUSH2 0x100 EXP SWAP1 DIV PUSH1 0xFF AND SWAP1 POP SWAP2 SWAP1 POP JUMP JUMPDEST PUSH1 0x0 PUSH1 0x40 MLOAD DUP1 PUSH1 0x80 ADD PUSH1 0x40 MSTORE DUP1 DUP6 BLOCKHASH DUP2 MSTORE PUSH1 0x20 ADD DUP6 DUP2 MSTORE PUSH1 0x20 ADD DUP5 PUSH20 0xFFFFFFFFFFFFFFFFFFFFFFFFFFFFFFFFFFFFFFFF AND DUP2 MSTORE PUSH1 0x20 ADD DUP4 ISZERO ISZERO DUP2 MSTORE POP SWAP1 DUP1 PUSH1 0x1 DUP2 SLOAD ADD DUP1 DUP3 SSTORE DUP1 SWAP2 POP POP PUSH1 0x1 SWAP1 SUB SWAP1 PUSH1 0x0 MSTORE PUSH1 0x20 PUSH1 0x0 KECCAK256 SWAP1 PUSH1 0x3 MUL ADD PUSH1 0x0 SWAP1 SWAP2 SWAP1 SWAP2 SWAP1 SWAP2 POP PUSH1 0x0 DUP3 ADD MLOAD DUP2 PUSH1 0x0 ADD SSTORE PUSH1 0x20 DUP3 ADD MLOAD DUP2 PUSH1 0x1 ADD SSTORE PUSH1 0x40 DUP3 ADD MLOAD DUP2 PUSH1 0x2 ADD PUSH1 0x0 PUSH2 0x100 EXP DUP2 SLOAD DUP2 PUSH20 0xFFFFFFFFFFFFFFFFFFFFFFFFFFFFFFFFFFFFFFFF MUL NOT AND SWAP1 DUP4 PUSH20 0xFFFFFFFFFFFFFFFFFFFFFFFFFFFFFFFFFFFFFFFF AND MUL OR SWAP1 SSTORE POP PUSH1 0x60 DUP3 ADD MLOAD DUP2 PUSH1 0x2 ADD PUSH1 0x14 PUSH2 0x100 EXP DUP2 SLOAD DUP2 PUSH1 0xFF MUL NOT AND SWAP1 DUP4 ISZERO ISZERO MUL OR SWAP1 SSTORE POP POP POP PUSH1 0x1 PUSH1 0x0 DUP1 SLOAD SWAP1 POP PUSH2 0x1C9 SWAP2 SWAP1 PUSH2 0x3BE JUMP JUMPDEST PUSH1 0x1 PUSH1 0x0 DUP6 DUP2 MSTORE PUSH1 0x20 ADD SWAP1 DUP2 MSTORE PUSH1 0x20 ADD PUSH1 0x0 KECCAK256 DUP2 SWAP1 SSTORE POP POP POP POP JUMP JUMPDEST PUSH1 0x0 DUP1 REVERT JUMPDEST PUSH1 0x0 DUP2 SWAP1 POP SWAP2 SWAP1 POP JUMP JUMPDEST PUSH2 0x1FD DUP2 PUSH2 0x1EA JUMP JUMPDEST DUP2 EQ PUSH2 0x208 JUMPI PUSH1 0x0 DUP1 REVERT JUMPDEST POP JUMP JUMPDEST PUSH1 0x0 DUP2 CALLDATALOAD SWAP1 POP PUSH2 0x21A DUP2 PUSH2 0x1F4 JUMP JUMPDEST SWAP3 SWAP2 POP POP JUMP JUMPDEST PUSH1 0x0 PUSH1 0x20 DUP3 DUP5 SUB SLT ISZERO PUSH2 0x236 JUMPI PUSH2 0x235 PUSH2 0x1E5 JUMP JUMPDEST JUMPDEST PUSH1 0x0 PUSH2 0x244 DUP5 DUP3 DUP6 ADD PUSH2 0x20B JUMP JUMPDEST SWAP2 POP POP SWAP3 SWAP2 POP POP JUMP JUMPDEST PUSH1 0x0 DUP2 ISZERO ISZERO SWAP1 POP SWAP2 SWAP1 POP JUMP JUMPDEST PUSH2 0x262 DUP2 PUSH2 0x24D JUMP JUMPDEST DUP3 MSTORE POP POP JUMP JUMPDEST PUSH1 0x0 PUSH1 0x20 DUP3 ADD SWAP1 POP PUSH2 0x27D PUSH1 0x0 DUP4 ADD DUP5 PUSH2 0x259 JUMP JUMPDEST SWAP3 SWAP2 POP POP JUMP JUMPDEST PUSH1 0x0 PUSH20 0xFFFFFFFFFFFFFFFFFFFFFFFFFFFFFFFFFFFFFFFF DUP3 AND SWAP1 POP SWAP2 SWAP1 POP JUMP JUMPDEST PUSH1 0x0 PUSH2 0x2AE DUP3 PUSH2 0x283 JUMP JUMPDEST SWAP1 POP SWAP2 SWAP1 POP JUMP JUMPDEST PUSH2 0x2BE DUP2 PUSH2 0x2A3 JUMP JUMPDEST DUP2 EQ PUSH2 0x2C9 JUMPI PUSH1 0x0 DUP1 REVERT JUMPDEST POP JUMP JUMPDEST PUSH1 0x0 DUP2 CALLDATALOAD SWAP1 POP PUSH2 0x2DB DUP2 PUSH2 0x2B5 JUMP JUMPDEST SWAP3 SWAP2 POP POP JUMP JUMPDEST PUSH2 0x2EA DUP2 PUSH2 0x24D JUMP JUMPDEST DUP2 EQ PUSH2 0x2F5 JUMPI PUSH1 0x0 DUP1 REVERT JUMPDEST POP JUMP JUMPDEST PUSH1 0x0 DUP2 CALLDATALOAD SWAP1 POP PUSH2 0x307 DUP2 PUSH2 0x2E1 JUMP JUMPDEST SWAP3 SWAP2 POP POP JUMP JUMPDEST PUSH1 0x0 DUP1 PUSH1 0x0 PUSH1 0x60 DUP5 DUP7 SUB SLT ISZERO PUSH2 0x326 JUMPI PUSH2 0x325 PUSH2 0x1E5 JUMP JUMPDEST JUMPDEST PUSH1 0x0 PUSH2 0x334 DUP7 DUP3 DUP8 ADD PUSH2 0x20B JUMP JUMPDEST SWAP4 POP POP PUSH1 0x20 PUSH2 0x345 DUP7 DUP3 DUP8 ADD PUSH2 0x2CC JUMP JUMPDEST SWAP3 POP POP PUSH1 0x40 PUSH2 0x356 DUP7 DUP3 DUP8 ADD PUSH2 0x2F8 JUMP JUMPDEST SWAP2 POP POP SWAP3 POP SWAP3 POP SWAP3 JUMP JUMPDEST PUSH32 0x4E487B7100000000000000000000000000000000000000000000000000000000 PUSH1 0x0 MSTORE PUSH1 0x32 PUSH1 0x4 MSTORE PUSH1 0x24 PUSH1 0x0 REVERT JUMPDEST PUSH32 0x4E487B7100000000000000000000000000000000000000000000000000000000 PUSH1 0x0 MSTORE PUSH1 0x11 PUSH1 0x4 MSTORE PUSH1 0x24 PUSH1 0x0 REVERT JUMPDEST PUSH1 0x0 PUSH2 0x3C9 DUP3 PUSH2 0x1EA JUMP JUMPDEST SWAP2 POP PUSH2 0x3D4 DUP4 PUSH2 0x1EA JUMP JUMPDEST SWAP3 POP DUP3 DUP3 SUB SWAP1 POP DUP2 DUP2 GT ISZERO PUSH2 0x3EC JUMPI PUSH2 0x3EB PUSH2 0x38F JUMP JUMPDEST JUMPDEST SWAP3 SWAP2 POP POP JUMP INVALID LOG2 PUSH5 0x6970667358 0x22 SLT KECCAK256 0xA7 0xEC DUP2 0xCC LOG3 0xD2 0xEF 0xAF BALANCE CHAINID 0xEB 0xD4 DUP4 PUSH30 0x5CB1577C42676ADA592AE8FFFF1E6E2FB45A64736F6C6343000812003300 "
				},
				"gasEstimates": {
					"creation": {
						"codeDepositCost": "212800",
						"executionCost": "257",
						"totalCost": "213057"
					},
					"external": {
						"addVote(uint256,address,bool)": "infinite",
						"getIsConsent(uint256)": "7147"
					}
				},
				"methodIdentifiers": {
					"addVote(uint256,address,bool)": "70620989",
					"getIsConsent(uint256)": "3ca4b319"
				}
			},
			"storageLayout": {
				"storage": [
					{
						"astId": 14,
						"contract": "project3.0 final/Agreement3.0.sol:Agreement",
						"label": "voteDatas",
						"offset": 0,
						"slot": "0",
						"type": "t_array(t_struct(VoteData)10_storage)dyn_storage"
					},
					{
						"astId": 18,
						"contract": "project3.0 final/Agreement3.0.sol:Agreement",
						"label": "blockNumberToVoteDataIndex",
						"offset": 0,
						"slot": "1",
						"type": "t_mapping(t_uint256,t_uint256)"
					}
				],
				"types": {
					"t_address": {
						"encoding": "inplace",
						"label": "address",
						"numberOfBytes": "20"
					},
					"t_array(t_struct(VoteData)10_storage)dyn_storage": {
						"base": "t_struct(VoteData)10_storage",
						"encoding": "dynamic_array",
						"label": "struct Agreement.VoteData[]",
						"numberOfBytes": "32"
					},
					"t_bool": {
						"encoding": "inplace",
						"label": "bool",
						"numberOfBytes": "1"
					},
					"t_bytes32": {
						"encoding": "inplace",
						"label": "bytes32",
						"numberOfBytes": "32"
					},
					"t_mapping(t_uint256,t_uint256)": {
						"encoding": "mapping",
						"key": "t_uint256",
						"label": "mapping(uint256 => uint256)",
						"numberOfBytes": "32",
						"value": "t_uint256"
					},
					"t_struct(VoteData)10_storage": {
						"encoding": "inplace",
						"label": "struct Agreement.VoteData",
						"members": [
							{
								"astId": 3,
								"contract": "project3.0 final/Agreement3.0.sol:Agreement",
								"label": "hashAddress",
								"offset": 0,
								"slot": "0",
								"type": "t_bytes32"
							},
							{
								"astId": 5,
								"contract": "project3.0 final/Agreement3.0.sol:Agreement",
								"label": "blockNumber",
								"offset": 0,
								"slot": "1",
								"type": "t_uint256"
							},
							{
								"astId": 7,
								"contract": "project3.0 final/Agreement3.0.sol:Agreement",
								"label": "userId",
								"offset": 0,
								"slot": "2",
								"type": "t_address"
							},
							{
								"astId": 9,
								"contract": "project3.0 final/Agreement3.0.sol:Agreement",
								"label": "consent",
								"offset": 20,
								"slot": "2",
								"type": "t_bool"
							}
						],
						"numberOfBytes": "96"
					},
					"t_uint256": {
						"encoding": "inplace",
						"label": "uint256",
						"numberOfBytes": "32"
					}
				}
			},
			"userdoc": {
				"kind": "user",
				"methods": {},
				"version": 1
			}
		}
	}
}