{
	"data": {
		"bytecode": {
			"linkReferences": {},
			"object": "608060405234801561001057600080fd5b50610dc3806100206000396000f3fe608060405234801561001057600080fd5b506004361061004c5760003560e01c8063202e392414610051578063525309c91461008157806356e246a71461009d578063d28fe3d0146100cd575b600080fd5b61006b600480360381019061006691906104fc565b6100fd565b6040516100789190610538565b60405180910390f35b61009b600480360381019061009691906107dd565b61013e565b005b6100b760048036038101906100b291906104fc565b610266565b6040516100c491906109d1565b60405180910390f35b6100e760048036038101906100e291906104fc565b610377565b6040516100f49190610a02565b60405180910390f35b60008060016000848152602001908152602001600020548154811061012557610124610a1d565b5b9060005260206000209060050201600201549050919050565b60006040518060a001604052808781526020018673ffffffffffffffffffffffffffffffffffffffff1681526020018581526020018481526020018381525090806001815401808255809150506001900390600052602060002090600502016000909190919091506000820151816000015560208201518160010160006101000a81548173ffffffffffffffffffffffffffffffffffffffff021916908373ffffffffffffffffffffffffffffffffffffffff16021790555060408201518160020155606082015181600301908051906020019061021d9291906103d8565b5060808201518160040190816102339190610c58565b50505060016000805490506102489190610d59565b60016000878152602001908152602001600020819055505050505050565b6060600060016000848152602001908152602001600020548154811061028f5761028e610a1d565b5b9060005260206000209060050201600301805480602002602001604051908101604052809291908181526020016000905b8282101561036c5783829060005260206000200180546102df90610a7b565b80601f016020809104026020016040519081016040528092919081815260200182805461030b90610a7b565b80156103585780601f1061032d57610100808354040283529160200191610358565b820191906000526020600020905b81548152906001019060200180831161033b57829003601f168201915b5050505050815260200190600101906102c0565b505050509050919050565b60008060016000848152602001908152602001600020548154811061039f5761039e610a1d565b5b906000526020600020906005020160010160009054906101000a900473ffffffffffffffffffffffffffffffffffffffff169050919050565b828054828255906000526020600020908101928215610420579160200282015b8281111561041f57825182908161040f9190610c58565b50916020019190600101906103f8565b5b50905061042d9190610431565b5090565b5b8082111561045157600081816104489190610455565b50600101610432565b5090565b50805461046190610a7b565b6000825580601f106104735750610492565b601f0160209004906000526020600020908101906104919190610495565b5b50565b5b808211156104ae576000816000905550600101610496565b5090565b6000604051905090565b600080fd5b600080fd5b6000819050919050565b6104d9816104c6565b81146104e457600080fd5b50565b6000813590506104f6816104d0565b92915050565b600060208284031215610512576105116104bc565b5b6000610520848285016104e7565b91505092915050565b610532816104c6565b82525050565b600060208201905061054d6000830184610529565b92915050565b600073ffffffffffffffffffffffffffffffffffffffff82169050919050565b600061057e82610553565b9050919050565b61058e81610573565b811461059957600080fd5b50565b6000813590506105ab81610585565b92915050565b600080fd5b6000601f19601f8301169050919050565b7f4e487b7100000000000000000000000000000000000000000000000000000000600052604160045260246000fd5b6105ff826105b6565b810181811067ffffffffffffffff8211171561061e5761061d6105c7565b5b80604052505050565b60006106316104b2565b905061063d82826105f6565b919050565b600067ffffffffffffffff82111561065d5761065c6105c7565b5b602082029050602081019050919050565b600080fd5b600080fd5b600067ffffffffffffffff821115610693576106926105c7565b5b61069c826105b6565b9050602081019050919050565b82818337600083830152505050565b60006106cb6106c684610678565b610627565b9050828152602081018484840111156106e7576106e6610673565b5b6106f28482856106a9565b509392505050565b600082601f83011261070f5761070e6105b1565b5b813561071f8482602086016106b8565b91505092915050565b600061073b61073684610642565b610627565b9050808382526020820190506020840283018581111561075e5761075d61066e565b5b835b818110156107a557803567ffffffffffffffff811115610783576107826105b1565b5b80860161079089826106fa565b85526020850194505050602081019050610760565b5050509392505050565b600082601f8301126107c4576107c36105b1565b5b81356107d4848260208601610728565b91505092915050565b600080600080600060a086880312156107f9576107f86104bc565b5b6000610807888289016104e7565b95505060206108188882890161059c565b9450506040610829888289016104e7565b935050606086013567ffffffffffffffff81111561084a576108496104c1565b5b610856888289016107af565b925050608086013567ffffffffffffffff811115610877576108766104c1565b5b610883888289016106fa565b9150509295509295909350565b600081519050919050565b600082825260208201905092915050565b6000819050602082019050919050565b600081519050919050565b600082825260208201905092915050565b60005b838110156108f65780820151818401526020810190506108db565b60008484015250505050565b600061090d826108bc565b61091781856108c7565b93506109278185602086016108d8565b610930816105b6565b840191505092915050565b60006109478383610902565b905092915050565b6000602082019050919050565b600061096782610890565b610971818561089b565b935083602082028501610983856108ac565b8060005b858110156109bf57848403895281516109a0858261093b565b94506109ab8361094f565b925060208a01995050600181019050610987565b50829750879550505050505092915050565b600060208201905081810360008301526109eb818461095c565b905092915050565b6109fc81610573565b82525050565b6000602082019050610a1760008301846109f3565b92915050565b7f4e487b7100000000000000000000000000000000000000000000000000000000600052603260045260246000fd5b7f4e487b7100000000000000000000000000000000000000000000000000000000600052602260045260246000fd5b60006002820490506001821680610a9357607f821691505b602082108103610aa657610aa5610a4c565b5b50919050565b60008190508160005260206000209050919050565b60006020601f8301049050919050565b600082821b905092915050565b600060088302610b0e7fffffffffffffffffffffffffffffffffffffffffffffffffffffffffffffffff82610ad1565b610b188683610ad1565b95508019841693508086168417925050509392505050565b6000819050919050565b6000610b55610b50610b4b846104c6565b610b30565b6104c6565b9050919050565b6000819050919050565b610b6f83610b3a565b610b83610b7b82610b5c565b848454610ade565b825550505050565b600090565b610b98610b8b565b610ba3818484610b66565b505050565b5b81811015610bc757610bbc600082610b90565b600181019050610ba9565b5050565b601f821115610c0c57610bdd81610aac565b610be684610ac1565b81016020851015610bf5578190505b610c09610c0185610ac1565b830182610ba8565b50505b505050565b600082821c905092915050565b6000610c2f60001984600802610c11565b1980831691505092915050565b6000610c488383610c1e565b9150826002028217905092915050565b610c61826108bc565b67ffffffffffffffff811115610c7a57610c796105c7565b5b610c848254610a7b565b610c8f828285610bcb565b600060209050601f831160018114610cc25760008415610cb0578287015190505b610cba8582610c3c565b865550610d22565b601f198416610cd086610aac565b60005b82811015610cf857848901518255600182019150602085019450602081019050610cd3565b86831015610d155784890151610d11601f891682610c1e565b8355505b6001600288020188555050505b505050505050565b7f4e487b7100000000000000000000000000000000000000000000000000000000600052601160045260246000fd5b6000610d64826104c6565b9150610d6f836104c6565b9250828203905081811115610d8757610d86610d2a565b5b9291505056fea2646970667358221220d6acc7b779f4feb8b6c84743724798fea9c4437d4f8474d34f2586665fef7adc64736f6c63430008120033",
			"opcodes": "PUSH1 0x80 PUSH1 0x40 MSTORE CALLVALUE DUP1 ISZERO PUSH2 0x10 JUMPI PUSH1 0x0 DUP1 REVERT JUMPDEST POP PUSH2 0xDC3 DUP1 PUSH2 0x20 PUSH1 0x0 CODECOPY PUSH1 0x0 RETURN INVALID PUSH1 0x80 PUSH1 0x40 MSTORE CALLVALUE DUP1 ISZERO PUSH2 0x10 JUMPI PUSH1 0x0 DUP1 REVERT JUMPDEST POP PUSH1 0x4 CALLDATASIZE LT PUSH2 0x4C JUMPI PUSH1 0x0 CALLDATALOAD PUSH1 0xE0 SHR DUP1 PUSH4 0x202E3924 EQ PUSH2 0x51 JUMPI DUP1 PUSH4 0x525309C9 EQ PUSH2 0x81 JUMPI DUP1 PUSH4 0x56E246A7 EQ PUSH2 0x9D JUMPI DUP1 PUSH4 0xD28FE3D0 EQ PUSH2 0xCD JUMPI JUMPDEST PUSH1 0x0 DUP1 REVERT JUMPDEST PUSH2 0x6B PUSH1 0x4 DUP1 CALLDATASIZE SUB DUP2 ADD SWAP1 PUSH2 0x66 SWAP2 SWAP1 PUSH2 0x4FC JUMP JUMPDEST PUSH2 0xFD JUMP JUMPDEST PUSH1 0x40 MLOAD PUSH2 0x78 SWAP2 SWAP1 PUSH2 0x538 JUMP JUMPDEST PUSH1 0x40 MLOAD DUP1 SWAP2 SUB SWAP1 RETURN JUMPDEST PUSH2 0x9B PUSH1 0x4 DUP1 CALLDATASIZE SUB DUP2 ADD SWAP1 PUSH2 0x96 SWAP2 SWAP1 PUSH2 0x7DD JUMP JUMPDEST PUSH2 0x13E JUMP JUMPDEST STOP JUMPDEST PUSH2 0xB7 PUSH1 0x4 DUP1 CALLDATASIZE SUB DUP2 ADD SWAP1 PUSH2 0xB2 SWAP2 SWAP1 PUSH2 0x4FC JUMP JUMPDEST PUSH2 0x266 JUMP JUMPDEST PUSH1 0x40 MLOAD PUSH2 0xC4 SWAP2 SWAP1 PUSH2 0x9D1 JUMP JUMPDEST PUSH1 0x40 MLOAD DUP1 SWAP2 SUB SWAP1 RETURN JUMPDEST PUSH2 0xE7 PUSH1 0x4 DUP1 CALLDATASIZE SUB DUP2 ADD SWAP1 PUSH2 0xE2 SWAP2 SWAP1 PUSH2 0x4FC JUMP JUMPDEST PUSH2 0x377 JUMP JUMPDEST PUSH1 0x40 MLOAD PUSH2 0xF4 SWAP2 SWAP1 PUSH2 0xA02 JUMP JUMPDEST PUSH1 0x40 MLOAD DUP1 SWAP2 SUB SWAP1 RETURN JUMPDEST PUSH1 0x0 DUP1 PUSH1 0x1 PUSH1 0x0 DUP5 DUP2 MSTORE PUSH1 0x20 ADD SWAP1 DUP2 MSTORE PUSH1 0x20 ADD PUSH1 0x0 KECCAK256 SLOAD DUP2 SLOAD DUP2 LT PUSH2 0x125 JUMPI PUSH2 0x124 PUSH2 0xA1D JUMP JUMPDEST JUMPDEST SWAP1 PUSH1 0x0 MSTORE PUSH1 0x20 PUSH1 0x0 KECCAK256 SWAP1 PUSH1 0x5 MUL ADD PUSH1 0x2 ADD SLOAD SWAP1 POP SWAP2 SWAP1 POP JUMP JUMPDEST PUSH1 0x0 PUSH1 0x40 MLOAD DUP1 PUSH1 0xA0 ADD PUSH1 0x40 MSTORE DUP1 DUP8 DUP2 MSTORE PUSH1 0x20 ADD DUP7 PUSH20 0xFFFFFFFFFFFFFFFFFFFFFFFFFFFFFFFFFFFFFFFF AND DUP2 MSTORE PUSH1 0x20 ADD DUP6 DUP2 MSTORE PUSH1 0x20 ADD DUP5 DUP2 MSTORE PUSH1 0x20 ADD DUP4 DUP2 MSTORE POP SWAP1 DUP1 PUSH1 0x1 DUP2 SLOAD ADD DUP1 DUP3 SSTORE DUP1 SWAP2 POP POP PUSH1 0x1 SWAP1 SUB SWAP1 PUSH1 0x0 MSTORE PUSH1 0x20 PUSH1 0x0 KECCAK256 SWAP1 PUSH1 0x5 MUL ADD PUSH1 0x0 SWAP1 SWAP2 SWAP1 SWAP2 SWAP1 SWAP2 POP PUSH1 0x0 DUP3 ADD MLOAD DUP2 PUSH1 0x0 ADD SSTORE PUSH1 0x20 DUP3 ADD MLOAD DUP2 PUSH1 0x1 ADD PUSH1 0x0 PUSH2 0x100 EXP DUP2 SLOAD DUP2 PUSH20 0xFFFFFFFFFFFFFFFFFFFFFFFFFFFFFFFFFFFFFFFF MUL NOT AND SWAP1 DUP4 PUSH20 0xFFFFFFFFFFFFFFFFFFFFFFFFFFFFFFFFFFFFFFFF AND MUL OR SWAP1 SSTORE POP PUSH1 0x40 DUP3 ADD MLOAD DUP2 PUSH1 0x2 ADD SSTORE PUSH1 0x60 DUP3 ADD MLOAD DUP2 PUSH1 0x3 ADD SWAP1 DUP1 MLOAD SWAP1 PUSH1 0x20 ADD SWAP1 PUSH2 0x21D SWAP3 SWAP2 SWAP1 PUSH2 0x3D8 JUMP JUMPDEST POP PUSH1 0x80 DUP3 ADD MLOAD DUP2 PUSH1 0x4 ADD SWAP1 DUP2 PUSH2 0x233 SWAP2 SWAP1 PUSH2 0xC58 JUMP JUMPDEST POP POP POP PUSH1 0x1 PUSH1 0x0 DUP1 SLOAD SWAP1 POP PUSH2 0x248 SWAP2 SWAP1 PUSH2 0xD59 JUMP JUMPDEST PUSH1 0x1 PUSH1 0x0 DUP8 DUP2 MSTORE PUSH1 0x20 ADD SWAP1 DUP2 MSTORE PUSH1 0x20 ADD PUSH1 0x0 KECCAK256 DUP2 SWAP1 SSTORE POP POP POP POP POP POP JUMP JUMPDEST PUSH1 0x60 PUSH1 0x0 PUSH1 0x1 PUSH1 0x0 DUP5 DUP2 MSTORE PUSH1 0x20 ADD SWAP1 DUP2 MSTORE PUSH1 0x20 ADD PUSH1 0x0 KECCAK256 SLOAD DUP2 SLOAD DUP2 LT PUSH2 0x28F JUMPI PUSH2 0x28E PUSH2 0xA1D JUMP JUMPDEST JUMPDEST SWAP1 PUSH1 0x0 MSTORE PUSH1 0x20 PUSH1 0x0 KECCAK256 SWAP1 PUSH1 0x5 MUL ADD PUSH1 0x3 ADD DUP1 SLOAD DUP1 PUSH1 0x20 MUL PUSH1 0x20 ADD PUSH1 0x40 MLOAD SWAP1 DUP2 ADD PUSH1 0x40 MSTORE DUP1 SWAP3 SWAP2 SWAP1 DUP2 DUP2 MSTORE PUSH1 0x20 ADD PUSH1 0x0 SWAP1 JUMPDEST DUP3 DUP3 LT ISZERO PUSH2 0x36C JUMPI DUP4 DUP3 SWAP1 PUSH1 0x0 MSTORE PUSH1 0x20 PUSH1 0x0 KECCAK256 ADD DUP1 SLOAD PUSH2 0x2DF SWAP1 PUSH2 0xA7B JUMP JUMPDEST DUP1 PUSH1 0x1F ADD PUSH1 0x20 DUP1 SWAP2 DIV MUL PUSH1 0x20 ADD PUSH1 0x40 MLOAD SWAP1 DUP2 ADD PUSH1 0x40 MSTORE DUP1 SWAP3 SWAP2 SWAP1 DUP2 DUP2 MSTORE PUSH1 0x20 ADD DUP3 DUP1 SLOAD PUSH2 0x30B SWAP1 PUSH2 0xA7B JUMP JUMPDEST DUP1 ISZERO PUSH2 0x358 JUMPI DUP1 PUSH1 0x1F LT PUSH2 0x32D JUMPI PUSH2 0x100 DUP1 DUP4 SLOAD DIV MUL DUP4 MSTORE SWAP2 PUSH1 0x20 ADD SWAP2 PUSH2 0x358 JUMP JUMPDEST DUP3 ADD SWAP2 SWAP1 PUSH1 0x0 MSTORE PUSH1 0x20 PUSH1 0x0 KECCAK256 SWAP1 JUMPDEST DUP2 SLOAD DUP2 MSTORE SWAP1 PUSH1 0x1 ADD SWAP1 PUSH1 0x20 ADD DUP1 DUP4 GT PUSH2 0x33B JUMPI DUP3 SWAP1 SUB PUSH1 0x1F AND DUP3 ADD SWAP2 JUMPDEST POP POP POP POP POP DUP2 MSTORE PUSH1 0x20 ADD SWAP1 PUSH1 0x1 ADD SWAP1 PUSH2 0x2C0 JUMP JUMPDEST POP POP POP POP SWAP1 POP SWAP2 SWAP1 POP JUMP JUMPDEST PUSH1 0x0 DUP1 PUSH1 0x1 PUSH1 0x0 DUP5 DUP2 MSTORE PUSH1 0x20 ADD SWAP1 DUP2 MSTORE PUSH1 0x20 ADD PUSH1 0x0 KECCAK256 SLOAD DUP2 SLOAD DUP2 LT PUSH2 0x39F JUMPI PUSH2 0x39E PUSH2 0xA1D JUMP JUMPDEST JUMPDEST SWAP1 PUSH1 0x0 MSTORE PUSH1 0x20 PUSH1 0x0 KECCAK256 SWAP1 PUSH1 0x5 MUL ADD PUSH1 0x1 ADD PUSH1 0x0 SWAP1 SLOAD SWAP1 PUSH2 0x100 EXP SWAP1 DIV PUSH20 0xFFFFFFFFFFFFFFFFFFFFFFFFFFFFFFFFFFFFFFFF AND SWAP1 POP SWAP2 SWAP1 POP JUMP JUMPDEST DUP3 DUP1 SLOAD DUP3 DUP3 SSTORE SWAP1 PUSH1 0x0 MSTORE PUSH1 0x20 PUSH1 0x0 KECCAK256 SWAP1 DUP2 ADD SWAP3 DUP3 ISZERO PUSH2 0x420 JUMPI SWAP2 PUSH1 0x20 MUL DUP3 ADD JUMPDEST DUP3 DUP2 GT ISZERO PUSH2 0x41F JUMPI DUP3 MLOAD DUP3 SWAP1 DUP2 PUSH2 0x40F SWAP2 SWAP1 PUSH2 0xC58 JUMP JUMPDEST POP SWAP2 PUSH1 0x20 ADD SWAP2 SWAP1 PUSH1 0x1 ADD SWAP1 PUSH2 0x3F8 JUMP JUMPDEST JUMPDEST POP SWAP1 POP PUSH2 0x42D SWAP2 SWAP1 PUSH2 0x431 JUMP JUMPDEST POP SWAP1 JUMP JUMPDEST JUMPDEST DUP1 DUP3 GT ISZERO PUSH2 0x451 JUMPI PUSH1 0x0 DUP2 DUP2 PUSH2 0x448 SWAP2 SWAP1 PUSH2 0x455 JUMP JUMPDEST POP PUSH1 0x1 ADD PUSH2 0x432 JUMP JUMPDEST POP SWAP1 JUMP JUMPDEST POP DUP1 SLOAD PUSH2 0x461 SWAP1 PUSH2 0xA7B JUMP JUMPDEST PUSH1 0x0 DUP3 SSTORE DUP1 PUSH1 0x1F LT PUSH2 0x473 JUMPI POP PUSH2 0x492 JUMP JUMPDEST PUSH1 0x1F ADD PUSH1 0x20 SWAP1 DIV SWAP1 PUSH1 0x0 MSTORE PUSH1 0x20 PUSH1 0x0 KECCAK256 SWAP1 DUP2 ADD SWAP1 PUSH2 0x491 SWAP2 SWAP1 PUSH2 0x495 JUMP JUMPDEST JUMPDEST POP JUMP JUMPDEST JUMPDEST DUP1 DUP3 GT ISZERO PUSH2 0x4AE JUMPI PUSH1 0x0 DUP2 PUSH1 0x0 SWAP1 SSTORE POP PUSH1 0x1 ADD PUSH2 0x496 JUMP JUMPDEST POP SWAP1 JUMP JUMPDEST PUSH1 0x0 PUSH1 0x40 MLOAD SWAP1 POP SWAP1 JUMP JUMPDEST PUSH1 0x0 DUP1 REVERT JUMPDEST PUSH1 0x0 DUP1 REVERT JUMPDEST PUSH1 0x0 DUP2 SWAP1 POP SWAP2 SWAP1 POP JUMP JUMPDEST PUSH2 0x4D9 DUP2 PUSH2 0x4C6 JUMP JUMPDEST DUP2 EQ PUSH2 0x4E4 JUMPI PUSH1 0x0 DUP1 REVERT JUMPDEST POP JUMP JUMPDEST PUSH1 0x0 DUP2 CALLDATALOAD SWAP1 POP PUSH2 0x4F6 DUP2 PUSH2 0x4D0 JUMP JUMPDEST SWAP3 SWAP2 POP POP JUMP JUMPDEST PUSH1 0x0 PUSH1 0x20 DUP3 DUP5 SUB SLT ISZERO PUSH2 0x512 JUMPI PUSH2 0x511 PUSH2 0x4BC JUMP JUMPDEST JUMPDEST PUSH1 0x0 PUSH2 0x520 DUP5 DUP3 DUP6 ADD PUSH2 0x4E7 JUMP JUMPDEST SWAP2 POP POP SWAP3 SWAP2 POP POP JUMP JUMPDEST PUSH2 0x532 DUP2 PUSH2 0x4C6 JUMP JUMPDEST DUP3 MSTORE POP POP JUMP JUMPDEST PUSH1 0x0 PUSH1 0x20 DUP3 ADD SWAP1 POP PUSH2 0x54D PUSH1 0x0 DUP4 ADD DUP5 PUSH2 0x529 JUMP JUMPDEST SWAP3 SWAP2 POP POP JUMP JUMPDEST PUSH1 0x0 PUSH20 0xFFFFFFFFFFFFFFFFFFFFFFFFFFFFFFFFFFFFFFFF DUP3 AND SWAP1 POP SWAP2 SWAP1 POP JUMP JUMPDEST PUSH1 0x0 PUSH2 0x57E DUP3 PUSH2 0x553 JUMP JUMPDEST SWAP1 POP SWAP2 SWAP1 POP JUMP JUMPDEST PUSH2 0x58E DUP2 PUSH2 0x573 JUMP JUMPDEST DUP2 EQ PUSH2 0x599 JUMPI PUSH1 0x0 DUP1 REVERT JUMPDEST POP JUMP JUMPDEST PUSH1 0x0 DUP2 CALLDATALOAD SWAP1 POP PUSH2 0x5AB DUP2 PUSH2 0x585 JUMP JUMPDEST SWAP3 SWAP2 POP POP JUMP JUMPDEST PUSH1 0x0 DUP1 REVERT JUMPDEST PUSH1 0x0 PUSH1 0x1F NOT PUSH1 0x1F DUP4 ADD AND SWAP1 POP SWAP2 SWAP1 POP JUMP JUMPDEST PUSH32 0x4E487B7100000000000000000000000000000000000000000000000000000000 PUSH1 0x0 MSTORE PUSH1 0x41 PUSH1 0x4 MSTORE PUSH1 0x24 PUSH1 0x0 REVERT JUMPDEST PUSH2 0x5FF DUP3 PUSH2 0x5B6 JUMP JUMPDEST DUP2 ADD DUP2 DUP2 LT PUSH8 0xFFFFFFFFFFFFFFFF DUP3 GT OR ISZERO PUSH2 0x61E JUMPI PUSH2 0x61D PUSH2 0x5C7 JUMP JUMPDEST JUMPDEST DUP1 PUSH1 0x40 MSTORE POP POP POP JUMP JUMPDEST PUSH1 0x0 PUSH2 0x631 PUSH2 0x4B2 JUMP JUMPDEST SWAP1 POP PUSH2 0x63D DUP3 DUP3 PUSH2 0x5F6 JUMP JUMPDEST SWAP2 SWAP1 POP JUMP JUMPDEST PUSH1 0x0 PUSH8 0xFFFFFFFFFFFFFFFF DUP3 GT ISZERO PUSH2 0x65D JUMPI PUSH2 0x65C PUSH2 0x5C7 JUMP JUMPDEST JUMPDEST PUSH1 0x20 DUP3 MUL SWAP1 POP PUSH1 0x20 DUP2 ADD SWAP1 POP SWAP2 SWAP1 POP JUMP JUMPDEST PUSH1 0x0 DUP1 REVERT JUMPDEST PUSH1 0x0 DUP1 REVERT JUMPDEST PUSH1 0x0 PUSH8 0xFFFFFFFFFFFFFFFF DUP3 GT ISZERO PUSH2 0x693 JUMPI PUSH2 0x692 PUSH2 0x5C7 JUMP JUMPDEST JUMPDEST PUSH2 0x69C DUP3 PUSH2 0x5B6 JUMP JUMPDEST SWAP1 POP PUSH1 0x20 DUP2 ADD SWAP1 POP SWAP2 SWAP1 POP JUMP JUMPDEST DUP3 DUP2 DUP4 CALLDATACOPY PUSH1 0x0 DUP4 DUP4 ADD MSTORE POP POP POP JUMP JUMPDEST PUSH1 0x0 PUSH2 0x6CB PUSH2 0x6C6 DUP5 PUSH2 0x678 JUMP JUMPDEST PUSH2 0x627 JUMP JUMPDEST SWAP1 POP DUP3 DUP2 MSTORE PUSH1 0x20 DUP2 ADD DUP5 DUP5 DUP5 ADD GT ISZERO PUSH2 0x6E7 JUMPI PUSH2 0x6E6 PUSH2 0x673 JUMP JUMPDEST JUMPDEST PUSH2 0x6F2 DUP5 DUP3 DUP6 PUSH2 0x6A9 JUMP JUMPDEST POP SWAP4 SWAP3 POP POP POP JUMP JUMPDEST PUSH1 0x0 DUP3 PUSH1 0x1F DUP4 ADD SLT PUSH2 0x70F JUMPI PUSH2 0x70E PUSH2 0x5B1 JUMP JUMPDEST JUMPDEST DUP2 CALLDATALOAD PUSH2 0x71F DUP5 DUP3 PUSH1 0x20 DUP7 ADD PUSH2 0x6B8 JUMP JUMPDEST SWAP2 POP POP SWAP3 SWAP2 POP POP JUMP JUMPDEST PUSH1 0x0 PUSH2 0x73B PUSH2 0x736 DUP5 PUSH2 0x642 JUMP JUMPDEST PUSH2 0x627 JUMP JUMPDEST SWAP1 POP DUP1 DUP4 DUP3 MSTORE PUSH1 0x20 DUP3 ADD SWAP1 POP PUSH1 0x20 DUP5 MUL DUP4 ADD DUP6 DUP2 GT ISZERO PUSH2 0x75E JUMPI PUSH2 0x75D PUSH2 0x66E JUMP JUMPDEST JUMPDEST DUP4 JUMPDEST DUP2 DUP2 LT ISZERO PUSH2 0x7A5 JUMPI DUP1 CALLDATALOAD PUSH8 0xFFFFFFFFFFFFFFFF DUP2 GT ISZERO PUSH2 0x783 JUMPI PUSH2 0x782 PUSH2 0x5B1 JUMP JUMPDEST JUMPDEST DUP1 DUP7 ADD PUSH2 0x790 DUP10 DUP3 PUSH2 0x6FA JUMP JUMPDEST DUP6 MSTORE PUSH1 0x20 DUP6 ADD SWAP5 POP POP POP PUSH1 0x20 DUP2 ADD SWAP1 POP PUSH2 0x760 JUMP JUMPDEST POP POP POP SWAP4 SWAP3 POP POP POP JUMP JUMPDEST PUSH1 0x0 DUP3 PUSH1 0x1F DUP4 ADD SLT PUSH2 0x7C4 JUMPI PUSH2 0x7C3 PUSH2 0x5B1 JUMP JUMPDEST JUMPDEST DUP2 CALLDATALOAD PUSH2 0x7D4 DUP5 DUP3 PUSH1 0x20 DUP7 ADD PUSH2 0x728 JUMP JUMPDEST SWAP2 POP POP SWAP3 SWAP2 POP POP JUMP JUMPDEST PUSH1 0x0 DUP1 PUSH1 0x0 DUP1 PUSH1 0x0 PUSH1 0xA0 DUP7 DUP9 SUB SLT ISZERO PUSH2 0x7F9 JUMPI PUSH2 0x7F8 PUSH2 0x4BC JUMP JUMPDEST JUMPDEST PUSH1 0x0 PUSH2 0x807 DUP9 DUP3 DUP10 ADD PUSH2 0x4E7 JUMP JUMPDEST SWAP6 POP POP PUSH1 0x20 PUSH2 0x818 DUP9 DUP3 DUP10 ADD PUSH2 0x59C JUMP JUMPDEST SWAP5 POP POP PUSH1 0x40 PUSH2 0x829 DUP9 DUP3 DUP10 ADD PUSH2 0x4E7 JUMP JUMPDEST SWAP4 POP POP PUSH1 0x60 DUP7 ADD CALLDATALOAD PUSH8 0xFFFFFFFFFFFFFFFF DUP2 GT ISZERO PUSH2 0x84A JUMPI PUSH2 0x849 PUSH2 0x4C1 JUMP JUMPDEST JUMPDEST PUSH2 0x856 DUP9 DUP3 DUP10 ADD PUSH2 0x7AF JUMP JUMPDEST SWAP3 POP POP PUSH1 0x80 DUP7 ADD CALLDATALOAD PUSH8 0xFFFFFFFFFFFFFFFF DUP2 GT ISZERO PUSH2 0x877 JUMPI PUSH2 0x876 PUSH2 0x4C1 JUMP JUMPDEST JUMPDEST PUSH2 0x883 DUP9 DUP3 DUP10 ADD PUSH2 0x6FA JUMP JUMPDEST SWAP2 POP POP SWAP3 SWAP6 POP SWAP3 SWAP6 SWAP1 SWAP4 POP JUMP JUMPDEST PUSH1 0x0 DUP2 MLOAD SWAP1 POP SWAP2 SWAP1 POP JUMP JUMPDEST PUSH1 0x0 DUP3 DUP3 MSTORE PUSH1 0x20 DUP3 ADD SWAP1 POP SWAP3 SWAP2 POP POP JUMP JUMPDEST PUSH1 0x0 DUP2 SWAP1 POP PUSH1 0x20 DUP3 ADD SWAP1 POP SWAP2 SWAP1 POP JUMP JUMPDEST PUSH1 0x0 DUP2 MLOAD SWAP1 POP SWAP2 SWAP1 POP JUMP JUMPDEST PUSH1 0x0 DUP3 DUP3 MSTORE PUSH1 0x20 DUP3 ADD SWAP1 POP SWAP3 SWAP2 POP POP JUMP JUMPDEST PUSH1 0x0 JUMPDEST DUP4 DUP2 LT ISZERO PUSH2 0x8F6 JUMPI DUP1 DUP3 ADD MLOAD DUP2 DUP5 ADD MSTORE PUSH1 0x20 DUP2 ADD SWAP1 POP PUSH2 0x8DB JUMP JUMPDEST PUSH1 0x0 DUP5 DUP5 ADD MSTORE POP POP POP POP JUMP JUMPDEST PUSH1 0x0 PUSH2 0x90D DUP3 PUSH2 0x8BC JUMP JUMPDEST PUSH2 0x917 DUP2 DUP6 PUSH2 0x8C7 JUMP JUMPDEST SWAP4 POP PUSH2 0x927 DUP2 DUP6 PUSH1 0x20 DUP7 ADD PUSH2 0x8D8 JUMP JUMPDEST PUSH2 0x930 DUP2 PUSH2 0x5B6 JUMP JUMPDEST DUP5 ADD SWAP2 POP POP SWAP3 SWAP2 POP POP JUMP JUMPDEST PUSH1 0x0 PUSH2 0x947 DUP4 DUP4 PUSH2 0x902 JUMP JUMPDEST SWAP1 POP SWAP3 SWAP2 POP POP JUMP JUMPDEST PUSH1 0x0 PUSH1 0x20 DUP3 ADD SWAP1 POP SWAP2 SWAP1 POP JUMP JUMPDEST PUSH1 0x0 PUSH2 0x967 DUP3 PUSH2 0x890 JUMP JUMPDEST PUSH2 0x971 DUP2 DUP6 PUSH2 0x89B JUMP JUMPDEST SWAP4 POP DUP4 PUSH1 0x20 DUP3 MUL DUP6 ADD PUSH2 0x983 DUP6 PUSH2 0x8AC JUMP JUMPDEST DUP1 PUSH1 0x0 JUMPDEST DUP6 DUP2 LT ISZERO PUSH2 0x9BF JUMPI DUP5 DUP5 SUB DUP10 MSTORE DUP2 MLOAD PUSH2 0x9A0 DUP6 DUP3 PUSH2 0x93B JUMP JUMPDEST SWAP5 POP PUSH2 0x9AB DUP4 PUSH2 0x94F JUMP JUMPDEST SWAP3 POP PUSH1 0x20 DUP11 ADD SWAP10 POP POP PUSH1 0x1 DUP2 ADD SWAP1 POP PUSH2 0x987 JUMP JUMPDEST POP DUP3 SWAP8 POP DUP8 SWAP6 POP POP POP POP POP POP SWAP3 SWAP2 POP POP JUMP JUMPDEST PUSH1 0x0 PUSH1 0x20 DUP3 ADD SWAP1 POP DUP2 DUP2 SUB PUSH1 0x0 DUP4 ADD MSTORE PUSH2 0x9EB DUP2 DUP5 PUSH2 0x95C JUMP JUMPDEST SWAP1 POP SWAP3 SWAP2 POP POP JUMP JUMPDEST PUSH2 0x9FC DUP2 PUSH2 0x573 JUMP JUMPDEST DUP3 MSTORE POP POP JUMP JUMPDEST PUSH1 0x0 PUSH1 0x20 DUP3 ADD SWAP1 POP PUSH2 0xA17 PUSH1 0x0 DUP4 ADD DUP5 PUSH2 0x9F3 JUMP JUMPDEST SWAP3 SWAP2 POP POP JUMP JUMPDEST PUSH32 0x4E487B7100000000000000000000000000000000000000000000000000000000 PUSH1 0x0 MSTORE PUSH1 0x32 PUSH1 0x4 MSTORE PUSH1 0x24 PUSH1 0x0 REVERT JUMPDEST PUSH32 0x4E487B7100000000000000000000000000000000000000000000000000000000 PUSH1 0x0 MSTORE PUSH1 0x22 PUSH1 0x4 MSTORE PUSH1 0x24 PUSH1 0x0 REVERT JUMPDEST PUSH1 0x0 PUSH1 0x2 DUP3 DIV SWAP1 POP PUSH1 0x1 DUP3 AND DUP1 PUSH2 0xA93 JUMPI PUSH1 0x7F DUP3 AND SWAP2 POP JUMPDEST PUSH1 0x20 DUP3 LT DUP2 SUB PUSH2 0xAA6 JUMPI PUSH2 0xAA5 PUSH2 0xA4C JUMP JUMPDEST JUMPDEST POP SWAP2 SWAP1 POP JUMP JUMPDEST PUSH1 0x0 DUP2 SWAP1 POP DUP2 PUSH1 0x0 MSTORE PUSH1 0x20 PUSH1 0x0 KECCAK256 SWAP1 POP SWAP2 SWAP1 POP JUMP JUMPDEST PUSH1 0x0 PUSH1 0x20 PUSH1 0x1F DUP4 ADD DIV SWAP1 POP SWAP2 SWAP1 POP JUMP JUMPDEST PUSH1 0x0 DUP3 DUP3 SHL SWAP1 POP SWAP3 SWAP2 POP POP JUMP JUMPDEST PUSH1 0x0 PUSH1 0x8 DUP4 MUL PUSH2 0xB0E PUSH32 0xFFFFFFFFFFFFFFFFFFFFFFFFFFFFFFFFFFFFFFFFFFFFFFFFFFFFFFFFFFFFFFFF DUP3 PUSH2 0xAD1 JUMP JUMPDEST PUSH2 0xB18 DUP7 DUP4 PUSH2 0xAD1 JUMP JUMPDEST SWAP6 POP DUP1 NOT DUP5 AND SWAP4 POP DUP1 DUP7 AND DUP5 OR SWAP3 POP POP POP SWAP4 SWAP3 POP POP POP JUMP JUMPDEST PUSH1 0x0 DUP2 SWAP1 POP SWAP2 SWAP1 POP JUMP JUMPDEST PUSH1 0x0 PUSH2 0xB55 PUSH2 0xB50 PUSH2 0xB4B DUP5 PUSH2 0x4C6 JUMP JUMPDEST PUSH2 0xB30 JUMP JUMPDEST PUSH2 0x4C6 JUMP JUMPDEST SWAP1 POP SWAP2 SWAP1 POP JUMP JUMPDEST PUSH1 0x0 DUP2 SWAP1 POP SWAP2 SWAP1 POP JUMP JUMPDEST PUSH2 0xB6F DUP4 PUSH2 0xB3A JUMP JUMPDEST PUSH2 0xB83 PUSH2 0xB7B DUP3 PUSH2 0xB5C JUMP JUMPDEST DUP5 DUP5 SLOAD PUSH2 0xADE JUMP JUMPDEST DUP3 SSTORE POP POP POP POP JUMP JUMPDEST PUSH1 0x0 SWAP1 JUMP JUMPDEST PUSH2 0xB98 PUSH2 0xB8B JUMP JUMPDEST PUSH2 0xBA3 DUP2 DUP5 DUP5 PUSH2 0xB66 JUMP JUMPDEST POP POP POP JUMP JUMPDEST JUMPDEST DUP2 DUP2 LT ISZERO PUSH2 0xBC7 JUMPI PUSH2 0xBBC PUSH1 0x0 DUP3 PUSH2 0xB90 JUMP JUMPDEST PUSH1 0x1 DUP2 ADD SWAP1 POP PUSH2 0xBA9 JUMP JUMPDEST POP POP JUMP JUMPDEST PUSH1 0x1F DUP3 GT ISZERO PUSH2 0xC0C JUMPI PUSH2 0xBDD DUP2 PUSH2 0xAAC JUMP JUMPDEST PUSH2 0xBE6 DUP5 PUSH2 0xAC1 JUMP JUMPDEST DUP2 ADD PUSH1 0x20 DUP6 LT ISZERO PUSH2 0xBF5 JUMPI DUP2 SWAP1 POP JUMPDEST PUSH2 0xC09 PUSH2 0xC01 DUP6 PUSH2 0xAC1 JUMP JUMPDEST DUP4 ADD DUP3 PUSH2 0xBA8 JUMP JUMPDEST POP POP JUMPDEST POP POP POP JUMP JUMPDEST PUSH1 0x0 DUP3 DUP3 SHR SWAP1 POP SWAP3 SWAP2 POP POP JUMP JUMPDEST PUSH1 0x0 PUSH2 0xC2F PUSH1 0x0 NOT DUP5 PUSH1 0x8 MUL PUSH2 0xC11 JUMP JUMPDEST NOT DUP1 DUP4 AND SWAP2 POP POP SWAP3 SWAP2 POP POP JUMP JUMPDEST PUSH1 0x0 PUSH2 0xC48 DUP4 DUP4 PUSH2 0xC1E JUMP JUMPDEST SWAP2 POP DUP3 PUSH1 0x2 MUL DUP3 OR SWAP1 POP SWAP3 SWAP2 POP POP JUMP JUMPDEST PUSH2 0xC61 DUP3 PUSH2 0x8BC JUMP JUMPDEST PUSH8 0xFFFFFFFFFFFFFFFF DUP2 GT ISZERO PUSH2 0xC7A JUMPI PUSH2 0xC79 PUSH2 0x5C7 JUMP JUMPDEST JUMPDEST PUSH2 0xC84 DUP3 SLOAD PUSH2 0xA7B JUMP JUMPDEST PUSH2 0xC8F DUP3 DUP3 DUP6 PUSH2 0xBCB JUMP JUMPDEST PUSH1 0x0 PUSH1 0x20 SWAP1 POP PUSH1 0x1F DUP4 GT PUSH1 0x1 DUP2 EQ PUSH2 0xCC2 JUMPI PUSH1 0x0 DUP5 ISZERO PUSH2 0xCB0 JUMPI DUP3 DUP8 ADD MLOAD SWAP1 POP JUMPDEST PUSH2 0xCBA DUP6 DUP3 PUSH2 0xC3C JUMP JUMPDEST DUP7 SSTORE POP PUSH2 0xD22 JUMP JUMPDEST PUSH1 0x1F NOT DUP5 AND PUSH2 0xCD0 DUP7 PUSH2 0xAAC JUMP JUMPDEST PUSH1 0x0 JUMPDEST DUP3 DUP2 LT ISZERO PUSH2 0xCF8 JUMPI DUP5 DUP10 ADD MLOAD DUP3 SSTORE PUSH1 0x1 DUP3 ADD SWAP2 POP PUSH1 0x20 DUP6 ADD SWAP5 POP PUSH1 0x20 DUP2 ADD SWAP1 POP PUSH2 0xCD3 JUMP JUMPDEST DUP7 DUP4 LT ISZERO PUSH2 0xD15 JUMPI DUP5 DUP10 ADD MLOAD PUSH2 0xD11 PUSH1 0x1F DUP10 AND DUP3 PUSH2 0xC1E JUMP JUMPDEST DUP4 SSTORE POP JUMPDEST PUSH1 0x1 PUSH1 0x2 DUP9 MUL ADD DUP9 SSTORE POP POP POP JUMPDEST POP POP POP POP POP POP JUMP JUMPDEST PUSH32 0x4E487B7100000000000000000000000000000000000000000000000000000000 PUSH1 0x0 MSTORE PUSH1 0x11 PUSH1 0x4 MSTORE PUSH1 0x24 PUSH1 0x0 REVERT JUMPDEST PUSH1 0x0 PUSH2 0xD64 DUP3 PUSH2 0x4C6 JUMP JUMPDEST SWAP2 POP PUSH2 0xD6F DUP4 PUSH2 0x4C6 JUMP JUMPDEST SWAP3 POP DUP3 DUP3 SUB SWAP1 POP DUP2 DUP2 GT ISZERO PUSH2 0xD87 JUMPI PUSH2 0xD86 PUSH2 0xD2A JUMP JUMPDEST JUMPDEST SWAP3 SWAP2 POP POP JUMP INVALID LOG2 PUSH5 0x6970667358 0x22 SLT KECCAK256 0xD6 0xAC 0xC7 0xB7 PUSH26 0xF4FEB8B6C84743724798FEA9C4437D4F8474D34F2586665FEF7A 0xDC PUSH5 0x736F6C6343 STOP ADDMOD SLT STOP CALLER "
		},
		"gasEstimates": {
			"creation": {
				"codeDepositCost": "704600",
				"executionCost": "741",
				"totalCost": "705341"
			},
			"external": {
				"addLog(uint256,address,uint256,string[],string)": "infinite",
				"getActorId(uint256)": "7206",
				"getOperation(uint256)": "infinite",
				"getPersonalData(uint256)": "infinite"
			}
		},
		"methodIdentifiers": {
			"addLog(uint256,address,uint256,string[],string)": "525309c9",
			"getActorId(uint256)": "d28fe3d0",
			"getOperation(uint256)": "202e3924",
			"getPersonalData(uint256)": "56e246a7"
		}
	},
	"abi": [
		{
			"inputs": [
				{
					"internalType": "uint256",
					"name": "_blockNumber",
					"type": "uint256"
				},
				{
					"internalType": "address",
					"name": "_actorId",
					"type": "address"
				},
				{
					"internalType": "uint256",
					"name": "_operation",
					"type": "uint256"
				},
				{
					"internalType": "string[]",
					"name": "_personalData",
					"type": "string[]"
				},
				{
					"internalType": "string",
					"name": "_serviceName",
					"type": "string"
				}
			],
			"name": "addLog",
			"outputs": [],
			"stateMutability": "nonpayable",
			"type": "function"
		},
		{
			"inputs": [
				{
					"internalType": "uint256",
					"name": "_blockNumber",
					"type": "uint256"
				}
			],
			"name": "getActorId",
			"outputs": [
				{
					"internalType": "address",
					"name": "",
					"type": "address"
				}
			],
			"stateMutability": "view",
			"type": "function"
		},
		{
			"inputs": [
				{
					"internalType": "uint256",
					"name": "_blockNumber",
					"type": "uint256"
				}
			],
			"name": "getOperation",
			"outputs": [
				{
					"internalType": "uint256",
					"name": "",
					"type": "uint256"
				}
			],
			"stateMutability": "view",
			"type": "function"
		},
		{
			"inputs": [
				{
					"internalType": "uint256",
					"name": "_blockNumber",
					"type": "uint256"
				}
			],
			"name": "getPersonalData",
			"outputs": [
				{
					"internalType": "string[]",
					"name": "",
					"type": "string[]"
				}
			],
			"stateMutability": "view",
			"type": "function"
		}
	]
}